:100000000C94EB000C9408010C9408010C94B22C95
:100010000C9408010C94632D0C9408010C940801B5
:100020000C9408010C9408010C9408010C9408012C
:100030000C9408010C9408010C9408010C9408011C
:100040000C9408010C9408010C9408010C9408010C
:100050000C9408010C9408010C9408010C940801FC
:100060000C9408010C94080105A84CCDB2D44EB9EB
:100070003836A9020C50B9918688083CA6AAAA2A4B
:10008000BE000000803F0664EC1B3C04BC163E3BF7
:10009000E5B93CC93C37C29E5A3D660498083EEA21
:1000A00069AAAA3E000000803F000000000000FF97
:1000B000C1D5C1FE0C020000005C222A221D3EC1F7
:1000C000C9C93E0808080808492A1C080000050399
:1000D0000000001C2241000041221C00000002051B
:1000E0000208083E08080050300000080808080808
:1000F000006060000020100804023E5149453E00A7
:10010000427F400042615149462141454B3118141C
:10011000127F1027454545393C4A4949300171094C
:1001200005033649494936064949291E00000000A1
:1001300000000000000000000000000000000000BF
:100140000000000000000000000000000000007E31
:100150001111117E7F494949363E414141227F417B
:1001600041221C7F494949417F090909013E414912
:10017000497A7F0808087F00417F41002040413FC5
:10018000017F081422417F404040407F020C027FE3
:100190007F0408107F3E4141413E7F090909063E28
:1001A0004151215E7F0919294646494949310101DA
:1001B0007F01013F4040403F1F2040201F3F40380B
:1001C000403F6314081463070870080761514945EC
:1001D00043000000000011241FBECFEFD8E0DEBFB7
:1001E000CDBF11E0A0E0B1E0ECEFFAE602C005906F
:1001F0000D92A23AB107D9F723E0A2EAB1E001C01B
:100200001D92AC3BB207E1F70E94032C0C947C35A5
:100210000C9400002F923F924F925F926F927F92C8
:100220008F929F92AF92BF92CF92DF92EF92FF9206
:100230000F931F93CF93DF93CDB7DEB7CB55D10983
:100240000FB6F894DEBF0FBECDBFE090A601F090D0
:10025000A701F9AEE8AE0091A2011091A301249686
:100260001FAF0EAF2497E090A401F090A501F8868F
:10027000EF820091A8011091A9012E961FAF0EAF39
:100280002E971091AA011B87E090AB01EC86F090AD
:10029000AC01FD860091AD010E871091AE011F8764
:1002A000E090AF01E88AF090B001F98A0091B101C5
:1002B0000A8B2091BE013091BF014091C001509145
:1002C000C10129833A834B835C8320E030E040EA1C
:1002D00050E469817A818B819C810E948F3287FFF3
:1002E00002C00C94220E20E030E040EA50E4698124
:1002F0007A818B819C810E9422326D837E83782E4D
:10030000692E7B012BED3FE049EC50E46983FA82D2
:100310008B839C8369817A818B819C810E9432349A
:10032000181674F42BED3FE049EC50E469817A81B2
:100330008B819C810E9422326D837E83782E692E70
:10034000F8942496EEACFFAC24972F813885E29E7A
:100350008001E39E100DF29E100D11241DAF0CAF15
:100360003F85288999898A8939832A839B838C834D
:1003700069817A818B819C810E940B336F8378879E
:100380003B852C859D858E8539832A839B838C8331
:1003900069817A818B819C810E940B33CB01E09033
:1003A0009801F0909901FBAEEAAE0AE010E01FABB5
:1003B0000EAB1EA21FA218A619A61E8A1F8A188E8F
:1003C000198ED12CC12CB12CA12C1AA21BA21CA2BB
:1003D0001DA22F813885287FA901032E000C660BF2
:1003E000770B62964CAF5DAF6EAF7FAF629748AD53
:1003F00059AD5195419551097A01550F000B110BDB
:100400002896ECAEFDAE0EAF1FAF2897AC01487F2B
:1004100068AD79AD640F751F7B01770F000B110B71
:100420002C96ECAEFDAE0EAF1FAF2C97E8ACF9AC3E
:100430000F2C000C000B110B2296ECAEFDAE0EAF94
:100440001FAF22977A01550F000B110B6696ECAE89
:10045000FDAE0EAF1FAF669708AD19AD200F311F6F
:10046000A901330F660B770B6A964CAF5DAF6EAF89
:100470007FAF6A978AA79BA7EF80ECA6F884FDA6BA
:100480000D8109831E811A837B826C8269817A8146
:100490008B819C810E94F234462F572FBC014F83E1
:1004A000588769877A879A01AB0160E070E080E83D
:1004B0009FEB0E9499328B018C8B9B8B2BED3FE045
:1004C00049E450E469817A818B819C810E943234B5
:1004D00018160CF07CC062966CAD7DAD8EAD9FADF4
:1004E00062970E9443334B017C0127E137EB41EDDA
:1004F00058E369839A828B83FC8269817A818B813C
:100500009C810E942232D62EC72EB82EA92E27E11A
:1005100037EB41ED58E37F85688999898A8979832A
:100520006A839B838C8369817A818B819C810E9401
:1005300023329401A70169837A838B839C83698129
:100540007A818B819C810E94223298014C895B893F
:1005500069837A838B839C8369817A818B819C8177
:100560000E943734BB85AC85FD85EE852B2F3A2F55
:100570004F2F5E2F69837A838B839C8369817A8175
:100580008B819C810E9423326AA37BA38CA39DA3B1
:1005900028966CAD7DAD8EAD9FAD28970E944333FC
:1005A0006EA37FA388A799A79B01AC0109831A8337
:1005B000EC88EB82FB88FC8269817A818B819C814B
:1005C0000E94373490586E8B7F8B888F998F2BEDDC
:1005D0003FE049E450E4ED80E982FE80FA827B82CC
:1005E0006C8269817A818B819C810E948F3287FD28
:1005F00002C00C94180D20E030E0A90169817A81D5
:100600008B819C810E948F32882311F40C94CF0D32
:1006100022966CAD7DAD8EAD9FAD22970E94433387
:100620006EA37FA388A799A79B01AC0109831A83B6
:10063000EC88EB82FB88FC8269817A818B819C81CA
:100640000E94373490586E8B7F8B888F998F6A9673
:100650006CAD7DAD8EAD9FAD6A970E9443334B016B
:100660001C01262F392D422D532D7F8568899989AC
:100670008A8979836A839B838C8369817A818B8160
:100680009C810E9422329801A70169837A838B831F
:100690009C8369817A818B819C810E943734BB85E0
:1006A000AC85FD85EE852B2F3A2F4F2F5E2F69836A
:1006B0007A838B839C8369817A818B819C810E9460
:1006C00023326C966FAF6C976B967FAF6B972C0154
:1006D00024960EAD1FAD24970130110511F00C9436
:1006E0009E116C963FAD6C976B962FAD6B973983CF
:1006F0002A834B825C8269817A818B819C810E94F2
:100700000B338B011595079515950795159507954D
:1007100089829A822B823C8269817A818B819C8139
:100720000E940B3369837A838B839C83CB019595DD
:1007300087959595879595958795080F191FECAC2A
:10074000FDAC0E151F050CF041C5000F111F2E96B4
:10075000EEADFFAD2E97E00FF11F8081918118164D
:1007600019060CF033C57B856C859D858E85272FFA
:10077000362F492F582F6C967FAD6C976B966FADC7
:100780006B9779836A834B825C8269817A818B81E2
:100790009C810E9422325B016C017F856889998966
:1007A0008A89272F362F492F582F89829A822B82A8
:1007B0003C8269817A818B819C810E9422327B01FB
:1007C0008C019501A601A982BA82CB82DC82698163
:1007D0007A818B819C810E9437345B016C01970187
:1007E000A801E982FA820B831C8369817A818B815B
:1007F0009C810E9437349B01AC01A982BA82CB82D2
:10080000DC8269817A818B819C810E942332698399
:100810007A838B839C8369817A818B819C810E94FE
:10082000B2346A8F7B8F8C8F9D8F8AAA9BAA2CAA49
:100830003DAA6C96FFAC6C97FEA66B960FAD6B97BE
:100840000FA748AA59AA2BED3FE049EC5FE31D81B1
:100850001983EE80EA827B826C8269817A818B8146
:100860009C810E943234181674F424EE3BEC46E965
:1008700050E469817A818B819C810E948F3287FF4D
:1008800002C00C947B152BED3FE049EC5FE3ED805B
:10089000E982FE80FA827B826C8269817A818B8117
:1008A0009C810E948F3287FD0DC024EE3BEC46E90F
:1008B00050E469817A818B819C810E9432341816C0
:1008C0000CF064C02C966CAD7DAD8EAD9FAD2C97B9
:1008D0000E9443336C966FAF6C976B967FAF6B97AC
:1008E0002C017B856C859D858E85272F362F492F82
:1008F000582F6C967FAD6C976B966FAD6B97798325
:100900006A834B825C8269817A818B819C810E949F
:1009100022322F81388549855A8569837A838B8372
:100920009C8369817A818B819C810E943734BF8549
:10093000A889F989EA892B2F3A2F4F2F5E2F6983D7
:100940007A838B839C8369817A818B819C810E94CD
:1009500023324B011C0122966CAD7DAD8EAD9FAD57
:1009600022970E944333462F572FBC014E8B5F8B3B
:10097000688F798F9A01AB016F81788589859A8517
:100980000E9437346EA37FA388A799A720E030E0A8
:10099000A901ED80E982FE80FA827B826C82698106
:1009A0007A818B819C810E948F32882309F43AC717
:1009B0002BED3FE049E450E469817A818B819C8191
:1009C0000E948F32882309F42DC724960EAD1FADE7
:1009D00024976C963FAD6C976B962FAD6B973983D0
:1009E0002A834B825C8269817A818B819C81013070
:1009F000110511F00C942E0E0E940B33CB016C8B61
:100A00009D8B89829A822B823C8269817A818B813B
:100A10009C810E940B33CB016F839B8B68AD79ADBA
:100A20000E94FA319B018C899D8968AD79AD0E9445
:100A3000FA31620F731F161617060CF08BC0ECAC60
:100A4000FDAC6E157F050CF085C0660F771F2E96E6
:100A5000EEADFFAD2E97E60FF71F8081918118163E
:100A600019060CF077C07B856C859D858E85272FB8
:100A7000362F492F582F6C967FAD6C976B966FADC4
:100A80006B9779836A834B825C8269817A818B81DF
:100A90009C810E9422325B016C017F856889998963
:100AA0008A89272F362F492F582F89829A822B82A5
:100AB0003C8269817A818B819C810E9422327B01F8
:100AC0008C019501A601A982BA82CB82DC82698160
:100AD0007A818B819C810E9437345B016C01970184
:100AE000A801E982FA820B831C8369817A818B8158
:100AF0009C810E9437349B01AC01A982BA82CB82CF
:100B0000DC8269817A818B819C810E942332698396
:100B10007A838B839C8369817A818B819C810E94FB
:100B2000B2347B018C012C8928A33D8939A34F81E4
:100B30004E8F5B895F8FD82CC92CB22CA32C6C965E
:100B40006FAD6C976AA36B967FAD6B977BA34CA23E
:100B50005DA291C62E893F89488D598D6C967FADD7
:100B60006C976B966FAD6B9779836A834B825C82CF
:100B700069817A818B819C810E9423326C966FAF50
:100B80006C976B967FAF6B972C012EA13FA148A568
:100B900059A589829A822B823C8269817A818B81D4
:100BA0009C810E9423324B011C016C963FAD6C97D7
:100BB0006B962FAD6B9739832A834B825C82698158
:100BC0007A818B819C810E940B33CB016C8B9D8B36
:100BD00089829A822B823C8269817A818B819C8175
:100BE0000E940B33CB016F839B8B68AD79AD0E9464
:100BF000FA319B018C899D8968AD79AD0E94FA31EB
:100C0000620F731F1616170634F40CAD1DAD601776
:100C100071070CF4F6C72E893F89488D598D6C9663
:100C20007FAD6C976B966FAD6B9779836A834B82C0
:100C30005C8269817A818B819C810E9423326C96CF
:100C40006FAF6C976B967FAF6B972C012EA13FA176
:100C500048A559A589829A822B823C8269817A8132
:100C60008B819C810E9423324B011C016C963FAD0D
:100C70006C976B962FAD6B9739832A834B825C827E
:100C800069817A818B819C810E940B33CB016C8BB3
:100C90009D8B89829A822B823C8269817A818B81A9
:100CA0009C810E940B33CB016F839B8B68AD79AD28
:100CB0000E94FA319B018C899D8968AD79AD0E94B3
:100CC000FA31620F731F1616170634F4ECACFDAC44
:100CD0006E157F050CF4A6C72E893F89488D598D66
:100CE0006C967FAD6C976B966FAD6B9779836A83CB
:100CF0004B825C8269817A818B819C810E94233244
:100D00006C966FAF6C976B967FAF6B972C012EA193
:100D10003FA148A559A589829A822B823C8269818C
:100D20007A818B819C810E9423324B011C016C963D
:100D30003FAD6C976B962FAD6B9739832A834B82AF
:100D40005C8269817A818B819C810E940B33CB010B
:100D50006C8B9D8B89829A822B823C8269817A81FD
:100D60008B819C810E940B33CB016F839B8B68AD81
:100D700079AD0E94FA319B018C899D8968AD79AD6E
:100D80000E94FA31620F731F161617069CF40CAD01
:100D90001DAD6017710774F4660F771F2E96EEADC8
:100DA000FFAD2E97E60FF71F808191811816190667
:100DB0000CF459CE2E893F89488D598D6C967FADA4
:100DC0006C976B966FAD6B9779836A834B825C826D
:100DD00069817A818B819C810E9423326C966FAFEE
:100DE0006C976B967FAF6B972C012EA13FA148A506
:100DF00059A589829A822B823C8269817A818B8172
:100E00009C810E9423324B011C016C963FAD6C9774
:100E10006B962FAD6B9739832A834B825C826981F5
:100E20007A818B819C810E940B33CB016C8B9D8BD3
:100E300089829A822B823C8269817A818B819C8112
:100E40000E940B33CB016F839B8B68AD79AD0E9401
:100E5000FA319B018C899D8968AD79AD0E94FA3188
:100E6000620F731F161617069CF4ECACFDAC6E15E2
:100E70007F0574F4660F771F2E96EEADFFAD2E97AB
:100E8000E60FF71F80819181181619060CF4EBCD3F
:100E90002E893F89488D598D6C967FAD6C976B96E6
:100EA0006FAD6B9779836A834B825C8269817A81AB
:100EB0008B819C810E9423326C966FAF6C976B96EE
:100EC0007FAF6B972C012EA13FA148A559A5898220
:100ED0009A822B823C8269817A818B819C810E94DB
:100EE00023324B011C016C963FAD6C976B962FAD76
:100EF0006B9739832A834B825C8269817A818B81EB
:100F00009C810E940B33CB016C8B9D8B89829A82D2
:100F10002B823C8269817A818B819C810E940B3378
:100F2000CB016F839B8B68AD79AD0E94FA319B0139
:100F30008C899D8968AD79AD0E94FA31620F731F6B
:100F4000161617069CF40CAD1DAD6017710774F4EE
:100F5000660F771F2E96EEADFFAD2E97E60FF71FAB
:100F600080819181181619060CF47DCD2E893F8958
:100F7000488D598D6C967FAD6C976B966FAD6B9766
:100F800079836A834B825C8269817A818B819C81BF
:100F90000E9423326C966FAF6C976B967FAF6B9706
:100FA0002C012EA13FA148A559A589829A822B82A6
:100FB0003C8269817A818B819C810E9423324B0122
:100FC0001C016C963FAD6C976B962FAD6B97398378
:100FD0002A834B825C8269817A818B819C810E9409
:100FE0000B33CB016C8B9D8B89829A822B823C8246
:100FF00069817A818B819C810E940B33CB016F8345
:101000009B8B68AD79AD0E94FA319B018C899D89DB
:1010100068AD79AD0E94FA31620F731F161617067C
:101020003CF4ECACFDAC6E157F0514F40C94091582
:101030002E893F89488D598D6C967FAD6C976B9644
:101040006FAD6B9779836A834B825C8269817A8109
:101050008B819C810E9423326C966FAF6C976B964C
:101060007FAF6B972C012EA13FA148A559A589827E
:101070009A822B823C8269817A818B819C810E9439
:1010800023324B011C016C963FAD6C976B962FADD4
:101090006B9739832A834B825C8269817A818B8149
:1010A0009C810E940B33CB016C8B9D8B89829A8231
:1010B0002B823C8269817A818B819C810E940B33D7
:1010C000CB016F839B8B68AD79AD0E94FA319B0198
:1010D0008C899D8968AD79AD0E94FA31620F731FCA
:1010E000161617069CF40CAD1DAD6017710774F44D
:1010F000660F771F2E96EEADFFAD2E97E60FF71F0A
:1011000080819181181619060CF4ADCC2E893F8987
:10111000488D598D6C967FAD6C976B966FAD6B97C4
:1011200079836A834B825C8269817A818B819C811D
:101130000E9423326C966FAF6C976B967FAF6B9764
:101140002C012EA13FA148A559A589829A822B8204
:101150003C8269817A818B819C810E9423324B0180
:101160001C0189829A828B833C8269817A818B817E
:101170009C810E940B33CB016F839B8B6C963FADA0
:101180006C976B962FAD6B9739832A834B825C8269
:1011900069817A818B819C810E940B33CB016C8B9E
:1011A0009D8B1AA518A3EBA4E9A2FCA4FE8E0DA5A5
:1011B0000F8FDF84C888B988AA881B851AA3EC849E
:1011C000EBA2FD84FCA20E850DA350C32E893F899E
:1011D000488D598D6C967FAD6C976B966FAD6B9704
:1011E00079836A834B825C8269817A818B819C815D
:1011F0000E9423326C966FAF6C976B967FAF6B97A4
:101200002C012EA13FA148A559A589829A822B8243
:101210003C8269817A818B819C810E9423324B01BF
:101220001C016C963FAD6C976B962FAD6B97398315
:101230002A834B825C8269817A818B819C810E94A6
:101240000B338B0115950795159507951595079502
:1012500089829A822B823C8269817A818B819C81EE
:101260000E940B3369837A838B839C83CB01959592
:1012700087959595879595958795080F191FECACDF
:10128000FDAC0E151F0574F4000F111F2E96EEAD68
:10129000FFAD2E97E00FF11F80819181181619067E
:1012A0000CF461CA2E893F89488D598D6C967FADAB
:1012B0006C976B966FAD6B9779836A834B825C8278
:1012C00069817A818B819C810E9423326C966FAFF9
:1012D0006C976B967FAF6B972C012EA13FA148A511
:1012E00059A589829A822B823C8269817A818B817D
:1012F0009C810E9423324B011C016C963FAD6C9780
:101300006B962FAD6B9739832A834B825C82698100
:101310007A818B819C810E940B338B0115950795F7
:10132000159507951595079589829A822B823C829F
:1013300069817A818B819C810E940B3369837A83D6
:101340008B839C83CB0195958795959587959595EE
:101350008795080F191FECACFDAC0E151F0574F432
:10136000000F111F2E96EEADFFAD2E97E00FF11F6F
:1013700080819181181619060CF4F5C92E893F89D0
:10138000488D598D6C967FAD6C976B966FAD6B9752
:1013900079836A834B825C8269817A818B819C81AB
:1013A0000E9423326C966FAF6C976B967FAF6B97F2
:1013B0002C012EA13FA148A559A589829A822B8292
:1013C0003C8269817A818B819C810E9423324B010E
:1013D0001C016C963FAD6C976B962FAD6B97398364
:1013E0002A834B825C8269817A818B819C810E94F5
:1013F0000B338B0115950795159507951595079551
:1014000089829A822B823C8269817A818B819C813C
:101410000E940B3369837A838B839C83CB019595E0
:1014200087959595879595958795080F191FECAC2D
:10143000FDAC0E151F0574F4000F111F2E96EEADB6
:10144000FFAD2E97E00FF11F8081918118161906CC
:101450000CF489C92E893F89488D598D6C967FADD2
:101460006C976B966FAD6B9779836A834B825C82C6
:1014700069817A818B819C810E9423326C966FAF47
:101480006C976B967FAF6B972C012EA13FA148A55F
:1014900059A589829A822B823C8269817A818B81CB
:1014A0009C810E9423324B011C016C963FAD6C97CE
:1014B0006B962FAD6B9739832A834B825C8269814F
:1014C0007A818B819C810E940B338B011595079546
:1014D000159507951595079589829A822B823C82EE
:1014E00069817A818B819C810E940B3369837A8325
:1014F0008B839C83CB01959587959595879595953D
:101500008795080F191FECACFDAC0E151F0574F480
:10151000000F111F2E96EEADFFAD2E97E00FF11FBD
:1015200080819181181619060CF41DC92E893F89F6
:10153000488D598D6C967FAD6C976B966FAD6B97A0
:1015400079836A834B825C8269817A818B819C81F9
:101550000E9423326C966FAF6C976B967FAF6B9740
:101560002C012EA13FA148A559A589829A822B82E0
:101570003C8269817A818B819C810E9423324B015C
:101580001C016C963FAD6C976B962FAD6B973983B2
:101590002A834B825C8269817A818B819C810E9443
:1015A0000B338B011595079515950795159507959F
:1015B00089829A822B823C8269817A818B819C818B
:1015C0000E940B3369837A838B839C83CB0195952F
:1015D00087959595879595958795080F191FECAC7C
:1015E000FDAC0E151F0514F40C941A152E893F89B5
:1015F000488D598D6C967FAD6C976B966FAD6B97E0
:1016000079836A834B825C8269817A818B819C8138
:101610000E9423326C966FAF6C976B967FAF6B977F
:101620002C012EA13FA148A559A589829A822B821F
:101630003C8269817A818B819C810E9423324B019B
:101640001C016C963FAD6C976B962FAD6B973983F1
:101650002A834B825C8269817A818B819C810E9482
:101660000B338B01159507951595079515950795DE
:1016700089829A822B823C8269817A818B819C81CA
:101680000E940B3369837A838B839C83CB0195956E
:1016900087959595879595958795080F191FECACBB
:1016A000FDAC0E151F0574F4000F111F2E96EEAD44
:1016B000FFAD2E97E00FF11F80819181181619065A
:1016C0000CF451C82E893F89488D598D6C967FAD99
:1016D0006C976B966FAD6B9779836A834B825C8254
:1016E00069817A818B819C810E9423326C966FAFD5
:1016F0006C976B967FAF6B972C012EA13FA148A5ED
:1017000059A589829A822B823C8269817A818B8158
:101710009C810E9423324B011C0189829A828B8317
:101720003C8269817A818B819C810E940B338B0181
:101730001595079515950795159507956C963FADE9
:101740006C976B962FAD6B9739832A834B825C82A3
:1017500069817A818B819C810E940B3369837A83B2
:101760008B839C83CB0195958795959587959595CA
:101770008795080F191FECACFDAC0E151F057CF406
:10178000000F111F2E96EEADFFAD2E97E00FF11F4B
:10179000808191811816190614F40C94B3032E89D4
:1017A0003F89488D598D6C967FAD6C976B966FAD68
:1017B0006B9779836A834B825C8269817A818B81A2
:1017C0009C810E9423326C966FAF6C976B967FAFB3
:1017D0006B972C012EA13FA148A559A589829A8219
:1017E0002B823C8269817A818B819C810E94233289
:1017F0004B011C01FF84FAAA08890BAB19891CABA9
:10180000EA88EDAAFB84FEA60C850FA71D8518AB00
:10181000EE84E9AA1A8E04E20B8F14E71C8F09E408
:101820000D8F11C81AA518A3EBA4E9A2FCA4FE8E83
:101830000DA50F8F1C8BED8AFF820B8BDF84C88870
:10184000B988AA881B851AA3EC84EBA2FD84FCA2AC
:101850000E850DA38D2C9C2C2B2C3A2C6C961FAF37
:101860006C976B96EFAE6B974F2C502EE12C84E269
:10187000F82E04E719E42F813B894C895D896CA51A
:101880007DA58AA59BA5EAADFBAD09952A8D3B8D6B
:101890004C8D5D8DE982FA820B831C8369817A818C
:1018A0008B819C810E948F3287FD16C0FC89F8A332
:1018B0002D8929A33F813E8F4B894F8FD82CC92C6E
:1018C000B22CA32C6C965FAD6C975AA36B966FAD40
:1018D0006B976BA34CA25DA22A8D3B8D4C8D5D8DC9
:1018E000E982FA820B831C8369817A818B819C81D6
:1018F0000E943234181624F5DAA8CBA8BCA8ADA8EB
:10190000D982CA82BB82AC8269817A818B819C81B7
:101910000E940B336E8F7F8F0EA51FA5E8A8ECA247
:10192000F9A8FDA209831A83EB82FC8269817A817E
:101930008B819C810E940B3368A379A30AA31BA30C
:101940002E8D3F8D48A159A16CA57DA58AA59BA58B
:10195000EAADFBAD099526E537E746E55DEBED80A1
:10196000E982FE80FA827B826C8269817A818B8136
:101970009C810E948F3226E537E746E55DE387FFCD
:1019800009C087012AEC3CEB4AEC50E409831A8336
:101990007B826C8269817A818B819C810E94233257
:1019A0006D837E83782E692E7B012BED3FE049EC21
:1019B00050E46983FA828B839C8369817A818B816D
:1019C0009C810E943234181674F42BED3FE049ECF0
:1019D00050E469817A818B819C810E9422326D83DF
:1019E0007E83782E692E0EA91FA9015011091FAB05
:1019F0000EAB012B11F00C9440027894C55ADF4FC6
:101A00000FB6F894DEBF0FBECDBFDF91CF911F910F
:101A10000F91FF90EF90DF90CF90BF90AF909F908D
:101A20008F907F906F905F904F903F902F90089590
:101A3000870120E030E0A90109831A837B826C8250
:101A400069817A818B819C810E948F32882309F47D
:101A5000BFC0EF80F88409851A8517FB109517F928
:101A600010952BED3FE049E450E469817A818B8148
:101A70009C810E948F3281110C946B152F852AABAB
:101A800038893BAB49894CAB5A895DAB6B856EA7F6
:101A90007C857FA78D8588AB9E8599AB1A8EA4E245
:101AA000AB8FB4E7BC8FE9E4ED8F66966CAD7DAD8E
:101AB0008EAD9FAD66970E9443335B016C0127E1B9
:101AC00037EB41ED58E36983BA828B83DC8269810D
:101AD0007A818B819C810E9422326C966FAF6C97C9
:101AE0006B967FAF6B972C0127E137EB41ED58E305
:101AF0007B856C859D858E8579836A839B838C83AA
:101B000069817A818B819C810E9423329501A60193
:101B100069837A838B839C8369817A818B819C81A1
:101B20000E942232A801970169837A838B839C8368
:101B300069817A818B819C810E943734BF85A88915
:101B4000F989EA892B2F3A2F4F2F5E2F69837A83E9
:101B50008B839C8369817A818B819C810E94233253
:101B60004B011C0128966CAD7DAD8EAD9FAD2897C5
:101B70000E944333462F572FBC014E8B5F8B688FDB
:101B8000798F9A01AB016F81788589859A850E944A
:101B900037346EA37FA388A799A70C9443040F85BD
:101BA0000AAB18891BABE988ECAAFA88FDAA0B8559
:101BB0000EA71C851FA7ED84E8AAFE84F9AA1A8E39
:101BC00004E20B8F14E71C8F09E40D8F0C94620460
:101BD0001F851AABE888EBAAF988FCAA0A890DAB25
:101BE0001B851EA7EC84EFA6FD84F8AA0E8509AB21
:101BF0001A8E14E21B8F04E70C8F19E41D8F0C94CE
:101C00006204660F771F2E96EEADFFAD2E97E60F9E
:101C1000F71F808191811816190614F40C9433056E
:101C20000C940B06660F771F2E96EEADFFAD2E9728
:101C3000E60FF71F808191811816190614F40C9491
:101C400033054AC82CE63FE344EA5FE369817A81C1
:101C50008B819C810E9423320C947D010E940B3366
:101C6000CB016C8B9D8B89829A822B823C8269810D
:101C70007A818B819C810E940B33CB016F839B8B7C
:101C800068AD79AD0E94FA31609F9001619F300D7F
:101C9000709F300D11248C899D8968AD79AD0E94AB
:101CA000FA31620F731F16161706A4F4ECACFDACE4
:101CB0006E157F057CF4660F771F2E96EEADFFAD97
:101CC0002E97E60FF71F808191811816190614F4DC
:101CD0000C9433052E893F89488D598D6C967FADC4
:101CE0006C976B966FAD6B9779836A834B825C823E
:101CF00069817A818B819C810E9423326C966FAFBF
:101D00006C976B967FAF6B972C012EA13FA148A5D6
:101D100059A589829A822B823C8269817A818B8142
:101D20009C810E9423324B011C016C963FAD6C9745
:101D30006B962FAD6B9739832A834B825C826981C6
:101D40007A818B819C810E940B33CB016C8B9D8BA4
:101D500089829A822B823C8269817A818B819C81E3
:101D60000E940B33CB016F839B8B68AD79AD0E94D2
:101D7000FA3124960EAD1FAD2497609F9001619FAC
:101D8000300D709F300D11248C899D8968AD79AD1F
:101D90000E94FA31620F731F16161706A4F4ECACFA
:101DA000FDAC6E157F057CF4660F771F2E96EEADA9
:101DB000FFAD2E97E60FF71F808191811816190647
:101DC00014F40C9433052E893F89488D598D6C96F7
:101DD0007FAD6C976B966FAD6B9779836A834B82FF
:101DE0005C8269817A818B819C810E9423326C960E
:101DF0006FAF6C976B967FAF6B972C012EA13FA1B5
:101E000048A559A589829A822B823C8269817A8170
:101E10008B819C810E9423324B011C016C963FAD4B
:101E20006C976B962FAD6B9739832A834B825C82BC
:101E300069817A818B819C810E940B33CB016C8BF1
:101E40009D8B89829A822B823C8269817A818B81E7
:101E50009C810E940B33CB016F839B8B68AD79AD66
:101E60000E94FA3124960EAD1FAD2497609F900119
:101E7000619F300D709F300D11248C899D8968AD54
:101E800079AD0E94FA31620F731F16161706A4F47B
:101E9000ECACFDAC6E157F057CF4660F771F2E96BB
:101EA000EEADFFAD2E97E60FF71F808191811816DA
:101EB000190614F40C9433052E893F89488D598DE9
:101EC0006C967FAD6C976B966FAD6B9779836A83D9
:101ED0004B825C8269817A818B819C810E94233252
:101EE0006C966FAF6C976B967FAF6B972C012EA1A2
:101EF0003FA148A559A589829A822B823C8269819B
:101F00007A818B819C810E9423324B011C016C964B
:101F10003FAD6C976B962FAD6B9739832A834B82BD
:101F20005C8269817A818B819C810E940B33CB0119
:101F30006C8B9D8B89829A822B823C8269817A810B
:101F40008B819C810E940B33CB016F839B8B68AD8F
:101F500079AD0E94FA3124960EAD1FAD2497609F93
:101F60009001619F300D709F300D11248C899D89E7
:101F700068AD79AD0E94FA31620F731F161617060D
:101F8000A4F4ECACFDAC6E157F057CF4660F771FF6
:101F90002E96EEADFFAD2E97E60FF71F8081918153
:101FA0001816190614F40C9433052E893F89488DB0
:101FB000598D6C967FAD6C976B966FAD6B977983EF
:101FC0006A834B825C8269817A818B819C810E94C9
:101FD00023326C966FAF6C976B967FAF6B972C012B
:101FE0002EA13FA148A559A589829A822B823C82C5
:101FF00069817A818B819C810E9423324B011C0173
:102000006C963FAD6C976B962FAD6B9739832A8397
:102010004B825C8269817A818B819C810E940B3327
:10202000CB016C8B9D8B89829A822B823C82698149
:102030007A818B819C810E940B33CB016F839B8BB8
:1020400068AD79AD0E94FA3124960EAD1FAD24978C
:10205000609F9001619F300D709F300D11248C891D
:102060009D8968AD79AD0E94FA31620F731F161613
:102070001706A4F4ECACFDAC6E157F057CF4660F7E
:10208000771F2E96EEADFFAD2E97E60FF71F8081DE
:1020900091811816190614F40C9433052E893F8982
:1020A000488D598D6C967FAD6C976B966FAD6B9725
:1020B00079836A834B825C8269817A818B819C817E
:1020C0000E9423326C966FAF6C976B967FAF6B97C5
:1020D0002C012EA13FA148A559A589829A822B8265
:1020E0003C8269817A818B819C810E9423324B01E1
:1020F0001C016C963FAD6C976B962FAD6B97398337
:102100002A834B825C8269817A818B819C810E94C7
:102110000B33CB016C8B9D8B89829A822B823C8204
:1021200069817A818B819C810E940B33CB016F8303
:102130009B8B68AD79AD0E94FA3124960EAD1FAD30
:102140002497609F9001619F300D709F300D112486
:102150008C899D8968AD79AD0E94FA31620F731F39
:102160001616170634F4ECACFDAC6E157F050CF4B6
:1021700082C42E893F89488D598D6C967FAD6C97AE
:102180006B966FAD6B9779836A834B825C826981B2
:102190007A818B819C810E9423326C966FAF6C9701
:1021A0006B967FAF6B972C012EA13FA148A559A537
:1021B00089829A822B823C8269817A818B819C817F
:1021C0000E9423324B011C016C963FAD6C976B96BD
:1021D0002FAD6B9739832A834B825C8269817A8128
:1021E0008B819C810E940B33CB016C8B9D8B8982F0
:1021F0009A822B823C8269817A818B819C810E94A8
:102200000B33CB016F839B8B68AD79AD0E94FA31A4
:1022100024960EAD1FAD2497609F9001619F300DF5
:10222000709F300D11248C899D8968AD79AD0E9415
:10223000FA31C901860F971F1816190634F4ECAC51
:10224000FDAC8E159F050CF436C42E893F89488D50
:10225000598D6C967FAD6C976B966FAD6B9779834C
:102260006A834B825C8269817A818B819C810E9426
:1022700023326C966FAF6C976B967FAF6B972C0188
:102280002EA13FA148A559A589829A822B823C8222
:1022900069817A818B819C810E9423324B011C01D0
:1022A0006C963FAD6C976B962FAD6B9739832A83F5
:1022B0004B825C8269817A818B819C810E940B3385
:1022C000CB016C8B9D8B89829A822B823C826981A7
:1022D0007A818B819C810E940B33CB016F839B8B16
:1022E00068AD79AD0E94FA3124960EAD1FAD2497EA
:1022F000609F9001619F300D709F300D11248C897B
:102300009D8968AD79AD0E94FA31C901860F971F8A
:102310001816190614F00C948608ECACFDAC8E155A
:102320009F0514F00C948608880F991F2E96EEAD29
:10233000FFAD2E97E80FF91F0C94800889829A82CE
:102340002B823C8269817A818B819C810E940B3334
:10235000CB01959587959595879595958795780166
:102360008E9D80018F9D100D9E9D100D11246C96E9
:102370003FAD6C976B962FAD6B9739832A834B8259
:102380005C8269817A818B819C810E940B33698395
:102390007A838B839C83CB019595879595958795BB
:1023A00095958795080F191FECACFDAC0E151F0510
:1023B0007CF4000F111F2E96EEADFFAD2E97E00FAF
:1023C000F11F808191811816190614F40C94B3033F
:1023D0002E893F89488D598D6C967FAD6C976B9691
:1023E0006FAD6B9779836A834B825C8269817A8156
:1023F0008B819C810E9423326C966FAF6C976B9699
:102400007FAF6B972C012EA13FA148A559A58982CA
:102410009A822B823C8269817A818B819C810E9485
:1024200023324B011C0189829A828B833C82698111
:102430007A818B819C810E940B33CB019595879586
:1024400095958795959587952496EEACFFAC249746
:102450008E9D80018F9D100D9E9D100D11246C96F8
:102460003FAD6C976B962FAD6B9739832A834B8268
:102470005C8269817A818B819C810E940B336983A4
:102480007A838B839C83CB019595879595958795CA
:1024900095958795080F191FECACFDAC0E151F051F
:1024A0007CF4000F111F2E96EEADFFAD2E97E00FBE
:1024B000F11F808191811816190614F40C94B3034E
:1024C0002E893F89488D598D6C967FAD6C976B96A0
:1024D0006FAD6B9779836A834B825C8269817A8165
:1024E0008B819C810E9423326C966FAF6C976B96A8
:1024F0007FAF6B972C012EA13FA148A559A58982DA
:102500009A822B823C8269817A818B819C810E9494
:1025100023324B011C0189829A828B833C82698120
:102520007A818B819C810E940B33CB019595879595
:1025300095958795959587952496EEACFFAC249755
:102540008E9D80018F9D100D9E9D100D11246C9607
:102550003FAD6C976B962FAD6B9739832A834B8277
:102560005C8269817A818B819C810E940B336983B3
:102570007A838B839C83CB019595879595958795D9
:1025800095958795080F191FECACFDAC0E151F052E
:102590000CF461C22E893F89488D598D6C967FADB0
:1025A0006C976B966FAD6B9779836A834B825C8275
:1025B00069817A818B819C810E9423326C966FAFF6
:1025C0006C976B967FAF6B972C012EA13FA148A50E
:1025D00059A589829A822B823C8269817A818B817A
:1025E0009C810E9423324B011C0189829A828B8339
:1025F0003C8269817A818B819C810E940B33CB0163
:102600009595879595958795959587952496EEACA4
:10261000FFAC24978E9D80018F9D100D9E9D100D07
:1026200011246C963FAD6C976B962FAD6B973983E9
:102630002A834B825C8269817A818B819C810E9492
:102640000B3369837A838B839C83CB019595879524
:102650009595879595958795080F191FECACFDAC5E
:102660000E151F057CF4000F111F2E96EEADFFAD69
:102670002E97E00FF11F808191811816190614F42E
:102680000C94B3032E893F89488D598D6C967FAD8C
:102690006C976B966FAD6B9779836A834B825C8284
:1026A00069817A818B819C810E9423326C966FAF05
:1026B0006C976B967FAF6B972C012EA13FA148A51D
:1026C00059A589829A822B823C8269817A818B8189
:1026D0009C810E9423324B011C0189829A828B8348
:1026E0003C8269817A818B819C810E940B33CB0172
:1026F0009595879595958795959587952496EEACB4
:10270000FFAC24978E9D80018F9D100D9E9D100D16
:1027100011246C963FAD6C976B962FAD6B973983F8
:102720002A834B825C8269817A818B819C810E94A1
:102730000B3369837A838B839C83CB019595879533
:102740009595879595958795080F191FECACFDAC6D
:102750000E151F057CF4000F111F2E96EEADFFAD78
:102760002E97E00FF11F808191811816190614F43D
:102770000C94B3032E893F89488D598D6C967FAD9B
:102780006C976B966FAD6B9779836A834B825C8293
:1027900069817A818B819C810E9423326C966FAF14
:1027A0006C976B967FAF6B972C012EA13FA148A52C
:1027B00059A589829A822B823C8269817A818B8198
:1027C0009C810E9423324B011C0189829A828B8357
:1027D0003C8269817A818B819C810E940B33CB0181
:1027E0009595879595958795959587952496EEACC3
:1027F000FFAC24978E9D80018F9D100D9E9D100D26
:1028000011246C963FAD6C976B962FAD6B97398307
:102810002A834B825C8269817A818B819C810E94B0
:102820000B3369837A838B839C83CB019595879542
:102830009595879595958795080F191FECACFDAC7C
:102840000E151F050CF427C12E893F89488D598D1F
:102850006C967FAD6C976B966FAD6B9779836A833F
:102860004B825C8269817A818B819C810E942332B8
:102870006C966FAF6C976B967FAF6B972C012EA108
:102880003FA148A559A589829A822B823C82698101
:102890007A818B819C810E9423324B011C018982A9
:1028A0009A828B833C8269817A818B819C810E9490
:1028B0000B33CB019595879595958795959587953C
:1028C0002496EEACFFAC24978E9D80018F9D100D59
:1028D0009E9D100D11246C963FAD6C976B962FAD9D
:1028E0006B9739832A834B825C8269817A818B81E1
:1028F0009C810E940B3369837A838B839C83CB01F9
:10290000959587959595879595958795080F191FA6
:10291000ECACFDAC0E151F057CF4000F111F2E96BC
:10292000EEADFFAD2E97E00FF11F8081918118165B
:10293000190614F40C94B3032E893F89488D598DE0
:102940006C967FAD6C976B966FAD6B9779836A834E
:102950004B825C8269817A818B819C810E942332C7
:102960006C966FAF6C976B967FAF6B972C012EA117
:102970003FA148A559A589829A822B823C82698110
:102980007A818B819C810E9423324B011C018982B8
:102990009A828B833C8269817A818B819C810E949F
:1029A0000B33CB019595879595958795959587954B
:1029B0002496EEACFFAC24978E9D80018F9D100D68
:1029C0009E9D100D11246C963FAD6C976B962FADAC
:1029D0006B9739832A834B825C8269817A818B81F0
:1029E0009C810E940B3369837A838B839C83CB0108
:1029F000959587959595879595958795080F191FB6
:102A0000ECACFDAC0E151F0514F00C94CF0B0C9420
:102A1000C00B660F771F2E96EEADFFAD2E97E60F1B
:102A2000F71F808191811816190614F40C94330550
:102A30000C941808000F111F2E96EEADFFAD2E97C7
:102A4000E00FF11F808191811816190614F40C947F
:102A5000B3030C94F60A000F111F2E96EEADFFADD6
:102A60002E97E00FF11F808191811816190614F43A
:102A70000C94B3038FCD660F771F2E96EEADFFAD8E
:102A80002E97E60FF71F808191811816190614F40E
:102A90000C9433056ECB000F111F2E96EEADFFADDB
:102AA0002E97E00FF11F808191811816190614F4FA
:102AB0000C94B303C9CE880F991F2E96EEADFFADCF
:102AC0002E97E80FF91F808191811816190614F4CA
:102AD0000C943305BACB8D2C9C2C2B2C3A2CEAA0D1
:102AE0006C96EFAE6C97FBA06B96FFAE6B974CA00D
:102AF0005DA00C946803EF80F88409851A8517FBA4
:102B0000109517F910950C94550D0F931F93CF93B3
:102B1000DF9300D000D000D0CDB7DEB78B018E831D
:102B20009D8369831A838B839C8369817A818B81DE
:102B30009C810E946F359C01990F440B550B298392
:102B40003A834B835C83CA01B9010E9443332AE76D
:102B500031E84FEC5EEB69837A838B839C836981D8
:102B60007A818B819C810E94373423E839EF42EAD5
:102B70005FE369837A838B839C8369817A818B810C
:102B80009C810E94233298014E815D8169837A8302
:102B90008B839C8369817A818B819C810E943734ED
:102BA00069837A838B839C8369817A818B819C8101
:102BB0000F900F900F900F900F900F90DF91CF918B
:102BC0001F910F910895CF93DF93CDB7DEB7609734
:102BD0000FB6F894DEBF0FBECDBF82E090E09093B9
:102BE000B3018093B20180E090E0A0E4B1E4EAEAAE
:102BF000F1E080839183A283B38380E090E0A0E240
:102C0000B1E48093AE019093AF01A093B001B09373
:102C1000B10181E090E09093B5018093B40180917F
:102C2000BE019091BF01A091C001B091C1018D83FF
:102C30009E83AF83B887BC01CD010E94943220E00F
:102C400030E040EA50E469837A838B839C83698116
:102C50007A818B819C810E94373469877A878B8740
:102C60009C876093B6017093B7018093B8019093ED
:102C7000B9016D817E818F8198850E94A43420E006
:102C800030E040EA50E469837A838B839C836981D6
:102C90007A818B819C810E9437346093BA01709352
:102CA000BB018093BC019093BD0180E090E0A4EB58
:102CB000B2E48093BE019093BF01A093C001B09392
:102CC000C101E2EAF1E08CE090E09183808388E04A
:102CD00090E0938382839583848380E091E097835F
:102CE000868360960FB6F894DEBF0FBECDBFDF912E
:102CF000CF9108954F925F926F927F928F929F92A1
:102D0000AF92BF92CF92DF92EF92FF920F931F93F9
:102D1000CF93DF93F894E090A201F090A30160902C
:102D2000A4017090A50116141704DCF51E141F04ED
:102D3000C4F52701440C551C8090A8019090A9016E
:102D4000C12CD12CA090A001B090A1018401C0E0C1
:102D5000D0E0F801819191918F010197B1F48091B8
:102D6000A6019091A7018C9DB0018D9D700D9C9D39
:102D7000700D11249C01AC012C9FC0012D9F900D62
:102D80003C9F900D1124F50109952196EC16FD0646
:102D900001F7FFEFCF1ADF0A840C951C6C147D0439
:102DA000A9F67894DF91CF911F910F91FF90EF904A
:102DB000DF90CF90BF90AF909F908F907F906F905B
:102DC0005F904F9008956F927F928F929F92AF92F3
:102DD000BF92CF92DF92EF92FF920F931F93CF9308
:102DE000DF9300D000D000D0CDB7DEB739014A0163
:102DF0009B01AC01E982FA820B831C8369817A8191
:102E00008B819C810E9422328B018E839D83930152
:102E1000A401A982BA82CB82DC8269817A818B810A
:102E20009C810E9422325B016C0198014E815D8180
:102E300009831A838E818B838D818C8369817A814A
:102E40008B819C810E9437348B018E839D839501F9
:102E5000A601A982BA82CB82DC8269817A818B81C8
:102E60009C810E9437349B01AC0109831A838E81B7
:102E70008B838D818C8369817A818B819C810E9477
:102E8000233269837A838B839C8369817A818B81E6
:102E90009C810F900F900F900F900F900F90DF91EB
:102EA000CF911F910F91FF90EF90DF90CF90BF9047
:102EB000AF909F908F907F906F900C94B2342F9230
:102EC0003F924F925F926F927F928F929F92AF92BA
:102ED000BF92CF92DF92EF92FF920F931F93CF9307
:102EE000DF93CDB7DEB7CD55D1090FB6F894DEBF6D
:102EF0000FBECDBF69837A838B839C8369817A817E
:102F00008B819C810E940B33462F572F5FAF4EAFB2
:102F1000E090A601F090A701F9AEE8AE0091A20101
:102F20001091A30126961FAF0EAF2697E090A40143
:102F3000F090A501F886EF820091A8011091A901F7
:102F400060961FAF0EAF60971091AA011B87E090AB
:102F5000AB01EC86F090AC01FD860091AD010E87CF
:102F60001091AE011F87E090AF01E88AF090B001A8
:102F7000F98A0091B1010A8BCA0197FD01969595D6
:102F800087958C01990F220B330B09831A832B83AE
:102F90003C83C901B8010E9443339B01AC0160919D
:102FA000BE017091BF018091C0019091C1010E944A
:102FB00022326D837E83782E692E20E030E0A901D5
:102FC00069837A838B839C8369817A818B819C81DD
:102FD0000E948F3287FF0EC02BED3FE049EC50E49A
:102FE00069817A818B819C810E9423326D837E83EB
:102FF000782E692E2BED3FE049EC50E4FD80F982FC
:103000000E810A837B826C8269817A818B819C81AB
:103010000E943234181674F42BED3FE049EC50E472
:1030200069817A818B819C810E9422326D837E83AB
:10303000782E692EF894EEACFFAC1E141F0414F029
:103040000C947B23EF80F88426962EAD3FAD269717
:10305000E29E8001E39E100DF29E100D11241DAF23
:103060000CAF3F85288999898A8939832A839B8374
:103070008C8369817A818B819C810E940B336F8361
:1030800078873B852C859D858E8539832A839B8314
:103090008C8369817A818B819C810E940B33CB0167
:1030A000E0909801F0909901FBAEEAAE1FAA1EAA2B
:1030B0001EA21FA218A619A61E8A1F8A188E198E74
:1030C0001AA21BA21CA21DA2D12CC12CB12CA12C76
:1030D0002F813885287FA901032E000C660B770B02
:1030E00064964CAF5DAF6EAF7FAF649748AD59AD9E
:1030F0005195419551097A01550F000B110B2A96F4
:10310000ECAEFDAE0EAF1FAF2A97AC01487F68ADA5
:1031100079AD640F751F7B01770F000B110B2E9695
:10312000ECAEFDAE0EAF1FAF2E97E8ACF9AC0F2C96
:10313000000C000B110B2496ECAEFDAE0EAF1FAFD2
:1031400024977A01550F000B110B6896ECAEFDAE7B
:103150000EAF1FAF689708AD19AD200F311FA90141
:10316000330F660B770B6C964CAF5DAF6EAF7FAFD6
:103170006C978AA79BA7EF80ECA6F884FDA60D812B
:1031800009831E811A837B826C8269817A818B819B
:103190009C810E94F234462F572FBC014F835887E1
:1031A00069877A879A01AB0160E070E080E89FEB65
:1031B0000E9499328B018C8B9B8B2BED3FE049E475
:1031C00050E469817A818B819C810E943234181687
:1031D0000CF07CC064966CAD7DAD8EAD9FAD6497F8
:1031E0000E9443336B017C0127E137EB41ED58E34B
:1031F0006983DA828B83FC8269817A818B819C81ED
:103200000E9422326AA37BA38CA39DA327E137EB04
:1032100041ED58E37F85688999898A8979836A8332
:103220009B838C8369817A818B819C810E9423326C
:103230009601A70169837A838B839C8369817A8154
:103240008B819C810E94223298014C895B89698321
:103250007A838B839C8369817A818B819C810E9494
:103260003734BB85AC85FD85EE852B2F3A2F4F2F4C
:103270005E2F69837A838B839C8369817A818B81BA
:103280009C810E942332D62EC72EB82EA92E2A96B4
:103290006CAD7DAD8EAD9FAD2A970E9443336EA37A
:1032A0007FA388A799A79B01AC0109831A83EC88A7
:1032B000EB82FB88FC8269817A818B819C810E94F0
:1032C000373490586E8B7F8B888F998F2BED3FE032
:1032D00049E450E4ED80E982FE80FA827B826C82D0
:1032E00069817A818B819C810E948F3287FD02C027
:1032F0000C94962320E030E0A90169817A818B81CA
:103300009C810E948F32882311F40C944D242496C2
:103310006CAD7DAD8EAD9FAD24970E9443336EA3FF
:103320007FA388A799A79B01AC0109831A83EC8826
:10333000EB82FB88FC8269817A818B819C810E946F
:10334000373490586E8B7F8B888F998F6C966CADCD
:103350007DAD8EAD9FAD6C970E9443334B011C0138
:10336000262F392D422D532D7F85688999898A8989
:1033700079836A839B838C8369817A818B819C8129
:103380000E9422329801A70169837A838B839C83F0
:1033900069817A818B819C810E943734BB85AC85A1
:1033A000FD85EE852B2F3A2F4F2F5E2F69837A8371
:1033B0008B839C8369817A818B819C810E942332DB
:1033C0006E966FAF6E976D967FAF6D972C012696B8
:1033D0000EAD1FAD26970130110511F00C94A024FD
:1033E0006E963FAD6E976D962FAD6D9739832A839C
:1033F0004B825C8269817A818B819C810E940B3334
:103400008B01159507951595079515950795898253
:103410009A822B823C8269817A818B819C810E9475
:103420000B3369837A838B839C83CB019595879536
:103430009595879595958795080F191FECACFDAC70
:103440000E151F050CF03FC5000F111F6096EEAD65
:10345000FFAD6097E00FF11F80819181181619066A
:103460000CF031C57B856C859D858E85272F362F89
:10347000492F582F6E967FAD6E976D966FAD6D97F5
:1034800079836A834B825C8269817A818B819C819A
:103490000E9422325B016C017F85688999898A8943
:1034A000272F362F492F582F89829A822B823C82D0
:1034B00069817A818B819C810E9422327B018C01FF
:1034C0009501A601A982BA82CB82DC8269817A81C8
:1034D0008B819C810E9437345B016C019701A801AC
:1034E000E982FA820B831C8369817A818B819C81BA
:1034F0000E9437349B01AC01A982BA82CB82DC8264
:1035000069817A818B819C810E94233269837A83CD
:103510008B839C8369817A818B819C810E94B234E8
:103520006A8F7B8F8C8F9D8F8EA69FA628AA39AA23
:103530006E96FFAC6E97FAAA6D960FAD6D970BABBA
:103540004CAA5DAA2BED3FE049EC5FE31D81198396
:10355000EE80EA827B826C8269817A818B819C8198
:103560000E943234181674F424EE3BEC46E950E421
:1035700069817A818B819C810E948F3287FF02C092
:103580000C94B82B2BED3FE049EC5FE3ED80E98232
:10359000FE80FA827B826C8269817A818B819C8138
:1035A0000E948F3287FD0DC024EE3BEC46E950E4CB
:1035B00069817A818B819C810E94323418160CF0CB
:1035C00064C02E966CAD7DAD8EAD9FAD2E970E94E2
:1035D00043336E966FAF6E976D967FAF6D972C01EC
:1035E0007B856C859D858E85272F362F492F582FFB
:1035F0006E967FAD6E976D966FAD6D9779836A838A
:103600004B825C8269817A818B819C810E9422320B
:103610002F81388549855A8569837A838B839C837A
:1036200069817A818B819C810E943734BF85A8890A
:10363000F989EA892B2F3A2F4F2F5E2F69837A83DE
:103640008B839C8369817A818B819C810E94233248
:103650004B011C0124966CAD7DAD8EAD9FAD2497C2
:103660000E944333462F572FBC014E8B5F8B688FD0
:10367000798F9A01AB016F81788589859A850E943F
:1036800037346EA37FA388A799A720E030E0A90173
:10369000ED80E982FE80FA827B826C8269817A8188
:1036A0008B819C810E948F32882309F438C72BEDCF
:1036B0003FE049E450E469817A818B819C810E94DA
:1036C0008F32882309F42BC726960EAD1FAD26979F
:1036D0006E963FAD6E976D962FAD6D9739832A83A9
:1036E0004B825C8269817A818B819C8101301105DA
:1036F00011F00C94E6270E940B33CB016F839B8B58
:1037000089829A822B823C8269817A818B819C8119
:103710000E940B33CB016C8B9D8B68AD79AD0E9401
:10372000FA319B018F819B8968AD79AD0E94FA3196
:10373000620F731F161617060CF089C0ECACFDACB7
:103740006E157F050CF083C0660F771F6096EEAD97
:10375000FFAD6097E60FF71F80819181181619065B
:103760000CF075C07B856C859D858E85272F362F47
:10377000492F582F6E967FAD6E976D966FAD6D97F2
:1037800079836A834B825C8269817A818B819C8197
:103790000E9422325B016C017F85688999898A8940
:1037A000272F362F492F582F89829A822B823C82CD
:1037B00069817A818B819C810E9422327B018C01FC
:1037C0009501A601A982BA82CB82DC8269817A81C5
:1037D0008B819C810E9437345B016C019701A801A9
:1037E000E982FA820B831C8369817A818B819C81B7
:1037F0000E9437349B01AC01A982BA82CB82DC8261
:1038000069817A818B819C810E94233269837A83CA
:103810008B839C8369817A818B819C810E94B234E5
:103820007B018C012F8128A33B8939A34C894E8FC2
:103830005D895F8F8AA29BA22CA23DA26E96DFAC0F
:103840006E976D96CFAC6D97B42CA52C91C62E8932
:103850003F89488D598D6E967FAD6E976D966FAD91
:103860006D9779836A834B825C8269817A818B81CF
:103870009C810E9423326E966FAF6E976D967FAFDC
:103880006D972C012EA13FA148A559A589829A8246
:103890002B823C8269817A818B819C810E942332B8
:1038A0004B011C016E963FAD6E976D962FAD6D97D7
:1038B00039832A834B825C8269817A818B819C81E6
:1038C0000E940B33CB016F839B8B89829A822B8260
:1038D0003C8269817A818B819C810E940B33CB0170
:1038E0006C8B9D8B68AD79AD0E94FA319B018F8105
:1038F0009B8968AD79AD0E94FA31620F731F16166D
:10390000170634F40CAD1DAD601771070CF4F7C742
:103910002E893F89488D598D6E967FAD6E976D9635
:103920006FAD6D9779836A834B825C8269817A81FE
:103930008B819C810E9423326E966FAF6E976D963D
:103940007FAF6D972C012EA13FA148A559A5898273
:103950009A822B823C8269817A818B819C810E9430
:1039600023324B011C016E963FAD6E976D962FADC5
:103970006D9739832A834B825C8269817A818B813E
:103980009C810E940B33CB016F839B8B89829A822F
:103990002B823C8269817A818B819C810E940B33CE
:1039A000CB016C8B9D8B68AD79AD0E94FA319B0188
:1039B0008F819B8968AD79AD0E94FA31620F731FC8
:1039C0001616170634F4ECACFDAC6E157F050CF43E
:1039D000A7C72E893F89488D598D6E967FAD6E970A
:1039E0006D966FAD6D9779836A834B825C82698136
:1039F0007A818B819C810E9423326E966FAF6E9785
:103A00006D967FAF6D972C012EA13FA148A559A5BA
:103A100089829A822B823C8269817A818B819C8106
:103A20000E9423324B011C016E963FAD6E976D963E
:103A30002FAD6D9739832A834B825C8269817A81AD
:103A40008B819C810E940B33CB016F839B8B89827E
:103A50009A822B823C8269817A818B819C810E942F
:103A60000B33CB016C8B9D8B68AD79AD0E94FA3125
:103A70009B018F819B8968AD79AD0E94FA31620FFD
:103A8000731F161617069CF40CAD1DAD6017710759
:103A900074F4660F771F6096EEADFFAD6097E60F8A
:103AA000F71F80819181181619060CF45BCE2E89C0
:103AB0003F89488D598D6E967FAD6E976D966FAD2F
:103AC0006D9779836A834B825C8269817A818B816D
:103AD0009C810E9423326E966FAF6E976D967FAF7A
:103AE0006D972C012EA13FA148A559A589829A82E4
:103AF0002B823C8269817A818B819C810E94233256
:103B00004B011C016E963FAD6E976D962FAD6D9774
:103B100039832A834B825C8269817A818B819C8183
:103B20000E940B33CB016F839B8B89829A822B82FD
:103B30003C8269817A818B819C810E940B33CB010D
:103B40006C8B9D8B68AD79AD0E94FA319B018F81A2
:103B50009B8968AD79AD0E94FA31620F731F16160A
:103B600017069CF4ECACFDAC6E157F0574F4660F83
:103B7000771F6096EEADFFAD6097E60FF71F80816F
:103B80009181181619060CF4EDCD2E893F89488DC8
:103B9000598D6E967FAD6E976D966FAD6D977983EB
:103BA0006A834B825C8269817A818B819C810E94CD
:103BB00023326E966FAF6E976D967FAF6D972C0127
:103BC0002EA13FA148A559A589829A822B823C82C9
:103BD00069817A818B819C810E9423324B011C0177
:103BE0006E963FAD6E976D962FAD6D9739832A8394
:103BF0004B825C8269817A818B819C810E940B332C
:103C0000CB016F839B8B89829A822B823C82698154
:103C10007A818B819C810E940B33CB016C8B9D8BB5
:103C200068AD79AD0E94FA319B018F819B8968ADA7
:103C300079AD0E94FA31620F731F161617069CF4B5
:103C40000CAD1DAD6017710774F4660F771F609699
:103C5000EEADFFAD6097E60FF71F808191811816DA
:103C600019060CF47FCD2E893F89488D598D6E96AB
:103C70007FAD6E976D966FAD6D9779836A834B823A
:103C80005C8269817A818B819C810E9423326E964D
:103C90006FAF6E976D967FAF6D972C012EA13FA1F0
:103CA00048A559A589829A822B823C8269817A81B2
:103CB0008B819C810E9423324B011C016E963FAD8B
:103CC0006E976D962FAD6D9739832A834B825C82F8
:103CD00069817A818B819C810E940B33CB016F8338
:103CE0009B8B89829A822B823C8269817A818B812B
:103CF0009C810E940B33CB016C8B9D8B68AD79ADA1
:103D00000E94FA319B018F819B8968AD79AD0E9439
:103D1000FA31620F731F161617063CF4ECACFDACBB
:103D20006E157F0514F40C94562B2E893F89488D0F
:103D3000598D6E967FAD6E976D966FAD6D97798349
:103D40006A834B825C8269817A818B819C810E942B
:103D500023326E966FAF6E976D967FAF6D972C0185
:103D60002EA13FA148A559A589829A822B823C8227
:103D700069817A818B819C810E9423324B011C01D5
:103D80006E963FAD6E976D962FAD6D9739832A83F2
:103D90004B825C8269817A818B819C810E940B338A
:103DA000CB016F839B8B89829A822B823C826981B3
:103DB0007A818B819C810E940B33CB016C8B9D8B14
:103DC00068AD79AD0E94FA319B018F819B8968AD06
:103DD00079AD0E94FA31620F731F161617069CF414
:103DE0000CAD1DAD6017710774F4660F771F6096F8
:103DF000EEADFFAD6097E60FF71F80819181181639
:103E000019060CF4AFCC2E893F89488D598D6E96DA
:103E10007FAD6E976D966FAD6D9779836A834B8298
:103E20005C8269817A818B819C810E9423326E96AB
:103E30006FAF6E976D967FAF6D972C012EA13FA14E
:103E400048A559A589829A822B823C8269817A8110
:103E50008B819C810E9423324B011C0189829A82B2
:103E60008B833C8269817A818B819C810E940B3398
:103E7000CB016C8B9D8B6E963FAD6E976D962FAD83
:103E80006D9739832A834B825C8269817A818B8129
:103E90009C810E940B33CB016F839B8B1AA518A3C7
:103EA000EBA4E9A2FCA4FE8E0DA50F8F1F851AA31B
:103EB000E888EBA2F988FCA20A890DA3DB84CC84F4
:103EC000BD84AE8450C32E893F89488D598D6E962E
:103ED0007FAD6E976D966FAD6D9779836A834B82D8
:103EE0005C8269817A818B819C810E9423326E96EB
:103EF0006FAF6E976D967FAF6D972C012EA13FA18E
:103F000048A559A589829A822B823C8269817A814F
:103F10008B819C810E9423324B011C016E963FAD28
:103F20006E976D962FAD6D9739832A834B825C8295
:103F300069817A818B819C810E940B338B0115955D
:103F40000795159507951595079589829A822B8275
:103F50003C8269817A818B819C810E940B336983C9
:103F60007A838B839C83CB019595879595958795CF
:103F700095958795080F191FECACFDAC0E151F0524
:103F800074F4000F111F6096EEADFFAD6097E00F67
:103F9000F11F80819181181619060CF463CA2E89CD
:103FA0003F89488D598D6E967FAD6E976D966FAD3A
:103FB0006D9779836A834B825C8269817A818B8178
:103FC0009C810E9423326E966FAF6E976D967FAF85
:103FD0006D972C012EA13FA148A559A589829A82EF
:103FE0002B823C8269817A818B819C810E94233261
:103FF0004B011C016E963FAD6E976D962FAD6D9780
:1040000039832A834B825C8269817A818B819C818E
:104010000E940B338B0115950795159507951595FE
:10402000079589829A822B823C8269817A818B8171
:104030009C810E940B3369837A838B839C83CB01A1
:10404000959587959595879595958795080F191F4F
:10405000ECACFDAC0E151F0574F4000F111F60963B
:10406000EEADFFAD6097E00FF11F808191811816D2
:1040700019060CF4F7C92E893F89488D598D6E9623
:104080007FAD6E976D966FAD6D9779836A834B8226
:104090005C8269817A818B819C810E9423326E9639
:1040A0006FAF6E976D967FAF6D972C012EA13FA1DC
:1040B00048A559A589829A822B823C8269817A819E
:1040C0008B819C810E9423324B011C016E963FAD77
:1040D0006E976D962FAD6D9739832A834B825C82E4
:1040E00069817A818B819C810E940B338B011595AC
:1040F0000795159507951595079589829A822B82C4
:104100003C8269817A818B819C810E940B33698317
:104110007A838B839C83CB0195958795959587951D
:1041200095958795080F191FECACFDAC0E151F0572
:1041300074F4000F111F6096EEADFFAD6097E00FB5
:10414000F11F80819181181619060CF48BC92E89F4
:104150003F89488D598D6E967FAD6E976D966FAD88
:104160006D9779836A834B825C8269817A818B81C6
:104170009C810E9423326E966FAF6E976D967FAFD3
:104180006D972C012EA13FA148A559A589829A823D
:104190002B823C8269817A818B819C810E942332AF
:1041A0004B011C016E963FAD6E976D962FAD6D97CE
:1041B00039832A834B825C8269817A818B819C81DD
:1041C0000E940B338B01159507951595079515954D
:1041D000079589829A822B823C8269817A818B81C0
:1041E0009C810E940B3369837A838B839C83CB01F0
:1041F000959587959595879595958795080F191F9E
:10420000ECACFDAC0E151F0574F4000F111F609689
:10421000EEADFFAD6097E00FF11F80819181181620
:1042200019060CF41FC92E893F89488D598D6E9649
:104230007FAD6E976D966FAD6D9779836A834B8274
:104240005C8269817A818B819C810E9423326E9687
:104250006FAF6E976D967FAF6D972C012EA13FA12A
:1042600048A559A589829A822B823C8269817A81EC
:104270008B819C810E9423324B011C016E963FADC5
:104280006E976D962FAD6D9739832A834B825C8232
:1042900069817A818B819C810E940B338B011595FA
:1042A0000795159507951595079589829A822B8212
:1042B0003C8269817A818B819C810E940B33698366
:1042C0007A838B839C83CB0195958795959587956C
:1042D00095958795080F191FECACFDAC0E151F05C1
:1042E00014F40C94672B2E893F89488D598D6E9656
:1042F0007FAD6E976D966FAD6D9779836A834B82B4
:104300005C8269817A818B819C810E9423326E96C6
:104310006FAF6E976D967FAF6D972C012EA13FA169
:1043200048A559A589829A822B823C8269817A812B
:104330008B819C810E9423324B011C016E963FAD04
:104340006E976D962FAD6D9739832A834B825C8271
:1043500069817A818B819C810E940B338B01159539
:104360000795159507951595079589829A822B8251
:104370003C8269817A818B819C810E940B336983A5
:104380007A838B839C83CB019595879595958795AB
:1043900095958795080F191FECACFDAC0E151F0500
:1043A00074F4000F111F6096EEADFFAD6097E00F43
:1043B000F11F80819181181619060CF453C82E89BB
:1043C0003F89488D598D6E967FAD6E976D966FAD16
:1043D0006D9779836A834B825C8269817A818B8154
:1043E0009C810E9423326E966FAF6E976D967FAF61
:1043F0006D972C012EA13FA148A559A589829A82CB
:104400002B823C8269817A818B819C810E9423323C
:104410004B011C0189829A828B833C8269817A815B
:104420008B819C810E940B338B0115950795159507
:104430000795159507956E963FAD6E976D962FADC6
:104440006D9739832A834B825C8269817A818B8163
:104450009C810E940B3369837A838B839C83CB017D
:10446000959587959595879595958795080F191F2B
:10447000ECACFDAC0E151F057CF4000F111F60960F
:10448000EEADFFAD6097E00FF11F808191811816AE
:10449000190614F40C94321A2E893F89488D598DCF
:1044A0006E967FAD6E976D966FAD6D9779836A83CB
:1044B0004B825C8269817A818B819C810E9423324C
:1044C0006E966FAF6E976D967FAF6D972C012EA194
:1044D0003FA148A559A589829A822B823C82698195
:1044E0007A818B819C810E9423324B011C01FF84C5
:1044F000FEA608890FA7198918ABEA88E9AAFB84E8
:10450000FAAA0C850BAB1D851CABEE84EDAA1A8EA6
:1045100004E20B8F14E71C8F09E40D8F13C81AA552
:1045200018A3EBA4E9A2FCA4FE8E0DA50F8F1F8398
:10453000EB8AFC8A0D8B1F851AA3E888EBA2F98809
:10454000FCA20A890DA3DB84CC84BD84AE84812EB9
:104550009E2C2F2C302E6E96DFAE6E976D96CFAEC2
:104560006D974B2C5A2CE12C84E2F82E04E719E4C9
:104570002C893D894F815B896CA57DA58AA59BA56A
:10458000EAADFBAD09952A8D3B8D4C8D5D8DE982A1
:10459000FA820B831C8369817A818B819C810E94C2
:1045A0008F3287FD14C0FF81F8A32B8929A33C8992
:1045B0003E8F4D894F8F8AA29BA22CA23DA26E9660
:1045C000DFAC6E976D96CFAC6D97B42CA52C2A8D71
:1045D0003B8D4C8D5D8DE982FA820B831C83698152
:1045E0007A818B819C810E943234181624F50EA5A5
:1045F0001FA5E8A8ECA2F9A8FDA209831A83EB8203
:10460000FC8269817A818B819C810E940B336E8F41
:104610007F8FDAA8CBA8BCA8ADA8D982CA82BB82FA
:10462000AC8269817A818B819C810E940B3368A363
:1046300079A30AA31BA32E8D3F8D48A159A16CA578
:104640007DA58AA59BA5EAADFBAD099526E537E7D3
:1046500046E55DEBED80E982FE80FA827B826C822A
:1046600069817A818B819C810E948F3226E537E7B0
:1046700046E55DE387FF09C087012AEC3CEB4AEC85
:1046800050E409831A837B826C8269817A818B81F1
:104690009C810E9423326D837E83782E692E7B015C
:1046A0002BED3FE049EC50E46983FA828B839C83D5
:1046B00069817A818B819C810E943234181674F44E
:1046C0002BED3FE049EC50E469817A818B819C813C
:1046D0000E9422326D837E83782E692E0EA91FA937
:1046E0000F5F1F4F1FAB0EABEEACFFACE016F10639
:1046F00011F00C94BF187894C35ADF4F0FB6F8949A
:10470000DEBF0FBECDBFDF91CF911F910F91FF9004
:10471000EF90DF90CF90BF90AF909F908F907F9061
:104720006F905F904F903F902F900895870120E009
:1047300030E0A90109831A837B826C8269817A81C6
:104740008B819C810E948F32882309F4BFC0EF8047
:10475000F88409851A8517FB109517F910952BED2C
:104760003FE049E450E469817A818B819C810E9419
:104770008F3281110C94C12B2F852EA738893FA72A
:10478000498948AB5A8959AB6B856AAB7C857BAB51
:104790008D858CAB9E859DAB1A8EA4E2AB8FB4E762
:1047A000BC8FE9E4ED8F68966CAD7DAD8EAD9FADAD
:1047B00068970E9443335B016C0127E137EB41EDC1
:1047C00058E36983BA828B83DC8269817A818B8129
:1047D0009C810E9422326E966FAF6E976D967FAF6E
:1047E0006D972C0127E137EB41ED58E37B856C8514
:1047F0009D858E8579836A839B838C8369817A8189
:104800008B819C810E9423329501A60169837A8362
:104810008B839C8369817A818B819C810E94223267
:10482000A801970169837A838B839C8369817A814C
:104830008B819C810E943734BF85A889F989EA89D8
:104840002B2F3A2F4F2F5E2F69837A838B839C8384
:1048500069817A818B819C810E9423324B011C01EA
:104860002A966CAD7DAD8EAD9FAD2A970E944333E5
:10487000462F572FBC014E8B5F8B688F798F9A0123
:10488000AB016F81788589859A850E9437346EA344
:104890007FA388A799A70C94C21A0B850AAB1C8525
:1048A0001BABED84ECAAFE84FDAA0F850EA7188928
:1048B0001FA7E988E8AAFA88F9AA1A8E04E20B8FE2
:1048C00014E71C8F09E40D8F0C94E11A1B851AABB9
:1048D000EC84EBAAFD84FCAA0E850DAB1F851EA7F8
:1048E000E888EFA6F988F8AA0A8909AB1A8E14E2BB
:1048F0001B8F04E70C8F19E41D8F0C94E11A660FCF
:10490000771F6096EEADFFAD6097E60FF71F8081D1
:1049100091811816190614F40C94B21B0C94881C7F
:10492000660F771F6096EEADFFAD6097E60FF71F3D
:10493000808191811816190614F40C94B21B49C891
:1049400089829A822B823C8269817A818B819C81C7
:104950000E940B33CB0195958795959587959595F5
:10496000879578018E9D80018F9D100D9E9D100D65
:1049700011246E963FAD6E976D962FAD6D9739836E
:104980002A834B825C8269817A818B819C810E941F
:104990000B3369837A838B839C83CB0195958795B1
:1049A0009595879595958795080F191FECACFDACEB
:1049B0000E151F057CF4000F111F6096EEADFFADC4
:1049C0006097E00FF11F808191811816190614F489
:1049D0000C94321A2E893F89488D598D6E967FAD81
:1049E0006E976D966FAD6D9779836A834B825C820B
:1049F00069817A818B819C810E9423326E966FAF90
:104A00006E976D967FAF6D972C012EA13FA148A5A3
:104A100059A589829A822B823C8269817A818B8115
:104A20009C810E9423324B011C0189829A828B83D4
:104A30003C8269817A818B819C810E940B33CB01FE
:104A40009595879595958795959587952696EEAC3E
:104A5000FFAC26978E9D80018F9D100D9E9D100DA1
:104A600011246E963FAD6E976D962FAD6D9739837D
:104A70002A834B825C8269817A818B819C810E942E
:104A80000B3369837A838B839C83CB0195958795C0
:104A90009595879595958795080F191FECACFDACFA
:104AA0000E151F057CF4000F111F6096EEADFFADD3
:104AB0006097E00FF11F808191811816190614F498
:104AC0000C94321A2E893F89488D598D6E967FAD90
:104AD0006E976D966FAD6D9779836A834B825C821A
:104AE00069817A818B819C810E9423326E966FAF9F
:104AF0006E976D967FAF6D972C012EA13FA148A5B3
:104B000059A589829A822B823C8269817A818B8124
:104B10009C810E9423324B011C0189829A828B83E3
:104B20003C8269817A818B819C810E940B33CB010D
:104B30009595879595958795959587952696EEAC4D
:104B4000FFAC26978E9D80018F9D100D9E9D100DB0
:104B500011246E963FAD6E976D962FAD6D9739838C
:104B60002A834B825C8269817A818B819C810E943D
:104B70000B3369837A838B839C83CB0195958795CF
:104B80009595879595958795080F191FECACFDAC09
:104B90000E151F050CF4ACC52E893F89488D598D23
:104BA0006E967FAD6E976D966FAD6D9779836A83C4
:104BB0004B825C8269817A818B819C810E94233245
:104BC0006E966FAF6E976D967FAF6D972C012EA18D
:104BD0003FA148A559A589829A822B823C8269818E
:104BE0007A818B819C810E9423324B011C01898236
:104BF0009A828B833C8269817A818B819C810E941D
:104C00000B33CB01959587959595879595958795C8
:104C10002696EEACFFAC26978E9D80018F9D100DE1
:104C20009E9D100D11246E963FAD6E976D962FAD23
:104C30006D9739832A834B825C8269817A818B816B
:104C40009C810E940B3369837A838B839C83CB0185
:104C5000959587959595879595958795080F191F33
:104C6000ECACFDAC0E151F057CF4000F111F609617
:104C7000EEADFFAD6097E00FF11F808191811816B6
:104C8000190614F40C94321A2E893F89488D598DD7
:104C90006E967FAD6E976D966FAD6D9779836A83D3
:104CA0004B825C8269817A818B819C810E94233254
:104CB0006E966FAF6E976D967FAF6D972C012EA19C
:104CC0003FA148A559A589829A822B823C8269819D
:104CD0007A818B819C810E9423324B011C01898245
:104CE0009A828B833C8269817A818B819C810E942C
:104CF0000B33CB01959587959595879595958795D8
:104D00002696EEACFFAC26978E9D80018F9D100DF0
:104D10009E9D100D11246E963FAD6E976D962FAD32
:104D20006D9739832A834B825C8269817A818B817A
:104D30009C810E940B3369837A838B839C83CB0194
:104D4000959587959595879595958795080F191F42
:104D5000ECACFDAC0E151F057CF4000F111F609626
:104D6000EEADFFAD6097E00FF11F808191811816C5
:104D7000190614F40C94321A2E893F89488D598DE6
:104D80006E967FAD6E976D966FAD6D9779836A83E2
:104D90004B825C8269817A818B819C810E94233263
:104DA0006E966FAF6E976D967FAF6D972C012EA1AB
:104DB0003FA148A559A589829A822B823C826981AC
:104DC0007A818B819C810E9423324B011C01898254
:104DD0009A828B833C8269817A818B819C810E943B
:104DE0000B33CB01959587959595879595958795E7
:104DF0002696EEACFFAC26978E9D80018F9D100D00
:104E00009E9D100D11246E963FAD6E976D962FAD41
:104E10006D9739832A834B825C8269817A818B8189
:104E20009C810E940B3369837A838B839C83CB01A3
:104E3000959587959595879595958795080F191F51
:104E4000ECACFDAC0E151F050CF472C42E893F8925
:104E5000488D598D6E967FAD6E976D966FAD6D973F
:104E600079836A834B825C8269817A818B819C81A0
:104E70000E9423326E966FAF6E976D967FAF6D97DF
:104E80002C012EA13FA148A559A589829A822B8287
:104E90003C8269817A818B819C810E9423324B0103
:104EA0001C0189829A828B833C8269817A818B8101
:104EB0009C810E940B33CB0195958795959587959D
:104EC000959587952696EEACFFAC26978E9D800132
:104ED0008F9D100D9E9D100D11246E963FAD6E9707
:104EE0006D962FAD6D9739832A834B825C826981E1
:104EF0007A818B819C810E940B3369837A838B83B7
:104F00009C83CB01959587959595879595958795E4
:104F1000080F191FECACFDAC0E151F057CF4000F3B
:104F2000111F6096EEADFFAD6097E00FF11F80811D
:104F300091811816190614F40C94321A2E893F899F
:104F4000488D598D6E967FAD6E976D966FAD6D974E
:104F500079836A834B825C8269817A818B819C81AF
:104F60000E9423326E966FAF6E976D967FAF6D97EE
:104F70002C012EA13FA148A559A589829A822B8296
:104F80003C8269817A818B819C810E9423324B0112
:104F90001C0189829A828B833C8269817A818B8110
:104FA0009C810E940B33CB019595879595958795AC
:104FB000959587952696EEACFFAC26978E9D800141
:104FC0008F9D100D9E9D100D112435CA0E940B332C
:104FD000CB016F839B8B89829A822B823C82698171
:104FE0007A818B819C810E940B33CB016C8B9D8BD2
:104FF00068AD79AD0E94FA31609F9001619F300DDC
:10500000709F300D11248F819B8968AD79AD0E940E
:10501000FA31620F731F16161706A4F4ECACFDAC40
:105020006E157F057CF4660F771F6096EEADFFADC1
:105030006097E60FF71F808191811816190614F406
:105040000C94B21B2E893F89488D598D6E967FAD89
:105050006E976D966FAD6D9779836A834B825C8294
:1050600069817A818B819C810E9423326E966FAF19
:105070006E976D967FAF6D972C012EA13FA148A52D
:1050800059A589829A822B823C8269817A818B819F
:105090009C810E9423324B011C016E963FAD6E979E
:1050A0006D962FAD6D9739832A834B825C8269811F
:1050B0007A818B819C810E940B33CB016F839B8B08
:1050C00089829A822B823C8269817A818B819C8140
:1050D0000E940B33CB016C8B9D8B68AD79AD0E9428
:1050E000FA3126960EAD1FAD2697609F9001619F05
:1050F000300D709F300D11248F819B8968AD79AD83
:105100000E94FA31620F731F16161706A4F4ECAC56
:10511000FDAC6E157F057CF4660F771F6096EEADD3
:10512000FFAD6097E60FF71F808191811816190671
:1051300014F40C94B21B2E893F89488D598D6E96BC
:105140007FAD6E976D966FAD6D9779836A834B8255
:105150005C8269817A818B819C810E9423326E9668
:105160006FAF6E976D967FAF6D972C012EA13FA10B
:1051700048A559A589829A822B823C8269817A81CD
:105180008B819C810E9423324B011C016E963FADA6
:105190006E976D962FAD6D9739832A834B825C8213
:1051A00069817A818B819C810E940B33CB016F8353
:1051B0009B8B89829A822B823C8269817A818B8146
:1051C0009C810E940B33CB016C8B9D8B68AD79ADBC
:1051D0000E94FA3126960EAD1FAD2697609F900172
:1051E000619F300D709F300D11248F819B8968ADB8
:1051F00079AD0E94FA31620F731F16161706A4F4D8
:10520000ECACFDAC6E157F057CF4660F771F6096E5
:10521000EEADFFAD6097E60FF71F80819181181604
:10522000190614F40C94B21B2E893F89488D598DB0
:105230006E967FAD6E976D966FAD6D9779836A832D
:105240004B825C8269817A818B819C810E942332AE
:105250006E966FAF6E976D967FAF6D972C012EA1F6
:105260003FA148A559A589829A822B823C826981F7
:105270007A818B819C810E9423324B011C016E96A6
:105280003FAD6E976D962FAD6D9739832A834B8214
:105290005C8269817A818B819C810E940B33CB0176
:1052A0006F839B8B89829A822B823C8269817A816F
:1052B0008B819C810E940B33CB016C8B9D8B68ADE5
:1052C00079AD0E94FA3126960EAD1FAD2697609FEC
:1052D0009001619F300D709F300D11248F819B894B
:1052E00068AD79AD0E94FA31620F731F161617066A
:1052F000A4F4ECACFDAC6E157F057CF4660F771F53
:105300006096EEADFFAD6097E60FF71F808191814B
:105310001816190614F40C94B21B2E893F89488D77
:10532000598D6E967FAD6E976D966FAD6D97798343
:105330006A834B825C8269817A818B819C810E9425
:1053400023326E966FAF6E976D967FAF6D972C017F
:105350002EA13FA148A559A589829A822B823C8221
:1053600069817A818B819C810E9423324B011C01CF
:105370006E963FAD6E976D962FAD6D9739832A83EC
:105380004B825C8269817A818B819C810E940B3384
:10539000CB016F839B8B89829A822B823C826981AD
:1053A0007A818B819C810E940B33CB016C8B9D8B0E
:1053B00068AD79AD0E94FA3126960EAD1FAD2697E5
:1053C000609F9001619F300D709F300D11248F817F
:1053D0009B8968AD79AD0E94FA31620F731F161672
:1053E0001706A4F4ECACFDAC6E157F057CF4660FDB
:1053F000771F6096EEADFFAD6097E60FF71F8081D7
:1054000091811816190614F40C94B21B2E893F8949
:10541000488D598D6E967FAD6E976D966FAD6D9779
:1054200079836A834B825C8269817A818B819C81DA
:105430000E9423326E966FAF6E976D967FAF6D9719
:105440002C012EA13FA148A559A589829A822B82C1
:105450003C8269817A818B819C810E9423324B013D
:105460001C016E963FAD6E976D962FAD6D9739838B
:105470002A834B825C8269817A818B819C810E9424
:105480000B33CB016F839B8B89829A822B823C8268
:1054900069817A818B819C810E940B33CB016C8B5B
:1054A0009D8B68AD79AD0E94FA3126960EAD1FAD89
:1054B0002697609F9001619F300D709F300D1124E1
:1054C0008F819B8968AD79AD0E94FA31620F731F9D
:1054D0001616170634F4ECACFDAC6E157F050CF413
:1054E00017C12E893F89488D598D6E967FAD6E9775
:1054F0006D966FAD6D9779836A834B825C8269810B
:105500007A818B819C810E9423326E966FAF6E9759
:105510006D967FAF6D972C012EA13FA148A559A58F
:1055200089829A822B823C8269817A818B819C81DB
:105530000E9423324B011C016E963FAD6E976D9613
:105540002FAD6D9739832A834B825C8269817A8182
:105550008B819C810E940B33CB016F839B8B898253
:105560009A822B823C8269817A818B819C810E9404
:105570000B33CB016C8B9D8B68AD79AD0E94FA31FA
:1055800026960EAD1FAD2697609F9001619F300D4E
:10559000709F300D11248F819B8968AD79AD0E9479
:1055A000FA31C901860F971F1816190634F4ECACAE
:1055B000FDAC8E159F050CF4CBC02E893F89488D1C
:1055C000598D6E967FAD6E976D966FAD6D977983A1
:1055D0006A834B825C8269817A818B819C810E9483
:1055E00023326E966FAF6E976D967FAF6D972C01DD
:1055F0002EA13FA148A559A589829A822B823C827F
:1056000069817A818B819C810E9423324B011C012C
:105610006E963FAD6E976D962FAD6D9739832A8349
:105620004B825C8269817A818B819C810E940B33E1
:10563000CB016F839B8B89829A822B823C8269810A
:105640007A818B819C810E940B33CB016C8B9D8B6B
:1056500068AD79AD0E94FA3126960EAD1FAD269742
:10566000609F9001619F300D709F300D11248F81DC
:105670009B8968AD79AD0E94FA31C901860F971FE9
:105680001816190614F00C94031FECACFDAC8E1523
:105690009F0514F00C94031F880F991F6096EEADC0
:1056A000FFAD6097E80FF91F0C94FD1E660F771F82
:1056B0006096EEADFFAD6097E60FF71F8081918198
:1056C0001816190614F40C94B21B0C94951E000FB6
:1056D000111F6096EEADFFAD6097E00FF11F808166
:1056E00091811816190614F40C94321A0C94732133
:1056F000000F111F6096EEADFFAD6097E00FF11F38
:10570000808191811816190614F40C94321A44CA37
:10571000660F771F6096EEADFFAD6097E60FF71F3F
:10572000808191811816190614F40C94B21BD9CEFD
:10573000000F111F6096EEADFFAD6097E00FF11FF7
:10574000808191811816190614F40C94321A7ECBBC
:10575000880F991F6096EEADFFAD6097E80FF91FB7
:10576000808191811816190614F40C94B21B25CF70
:10577000EF80F88409851A8517FB109517F91095A5
:1057800012C88AA09BA02CA03DA06E96DFAE6E979B
:105790006D96CFAE6D974B2C5A2C0C94E719EF9267
:1057A000FF920F931F93CF93DF93F8948AEAE82E2A
:1057B00081E0F82EF701008511856481758186816D
:1057C00097810E940B33D62FC72FF701608171811B
:1057D000828193810E940B33B62FA72FE091A00105
:1057E000F091A1019801A8016D2F7C2F8B2F9A2F8A
:1057F00009950E940A017894DF91CF911F910F9132
:10580000FF90EF90089500D000D0CDB7DEB78AB1F9
:105810008F718AB98BB1806E8BB92098289A80914C
:1058200068008560809368008BB385608BBB809136
:105830006B00816080936B0080916D00806E80931F
:105840006D00E0919001F091910109950E94E3159E
:1058500078948090A0019090A101209096013090C2
:10586000970180919201909193019A838983F89492
:105870009091A8018091A901E090A201F090A3016C
:105880006090A4017090A50116141704DCF51E1495
:105890001F04C4F52701440C551CA92EB82EC12C99
:1058A000D12C85011C821B82D8018D919D918D0187
:1058B0000197C1F48091A6019091A7018C9DB00140
:1058C0008D9D700D9C9D700D11249C01AC01EB8190
:1058D000FC812E9FC0012F9F900D3E9F900D1124A3
:1058E000F40109958B819C8101969C838B83E8163A
:1058F000F906D1F69FEFC91AD90AA40CB51C6C148D
:105900007D0479F67894F894A091B201B091B30136
:10591000BC83AB836091AE017091AF018091B00107
:105920009091B1010E940B338B016091AA0170919B
:10593000AB018091AC019091AD010E940B33F62F29
:10594000E72F2B813C81A901B8018F2F9E2FF401F5
:1059500009950E940A017894F1010995E981FA817B
:10596000099585CF1F920F920FB60F9211240F93B6
:105970001F932F933F934F935F936F937F938F93D7
:105980009F93AF93BF93EF93FF93CF93DF9300D099
:1059900000D000D0CDB7DEB718996FC08091BE019E
:1059A0009091BF01A091C001B091C10189839A83F8
:1059B000AB83BC832DEC3CEC4CE45DE3BC01CD013E
:1059C0000E948F3287FD74C02DEC3CEC4CE45DE30B
:1059D00069817A818B819C810E9422328B018E8326
:1059E0009D83DC01CB018093BE019093BF01A09306
:1059F000C001B093C10169831A83AB83BC83698101
:105A00007A818B819C810E94943220E030E040EAD0
:105A100050E469837A838B839C8369817A818B814B
:105A20009C810E9437346093B6017093B7018093D4
:105A3000B8019093B90109831A83BE81BB838D811C
:105A40008C8369817A818B819C810E94A43420E0BF
:105A500030E040EA50E469837A838B839C836981D8
:105A60007A818B819C810E9437346093BA01709354
:105A7000BB018093BC019093BD010F900F900F90DC
:105A80000F900F900F90DF91CF91FF91EF91BF9109
:105A9000AF919F918F917F916F915F914F913F91C6
:105AA0002F911F910F910F900FBE0F901F9018957F
:105AB00021E436E747EC50E469817A818B819C814F
:105AC0000E9423328BCF1F920F920FB60F92112498
:105AD0000F931F932F933F934F935F936F937F93F6
