:100000000C9456000C947E000C947E000C94E90C29
:100010000C947E000C94030E0C947E000C947E00D5
:100020000C947E000C947E000C947E000C947E0058
:100030000C947E000C947E000C947E000C947E0048
:100040000C947E000C947E000C947E000C947E0038
:100050000C947E000C947E000C947E000C947E0028
:100060000C947E000C947E0005A84CCDB2D44EB901
:100070003836A9020C50B9918688083CA6AAAA2A4B
:10008000BE000000803F0664EC1B3C04BC163E3BF7
:10009000E5B93CC93C37C29E5A3D660498083EEA21
:1000A00069AAAA3E000000803F005A0F11241FBE1B
:1000B000CFEFD8E0DEBFCDBF11E0A0E0B1E0EEE4CD
:1000C000FDE202C005900D92A637B107D9F723E0F3
:1000D000A6E7B1E001C01D92AC37B207E1F710E02E
:1000E000C6E5D0E004C02197FE010E944B13C53540
:1000F000D107C9F70E94920B0C94A5160C9400002E
:10010000CF92DF92EF92FF920F931F93CF93DF93E3
:1001100000D000D000D0CDB7DEB78B018E839D8399
:1001200020E030E040E853E469831A838B839C83AA
:1001300069817A818B819C810E9466156B017C01AB
:1001400020E030E0A90169817A818B819C810E9445
:10015000611520E030E040E05FE387FF04C020E06D
:1001600030E040E05FEBC982DA82EB82FC82698199
:100170007A818B819C810E94521369837A838B835D
:100180009C8369817A818B819C810E943A14CB0186
:100190000F900F900F900F900F900F90DF91CF91D5
:1001A0001F910F91FF90EF90DF90CF9008952F92C5
:1001B0003F924F925F926F927F928F929F92AF92F7
:1001C000BF92CF92DF92EF92FF920F931F93CF9344
:1001D000DF93CDB7DEB72C970FB6F894DEBF0FBE16
:1001E000CDBFF89480E091E09C878B8700E010E021
:1001F000E0907301F0907401FA82E982FC82EB8254
:10020000FE82ED82F886EF82FA86E98617012701E1
:100210003701670157014701EB85FC8583818130F8
:1002200049F428E030E048E050E0B80180E090E098
:10023000F7010995EB85FC858481813051F428E034
:1002400030E048E050E0B80188E090E0E981FA81D0
:100250000995EB85FC858581813051F428E030E0FB
:1002600048E050E0B80180E190E0EB81FC81099525
:10027000EB85FC858681813051F428E030E048E050
:1002800050E0B80188E190E0ED81FE810995EB85B1
:10029000FC858781813051F428E030E048E050E06F
:1002A000B80180E290E0EF81F8850995EB85FC8547
:1002B0008085813051F428E030E048E050E0B8011A
:1002C00088E290E0E985FA850995EB85FC858185D2
:1002D000813049F428E030E048E050E0B80180E3A4
:1002E00090E0F1010995EB85FC858285813049F428
:1002F00028E030E048E050E0B80188E390E0F20107
:100300000995EB85FC858385813049F428E030E050
:1003100048E050E0B80180E490E0F3010995EB85F6
:10032000FC858485813049F428E030E048E050E0E5
:10033000B80188E490E0F6010995EB85FC85858598
:10034000813049F428E030E048E050E0B80180E531
:1003500090E0F5010995EB85FC858685813049F4AF
:1003600028E030E048E050E0B80188E590E0F40192
:1003700009958B859C850C969C878B87085F1F4F02
:100380000034110509F048CF78942C960FB6F894F4
:10039000DEBF0FBECDBFDF91CF911F910F91FF90B8
:1003A000EF90DF90CF90BF90AF909F908F907F9015
:1003B0006F905F904F903F902F900895CF93DF9371
:1003C00000D000D0CDB7DEB7481B590B261B370B2A
:1003D000449FC001459F900D900D1124229FA001C4
:1003E000239F500D500D1124840F951F9C01990FD0
:1003F000440B550B29833A834B835C83CA01B901B3
:100400000E94721469837A838B839C8369817A81C9
:100410008B819C810E94E11569837A838B839C8305
:1004200069817A818B819C810E943A14CB010F9063
:100430000F900F900F90DF91CF9108952F923F92E0
:100440004F925F926F927F928F929F92AF92BF92E4
:10045000CF92DF92EF92FF920F931F93CF93DF9390
:10046000CDB7DEB7C154D1090FB6F894DEBF0FBEC9
:10047000CDBF4090760150907701609078017090E8
:10048000790180917C0190917D014C012EE1921ABD
:1004900097FE02C00C94060B49E4841646E09406CD
:1004A0002CF04C0158E4851A54E2950AF894B301F3
:1004B000072C000C880B990B69837A838B839C83B0
:1004C000B82FA72F962F8827B7FF03C00796A11D27
:1004D000B11D53E0B595A795979587955A95D1F796
:1004E000092E000CAA0BBB0B880F991FAA1FBB1F5C
:1004F000880F991FAA1FBB1F880F991FAA1FBB1F18
:10050000892F9A2FAB2FBB27A7FDBA95FC013997EE
:10051000F88FEF8B13012E1A3F0A3A8E298E920123
:10052000052C000C440B550B2D833E834F835887BD
:10053000B42FA32F922F8827B7FF03C00796A11DC2
:10054000B11D13E0B595A795979587951A95D1F7A5
:10055000092E000CAA0BBB0B880F991FAA1FBB1FEB
:10056000880F991FAA1FBB1F880F991FAA1FBB1FA7
:10057000C92EDA2EEB2EFF24E7FCFA945601A601D1
:10058000485F5F4F21965FAF4EAF21971201241A4B
:10059000350A3C8E2B8E69817A818B819C810E94E9
:1005A0007214E62F20E030E040E85BE3E9837A83D1
:1005B0008B839C8369817A818B819C810E946615E3
:1005C00069837A838B839C8369817A818B819C8107
:1005D0000E943A14788B6F876D817E818F81988518
:1005E0000E94721420E030E040E85BE369837A8384
:1005F0008B839C8369817A818B819C810E946615A3
:1006000069837A838B839C8369817A818B819C81C6
:100610000E943A147A8B698B20906B0130906C01A8
:100620003C8A2B8A21962EAC3FAC2197C101330C1A
:10063000AA0BBB0BBA2FA92F982F8827B7FF03C08F
:100640000796A11DB11DE3E0B595A79597958795F0
:10065000EA95D1F7282E312C3E8E2D8E8601005F33
:100660001F4FC801012E000CAA0BBB0BBA2FA92FDC
:10067000982F8827B7FF03C00796A11DB11D63E01F
:10068000B595A795979587956A95D1F7282E312C22
:1006900038A22F8EF6017896CF010F2E000CAA0BF0
:1006A000BB0BBA2FA92F982F8827B7FF03C0079637
:1006B000A11DB11D43E0B595A795979587954A95DE
:1006C000D1F7282E312C3AA229A2B601605E7F4FC5
:1006D000CB01072E000CAA0BBB0BBA2FA92F982F0A
:1006E0008827B7FF03C00796A11DB11D23E0B5956C
:1006F000A795979587952A95D1F7282E312C3EA25C
:100700002DA2A601485D5F4FCA01052E000CAA0B61
:10071000BB0BBA2FA92F982F8827B7FF03C00796C6
:10072000A11DB11D23E0B595A795979587952A95AD
:10073000D1F7282E312C38A62FA29601205D3F4FED
:10074000C901032E000CAA0BBB0BBA2FA92F982F9F
:100750008827B7FF03C00796A11DB11D689412F842
:10076000B595A795979587951694D1F7282E312C96
:100770003CA62BA6C601C8969AAF89AF092E000CDD
:10078000AA0BBB0BBA2FA92F982F8827B7FF03C03E
:100790000796A11DB11D689412F8B595A795979578
:1007A00087951694D1F7282E312C3EA62DA6C6018A
:1007B000805C9F4F98AF8FAB092E000CAA0BBB0B30
:1007C000BA2FA92F982F8827B7FF03C00796A11D1E
:1007D000B11D689412F8B595A795979587951694CD
:1007E000D1F7282E312C3CAA2BAA8CE389876D8661
:1007F0007E864B865C86D501A85BBF4FBCA3ABA3AE
:100800002BAF3CAF4DAF5EAF6DAB7EABE9ABFAABA0
:100810000FA718AB2FAC29A621963FAC21973AA67B
:100820003EC4298C3A8C229E8001239E100D329E5C
:10083000100D1124040D151DC901880F991F880F73
:10084000991F880F991F2F88388C21963FAE2EAEA6
:100850002197E8EFFFEFA101330C660B770B762FA2
:10086000652F542F442777FF04C0495F5F4F6F4FB8
:100870007F4FB3E07595679557954795BA95D1F732
:10088000242F30E0B901660F771F260F371F220F84
:10089000331F220F331FA801012E000C660B770BAC
:1008A000762F652F542F442777FF04C0495F5F4F91
:1008B0006F4F7F4FA3E07595679557954795AA951C
:1008C000D1F7240F311DB901615071096F357105E0
:1008D00038F420503F4FD90113962C91211188C430
:1008E000080F191F21962EAC3FAC21972E0E3F1EEC
:1008F00021963FAE2EAE2197A101330C660B770BEC
:10090000762F652F542F442777FF04C0495F5F4F30
:100910006F4F7F4FB3E07595679557954795BA959B
:10092000D1F7242F30E0B901660F771F260F371F4C
:10093000220F331F220F331FA801012E000C660B5C
:10094000770B762F652F542F442777FF04C0495F1C
:100950005F4F6F4F7F4FA3E075956795579547950C
:10096000AA95D1F7240F311DB901615071096F3576
:10097000710538F420503F4FD90113962C91211165
:1009800037C4080F191F21962EAC3FAC21972E0EAD
:100990003F1E21963FAE2EAE2197A101330C660B70
:1009A000770B762F652F542F442777FF04C0495FBC
:1009B0005F4F6F4F7F4FB3E075956795579547959C
:1009C000BA95D1F7242F30E0B901660F771F260FB3
:1009D000371F220F331F220F331FA801012E000CD7
:1009E000660B770B762F652F542F442749835A8344
:1009F0006B837C8377FF08C0495F5F4F6F4F7F4FEA
:100A000049835A836B837C8349815A816B817C81C2
:100A1000A3E07595679557954795AA95D1F7240F4B
:100A2000311DB901615071096F35710538F42050DD
:100A30003F4FD90113962C912111DAC3080F191FCA
:100A400021962EAC3FAC21972E0E3F1E21963FAE35
:100A50002EAE21979101032E000C440B550B742FE1
:100A6000632F522F442749835A836B837C8377FFFC
:100A700008C0495F5F4F6F4F7F4F49835A836B8335
:100A80007C8329813A814B815C81B3E05595479500
:100A900037952795BA95D1F729833A834B835C83A1
:100AA0004981242F30E0B901660F771F260F371FC9
:100AB000220F331F220F331FA801012E000C660BDB
:100AC000770B762F652F542F442749835A836B83E6
:100AD0007C8377FF08C0495F5F4F6F4F7F4F49832B
:100AE0005A836B837C8349815A816B817C81A3E02B
:100AF0007595679557954795AA95D1F7240F311DA0
:100B0000B901615071096F35710538F420503F4FBC
:100B1000D90113962C9121116BC3080F191F21962F
:100B20002EAC3FAC21972E0E3F1E21963FAE2EAE2F
:100B300021979101032E000C440B550B742F632F4A
:100B4000522F442749835A836B837C8377FF08C0E5
:100B5000495F5F4F6F4F7F4F49835A836B837C831D
:100B600029813A814B815C81B3E055954795379552
:100B70002795BA95D1F729833A834B835C834981C2
:100B8000242F30E0B901660F771F260F371F220F81
:100B9000331F220F331FA801012E000C660B770BA9
:100BA000762F652F542F442749835A836B837C8388
:100BB00077FF08C0495F5F4F6F4F7F4F49835A836C
:100BC0006B837C8349815A816B817C81A3E075951D
:100BD000679557954795AA95D1F7240F311DB9010F
:100BE000615071096F35710538F420503F4FD901BC
:100BF00013962C912111FCC2080F191F21962EACBF
:100C00003FAC21972E0E3F1E21963FAE2EAE219770
:100C10009101032E000C440B550B742F632F522FA0
:100C2000442749835A836B837C8377FF08C0495FDD
:100C30005F4F6F4F7F4F49835A836B837C8329813A
:100C40003A814B815C81B3E055954795379527955F
:100C5000BA95D1F729833A834B835C834981242F4A
:100C600030E0B901660F771F260F371F220F331FA1
:100C7000220F331FA801012E000C660B770B762F75
:100C8000652F542F442749835A836B837C8377FFD6
:100C900008C0495F5F4F6F4F7F4F49835A836B8313
:100CA0007C8349815A816B817C81A3E0759567952E
:100CB00057954795AA95D1F7240F311DB901615079
:100CC00071096F35710538F420503F4FD9011396E3
:100CD0002C9121118DC2080F191F21962EAC3FAC0B
:100CE00021972E0E3F1E21963FAE2EAE21979101E9
:100CF000032E000C440B550B742F632F522F4427E7
:100D000049835A836B837C8377FF08C0495F5F4FB9
:100D10006F4F7F4F49835A836B837C8329813A814C
:100D20004B815C81B3E05595479537952795BA95EA
:100D3000D1F729833A834B835C834981242F30E0A8
:100D4000B901660F771F260F371F220F331F220F9F
:100D5000331FA801012E000C660B770B762F652F31
:100D6000542F442749835A836B837C8377FF08C0C1
:100D7000495F5F4F6F4F7F4F49835A836B837C83FB
:100D800049815A816B817C81A3E075956795579560
:100D90004795AA95D1F7240F311DB901615071090A
:100DA0006F35710538F420503F4FD90113962C91BF
:100DB00021111EC2080F191F21962EAC3FAC21979E
:100DC0002E0E3F1E21963FAE2EAE2197C101330C51
:100DD000AA0BBB0BBA2FA92F982F8827B7FF03C0E8
:100DE0000796A11DB11DF3E0B595A7959795879539
:100DF000FA95D1F790E09C01220F331F820F931FC9
:100E0000880F991F880F991FA801012E000C660BEF
:100E1000770B762F652F542F442777FF04C0495F47
:100E20005F4F6F4F7F4FE3E07595679557954795F7
:100E3000EA95D1F7840F911D9C01215031092F357E
:100E4000310538F480509F4FDC0113968C9181114D
:100E5000CFC18114910409F4E0C321967FAE6EAE38
:100E60002197820130E4232E42E4342E34E28316AB
:100E700033E0930609F4F8C120E030E040E853EC99
:100E8000E982FA82DB82CC8269817A818B819C81C2
:100E90000E946615D501FD81EA852B2F3A2D4F2F33
:100EA0005E2F69837A838B839C8369817A818B81AE
:100EB0009C810E94521369837A838B839C8369810E
:100EC0007A818B819C810E943A14EB8CFC8CE69E8B
:100ED0006001E79ED00CF69ED00C1124C60CD71CE6
:100EE00020E030E0261B370BA901440F551F440FAB
:100EF000551F440F551FC6010D2C000CAA0BBB0B30
:100F0000BA2FA92F982F8827B7FF03C00796A11DD6
:100F1000B11DF3E0B595A79597958795FA95D1F70B
:100F200090E09C01220F331F820F931F880F991F9F
:100F3000880F991FED8CFE8C8E0D9F1D9C012150FA
:100F400031092F35310508F0D4C180509F4FDC01A5
:100F500013968C91882309F4CCC1A9A4BAA4950155
:100F600024193509229FC001239F900D900D112453
:100F7000960126193709229FA001239F500D500D7D
:100F80001124840F951F9C01990F440B550B298345
:100F90003A834B835C83CA01B9010E94721469834E
:100FA0007A838B839C8369817A818B819C810E9467
:100FB000E11569837A838B839C8369817A818B8134
:100FC0009C810E943A14CB0196017501821593050C
:100FD0000CF056C1A901330F660B770B49835A8376
:100FE0006B837C83CB01BA010E94721420E030E055
:100FF00040E85BE369837A838B839C8369817A8190
:101000008B819C810E94661569837A838B839C8384
:1010100069817A818B819C810E943A146A877D83E1
:10102000B701FF0C880B990B69837A838B839C83B0
:101030000E94721420E030E040E85BE369837A8329
:101040008B839C8369817A818B819C810E94661548
:1010500069837A838B839C8369817A818B819C816C
:101060000E943A142A853D81AB016F857889898970
:101070009A89EB89FC890995C4010C9697FD0CC1EE
:10108000893426E092070CF4D3C13CE3831A36E09E
:10109000930A498541504987442309F406C19401C4
:1010A000092C000C440B550B29833A834B835C833A
:1010B000CA01B9010E94721469837A838B839C836D
:1010C00069817A818B819C810E9421167B01D82EB7
:1010D000C92E9B01482F592F60E070E080E893EC07
:1010E0000E94C8138B0122968FAF22979FAF20E0FA
:1010F00030E0A901E982FA82DB82CC8269817A81BF
:101100008B819C810E94BE13B12CA12C1D821816CC
:101110000CF4E6C03FE33A87832F980122964FAD47
:1011200022975FADB5019D817983AA829B838C83D1
:1011300069817A818B819C810E94521369837A83B1
:101140008B839C8369817A818B819C810E943A1474
:101150009B01AB0185E2881683E098060CF061CB19
:1011600024E2821623E0920609F499C12D883E8874
:10117000C101330CAA0BBB0B880F991FAA1FBB1F01
:10118000880F991FAA1FBB1F880F991FAA1FBB1F7B
:10119000892F9A2FAB2FBB27A7FDBA959E8B8D8BDE
:1011A0008114910409F4A0C09C01285F3F4F21964F
:1011B0003FAF2EAF2197930121962EAC3FAC2197E4
:1011C00022193309249F8001259F100D349F100D93
:1011D0001124040D151D80E090E0841B950B880FF1
:1011E000991F880F991F880F991FE8E0F0E033CB13
:1011F00021962EAD3FAD219726193709229FC001B8
:10120000239F900D900D1124980124193509229FD8
:10121000A001239F500D500D1124840F951F9C0198
:10122000990F440B550B29833A834B835C83CA0186
:10123000B9010E94721469837A838B839C836981CC
:101240007A818B819C810E94E11569837A838B83EB
:101250009C8369817A818B819C810E943A141B0155
:101260008114910409F002CE2D853E85EB84FC8427
:101270006301570180E492E4821593050CF4AACE31
:1012800096017501281639060CF0A4CE21962EADD4
:101290003FAD219778019ECEFCEA8F1AF9EF9F0AA5
:1012A0004985415049874111FACE7894CF5BDF4F91
:1012B0000FB6F894DEBF0FBECDBFDF91CF911F9167
:1012C0000F91FF90EF90DF90CF90BF90AF909F90E5
:1012D0008F907F906F905F904F903F902F900895E8
:1012E0004FEB4A87842F19CF2D853E85EB84FC84F4
:1012F00071CEC40ED51EC6010D2C000CAA0BBB0B63
:10130000BA2FA92F982F8827B7FF03C00796A11DD2
:10131000B11D33E0B595A795979587953A95D1F787
:1013200090E09C01220F331F820F931F880F991F9B
:10133000880F991FEF8CF8A08E0D9F1D9C012150E6
:1013400031092F35310550F480509F4FDC01139641
:101350008C91882319F0AFA4B8A801CEC40ED51E75
:10136000C6010D2C000CAA0BBB0BBA2FA92F982F6E
:101370008827B7FF03C00796A11DB11DF3E0B595FF
:10138000A79597958795FA95D1F790E09C01220F44
:10139000331F820F931F880F991F880F991FE9A091
:1013A000FAA08E0D9F1D9C01215031092F3531056A
:1013B00050F480509F4FDC0113968C91882319F0D4
:1013C000A9A8BAA8CCCDC40ED51EC6010D2C000C00
:1013D000AA0BBB0BBA2FA92F982F8827B7FF03C0E2
:1013E0000796A11DB11D33E0B595A79597958795F3
:1013F0003A95D1F790E09C01220F331F820F931F83
:10140000880F991F880F991FEDA0FEA08E0D9F1DBC
:101410009C01215031092F35310560F480509F4FD8
:10142000DC0113968C91882329F0ADA8BEA897CD36
:101430004C012FCEC40ED51EC6010D2C000CAA0BDC
:10144000BB0BBA2FA92F982F8827B7FF03C0079689
:10145000A11DB11DF3E0B595A79597958795FA95D0
:10146000D1F790E09C01220F331F820F931F880F4A
:10147000991F880F991FEFA0F8A48E0D9F1D9C0146
:10148000215031092F353105D0F480509F4FDC01B8
:1014900013968C91882399F0ADACBEAC60CD2196AB
:1014A0007FAE6EAE219782012D853E85EB84FC8454
:1014B0006301570180E4282E92E4392EDBCEC40E5E
:1014C000D51EC6010D2C000CAA0BBB0BBA2FA92FE1
:1014D000982F8827B7FF03C00796A11DB11D33E0E1
:1014E000B595A795979587953A95D1F790E09C018A
:1014F000220F331F820F931F880F991F880F991F88
:10150000EBA4FCA48E0D9F1D9C01215031092F35A9
:10151000310550F480509F4FDC0113968C91882345
:1015200019F0ABACBCAC1BCDC40ED51EC6010D2C46
:10153000000CAA0BBB0BBA2FA92F982F8827B7FF37
:1015400003C00796A11DB11DF3E0B595A79597952A
:101550008795FA95D1F790E09C01220F331F820FF7
:10156000931F880F991F880F991FEDA4FEA48E0D5D
:101570009F1D9C01215031092F35310550F48050B9
:101580009F4FDC0113968C91882319F0A9ACBAAC5B
:10159000E6CCC40ED51EC6010D2C000CAA0BBB0B4D
:1015A000BA2FA92F982F8827B7FF03C00796A11D30
:1015B000B11D23E0B595A795979587952A95D1F705
:1015C00090E09C01220F331F820F931F880F991FF9
:1015D000880F991FEBA8FCA88E0D9F1D9C01215020
:1015E00031092F35310548F480509F4FDC011396A7
:1015F0008C91AFA8B8AC8111B2CCABA0BCA0C40E8A
:10160000D51E2D853E85EB84FC8434CE4C0138EB11
:10161000831A37E1930A0C94560293017201DACCD3
:10162000EF92FF920F931F93CF93DF9300D000D0E0
:1016300000D0CDB7DEB7F89486E7E82E81E0F82E2B
:10164000F701F4812F2F30E03E832D83F701828153
:1016500093819C01990F440B550B29833A834B834B
:101660005C83CA01B9010E94721420E030E040E8B6
:101670005BE369837A838B839C8369817A818B8125
:101680009C810E94661569837A838B839C83698120
:101690007A818B819C810E943A148B01F7018081B1
:1016A00091819C01990F440B550B29833A834B83FD
:1016B0005C83CA01B9010E94721420E030E040E866
:1016C0005BE369837A838B839C8369817A818B81D5
:1016D0009C810E94661569837A838B839C836981D0
:1016E0007A818B819C810E943A14B62FA72FE091BA
:1016F0007301F09174012D813E81A901B8018B2FF6
:101700009A2F09950E941E0278940F900F900F90C7
:101710000F900F900F90DF91CF911F910F91FF903D
:10172000EF90089500D000D000D0CDB7DEB78AB1D9
:101730008F718AB98BB1806E8BB92098289A80916D
:1017400068008560809368008BB385608BBB809157
:101750006B00816080936B0080916D00806E809340
:101760006D00E0916301F091640109957894E09037
:101770007301F0907401A0906901B0906A01C0906B
:101780006501D0906601F89420E031E03A83298326
:1017900000E010E0E981FA818381813049F428E09A
:1017A00030E048E050E0B80180E090E0F7010995B2
:1017B000E981FA818481813049F428E030E048E011
:1017C00050E0B80188E090E0F7010995E981FA81DD
:1017D0008581813049F428E030E048E050E0B801EC
:1017E00080E190E0F7010995E981FA8186818130F5
:1017F00049F428E030E048E050E0B80188E190E0AA
:10180000F7010995E981FA818781813049F428E05F
:1018100030E048E050E0B80180E290E0F70109953F
:10182000E981FA818085813049F428E030E048E0A0
:1018300050E0B80188E290E0F7010995E981FA816A
:101840008185813049F428E030E048E050E0B8017B
:1018500080E390E0F7010995E981FA818285813082
:1018600049F428E030E048E050E0B80188E390E037
:10187000F7010995E981FA818385813049F428E0EF
:1018800030E048E050E0B80180E490E0F7010995CD
:10189000E981FA818485813049F428E030E048E02C
:1018A00050E0B80188E490E0F7010995E981FA81F8
:1018B0008585813049F428E030E048E050E0B80107
:1018C00080E590E0F7010995E981FA81868581300C
:1018D00049F428E030E048E050E0B80188E590E0C5
:1018E000F701099529813A81245F3F4F3A83298383
:1018F000085F1F4F0034110509F04CCF7894F8941D
:1019000030917A01432F50E05E834D8380917801BE
:10191000909179019C01990F440B550B29833A83CF
:101920004B835C83CA01B9010E94721420E030E04D
:1019300040E85BE369837A838B839C8369817A8146
:101940008B819C810E94661569837A838B839C833B
:1019500069817A818B819C810E943A148B018091EC
:101960007601909177019C01990F440B550B2983C7
:101970003A834B835C83CA01B9010E94721420E050
:1019800030E040E85BE369837A838B839C836981E1
:101990007A818B819C810E94661569837A838B830F
:1019A0009C8369817A818B819C810E943A14F62FF5
:1019B000E72F2D813E81A901B8018F2F9E2FF701BE
:1019C00009950E941E027894F5010995F601099582
:1019D000DACE1F920F920FB60F9211248F929F9220
:1019E000AF92BF92CF92DF92EF92FF920F931F932D
:1019F0002F933F934F935F936F937F938F939F9317
:101A0000AF93BF93EF93FF93CF93DF9300D000D0BA
:101A100000D0CDB7DEB71899C0C020917C013091BD
:101A20007D01C9010D9797FDE0C090937D018093E2
:101A30007C019C01990F440B550B29833A834B83FE
:101A40005C83CA01B9010E9472148B018E839D834D
:101A500069831A838B839C8369817A818B819C81C2
:101A60000E94C31320E030E040EA50E469837A83A7
:101A70008B839C8369817A818B819C810E9466150E
:101A80006B017C0120E030E040E853E46983DA82B6
:101A90008B83FC8269817A818B819C810E9466158F
:101AA0004B015C0120E030E0A90169817A818B81E2
:101AB0009C810E94611520E030E040E05FE387FDFB
:101AC0008FC089829A82AB82BC8269817A818B8144
:101AD0009C810E94521369837A838B839C836981E2
:101AE0007A818B819C810E943A1470937F0160936C
:101AF0007E0109831A833E813B834D814C8369813A
:101B00007A818B819C810E94D31520E030E040EAED
:101B100050E469837A838B839C8369817A818B818A
:101B20009C810E9466158B018E839D8320E030E0AE
:101B300040E853E469831A838B839C8369817A81AB
:101B40008B819C810E9466156B017C0120E030E056
:101B5000A90169817A818B819C810E94611587FD31
:101B600047C020E030E040E05FE329833A834B83C5
:101B70005C83CA01B9019601A7010E9452136983CF
:101B80007A838B839C8369817A818B819C810E947B
:101B90003A1470938101609380010F900F900F9021
:101BA0000F900F900F90DF91CF91FF91EF91BF9128
:101BB000AF919F918F917F916F915F914F913F91E5
:101BC0002F911F910F91FF90EF90DF90CF90BF90DA
:101BD000AF909F908F900F900FBE0F901F90189511
:101BE00020E030E040E05FEB6CCF885B994F1DCF89
:101BF00080E090E0A0E0BFEB89839A83AB83BC8355
:101C0000BC01CD01B8CF1F920F920FB60F921124D5
:101C10008F929F92AF92BF92CF92DF92EF92FF92FC
:101C20000F931F932F933F934F935F936F937F93E4
:101C30008F939F93AF93BF93EF93FF93CF93DF93D4
:101C400000D000D000D0CDB7DEB74D991CC0809138
:101C500076019091770120917E0130917F01821B66
:101C6000930B909377018093760180917801909106
:101C700079012091800130918101821B930B909317
:101C80007901809378014E991CC0809176019091E2
:101C9000770120917E0130917F01820F931F9093F5
:101CA000770180937601809178019091790120915C
:101CB000800130918101820F931F9093790180936D
:101CC00078014F99C4C020917C0130917D01C901F8
:101CD0000D96893446E0940714F08854964090930A
:101CE0007D0180937C019C01990F440B550B298346
:101CF0003A834B835C83CA01B9010E9472148B0141
:101D00008E839D8369831A838B839C8369817A8107
:101D10008B819C810E94C31320E030E040EA50E4B4
:101D200069837A838B839C8369817A818B819C818F
:101D30000E9466156B017C0120E030E040E853E42E
:101D40006983DA828B83FC8269817A818B819C81B1
:101D50000E9466154B015C0120E030E0A901698119
:101D60007A818B819C810E94611520E030E040E007
:101D70005FE387FD8FC089829A82AB82BC826981D2
:101D80007A818B819C810E94521369837A838B8331
:101D90009C8369817A818B819C810E943A14709323
:101DA0007F0160937E0109831A833E813B834D81CD
:101DB0004C8369817A818B819C810E94D31520E0BC
:101DC00030E040EA50E469837A838B839C836981A5
:101DD0007A818B819C810E9466158B018E839D8305
:101DE00020E030E040E853E469831A838B839C83CE
:101DF00069817A818B819C810E9466156B017C01CF
:101E000020E030E0A90169817A818B819C810E9468
:101E1000611587FD44C020E030E040E05FE32983A6
:101E20003A834B835C83CA01B9019601A7010E94E2
:101E3000521369837A838B839C8369817A818B8136
:101E40009C810E943A1470938101609380010F90ED
:101E50000F900F900F900F900F90DF91CF91FF9107
:101E6000EF91BF91AF919F918F917F916F915F9112
:101E70004F913F912F911F910F91FF90EF90DF9025
:101E8000CF90BF90AF909F908F900F900FBE0F900C
:101E90001F90189520E030E040E05FEB6CCF80E0D1
:101EA00090E0A0E0BFEB89839A83AB83BC83BC0145
:101EB000CD01BBCFEF92FF920F931F93CF93DF9390
:101EC00000D000D0CDB7DEB780E09DE0A6E7B1E05E
:101ED0008D939C93909379018093780182E0809315
:101EE0007A0181E080937B0160E070E082E893E416
:101EF0000E94800090937D0180937C01092E000C4C
:101F0000AA0BBB0B89839A83AB83BC83BC01CD0135
:101F10000E9472147B018C016983FA828B831C837B
:101F200069817A818B819C810E94C31320E030E01B
:101F300040EA50E469837A838B839C8369817A8148
:101F40008B819C810E94661569837A838B839C8335
:101F500069817A818B819C810E94800090937F01AE
:101F600080937E01E982FA820B831C8369817A81E6
:101F70008B819C810E94D31520E030E040EA50E440
:101F800069837A838B839C8369817A818B819C812D
:101F90000E94661569837A838B839C8369817A8129
:101FA0008B819C810E9480009093810180938001AD
:101FB0000F900F900F900F90DF91CF911F910F9185
:101FC000FF90EF900895962F969596959695E82F09
:101FD000F0E084E5989FE00DF11D1124EE57FE4FCF
:101FE0002081677081E090E001C0880F6A95EAF770
:101FF000442319F0282B20830895809528232083DB
:10200000089580937A0360937B0308958F929F9243
:10201000AF92BF92CF92DF92EF92FF920F931F93F6
:10202000CF93DF93FC01EB01DA01A9018901061BC3
:10203000170B680117FF04C0CC24DD24C01AD10A95
:102040009D012E1B3F0B2C153D050CF05BC0B9010B
:1020500037FD85C09A2F8B2FDA01492F582F9E2FDD
:102060008F2FFE01C92FD82FC80195958795C417CA
:10207000D5070CF443C0EE24EA94FE2CAE17BF073C
:1020800084F12C153D050CF440C0AD014F5F5F4F4E
:10209000B4E5BB2ECC24C394D12CDF01BB272C2F5D
:1020A000269526952695B29EA00DB11D1124AE57FA
:1020B000BE4F2C2F2770460102C0880C991C2A9510
:1020C000E2F794013C91322B3C93861B970B97FFD0
:1020D00004C0CE0DDF1D800F911F3196E417F50768
:1020E000E1F6DF91CF911F910F91FF90EF90DF907C
:1020F000CF90BF90AF909F908F900895EE24E3947F
:10210000F12CBCCFB6018901AFCF9D012F5F3F4FAE
:1021100054E5CC24C394D12CDE01BB274E2F469529
:1021200046954695549FA00DB11D1124AE57BE4F44
:102130004E2F4770560101C0AA0C4A95EAF74C9100
:102140004A294C93861B970B97FF04C0CE0DDF1DC9
:10215000800F911F31962E173F07F1F6C2CF6627E9
:102160007727621B730B76CF0895CF92DF92EF92A1
:10217000FF920F931F93CF93DF937C01EB018A01B2
:10218000C9016B01C20ED31E1816190664F40E0D98
:102190001F1D9E01A801BE01C7010E9406102196C5
:1021A000CC15DD05B4F3DF91CF911F910F91FF9016
:1021B000EF90DF90CF900895603318F5843508F5DF
:1021C000282F30E0F901E40FF11D3097D1F0E4350C
:1021D000F10514F044E5481B469550E0669570E023
:1021E000CB01880F991F880F991F860F971F880FA3
:1021F000991F820F931F61E070E08E579E4F0C94E1
:102200009E1608952C982B982A9A299A29982A98EC
:10221000299A29982A98299A29982A98299A2998AE
:102220002A98299A29982A98299A29982A98299A9D
:1022300029982A98299A29982C9A2C982B982A9888
:10224000299A29982A9A299A29982A98299A29987C
:102250002A98299A29982A98299A29982A98299A6D
:1022600029982A98299A29982A98299A29982C9A5B
:1022700010927A0310927B03E2E8F1E088EF91E09C
:10228000DF019C011D9221503040E1F708952C9808
:102290002B982A9A299A29982A98299A29982A982B
:1022A000299A29982A98299A29982A98299A29981E
:1022B0002A98299A29982A98299A29982A98299A0D
:1022C00029982C9A2C982B982A98299A29982A9AF6
:1022D000299A29982A98299A29982A98299A2998EE
:1022E0002A98299A29982A98299A29982A98299ADD
:1022F00029982A98299A29982C9AE2E8F1E02AE765
:1023000033E081912C982B9A87FD2BC02A98299A2B
:10231000299886FD2BC02A98299A299885FD2BC0DB
:102320002A98299A299884FD2BC02A98299A2998B5
:1023300083FD2BC02A98299A299882FD2BC02A98C0
:10234000299A299881FD2BC02A98299A299880FDDD
:102350002BC02A98299A29982C9A2E173F0789F67C
:1023600008952A9A299A299886FFD5CF2A9A299AD8
:10237000299885FFD5CF2A9A299A299884FFD5CF05
:102380002A9A299A299883FFD5CF2A9A299A299897
:1023900082FFD5CF2A9A299A299881FFD5CF2A9AE8
:1023A000299A299880FFD5CF2A9A299A29982C9A78
:1023B0002E173F0709F0A5CF0895249A259A239A4E
:1023C000229A219A2D9A2C9A80E593EC0197F1F7A5
:1023D0002D988CEB92E024EF31E0F9013197F1F781
:1023E00001970097D1F72D9A2C982C982B982A9822
:1023F000299A29982A98299A29982A9A299A2998CB
:102400002A98299A29982A98299A29982A98299ABB
:1024100029982A98299A29982A9A299A29982C9AA7
:102420002C982B982A98299A29982A98299A299899
:102430002A98299A29982A9A299A29982A98299A89
:1024400029982A98299A29982A9A299A29982A9A79
:10245000299A29982C9A2C982B982A98299A299865
:102460002A98299A29982A98299A29982A98299A5B
:1024700029982A98299A29982A9A299A29982A9A49
:10248000299A29982A98299A29982C9A2C982B9835
:102490002A9A299A29982A9A299A29982A98299A27
:1024A00029982A98299A29982A98299A29982A981D
:1024B000299A29982A9A299A29982A98299A29980A
:1024C0002C9A2C982B982A98299A29982A98299AF4
:1024D00029982A9A299A29982A98299A29982A98EB
:1024E000299A29982A98299A29982A98299A2998DC
:1024F0002A98299A29982C9A2C982B982A98299AC4
:1025000029982A98299A29982A98299A29982A98BC
:10251000299A29982A9A299A29982A98299A2998A9
:102520002A98299A29982A9A299A29982C9A2C9893
:102530002B982A9A299A29982A98299A29982A9888
:10254000299A29982A98299A29982A98299A29987B
:102550002A98299A29982A98299A29982A98299A6A
:1025600029982C9A2C982B982A98299A29982A9A53
:10257000299A29982A98299A29982A98299A29984B
:102580002A98299A29982A98299A29982A98299A3A
:1025900029982A98299A29982C9A88EF91E02C98C2
:1025A0002B9A2A98299A29982A98299A29982A9818
:1025B000299A29982A98299A29982A98299A29980B
:1025C0002A98299A29982A98299A29982A98299AFA
:1025D00029982C9A0197009711F72C982B982A98F4
:1025E000299A29982A98299A29982A98299A2998DB
:1025F0002A98299A29982A9A299A29982A98299AC8
:1026000029982A98299A29982A98299A29982C9AB7
:102610002C982B982A98299A29982A98299A2998A7
:102620002A98299A29982A98299A29982A9A299A97
:1026300029982A9A299A29982A98299A29982A9889
:10264000299A29982C9A0895882301F180E290E034
:102650002C982B982A98299A29982A98299A299867
:102660002A9A299A29982A98299A29982A98299A57
:102670002998809771F42A98299A29982A98299A52
:1026800029982A98299A29982C9A089584E290E00A
:10269000DFCF2A9AF1CFEE0FFF1F0590F491E02DC6
:1026A00009945058BB27AA270E9469130C9413154C
:1026B0000E94DA1438F00E94E11420F039F49F3FB0
:1026C00019F426F40C94D7140EF4E095E7FB0C945F
:1026D000D114E92F0E94381558F3BA17620773070F
:1026E0008407950720F079F4A6F50C945A150EF49A
:1026F000E0950B2EBA2FA02D0B01B90190010C0112
:10270000CA01A0011124FF27591B99F0593F50F429
:10271000503E68F11A16F040A22F232F342F442781
:10272000585FF3CF469537952795A795F040539579
:10273000C9F77EF41F16BA0B620B730B840BBAF049
:102740009150A1F0FF0FBB1F661F771F881FC2F7B4
:102750000EC0BA0F621F731F841F48F487957795C8
:102760006795B795F7959E3F08F0B0CF9395880F82
:1027700008F09927EE0F9795879508950E94AD145C
:1027800008F481E008950E94EA14E3950C9424155E
:102790000E94DC130C9413150E94E11458F00E945F
:1027A000DA1440F029F45F3F29F00C94D114511150
:1027B0000C945B150C94D7140E94381568F3992378
:1027C000B1F3552391F3951B550BBB27AA2762172D
:1027D0007307840738F09F5F5F4F220F331F441F3A
:1027E000AA1FA9F335D00E2E3AF0E0E832D091506E
:1027F0005040E695001CCAF72BD0FE2F29D0660F5B
:10280000771F881FBB1F261737074807AB07B0E89D
:1028100009F0BB0B802DBF01FF2793585F4F3AF0A3
:102820009E3F510578F00C94D1140C945B155F3FDA
:10283000E4F3983ED4F3869577956795B795F79529
:102840009F5FC9F7880F911D9695879597F9089511
:10285000E1E0660F771F881FBB1F621773078407AD
:10286000BA0720F0621B730B840BBA0BEE1F88F7BC
:10287000E09508950E9441146894B1110C945B1581
:1028800008950E94401588F09F5798F0B92F992716
:10289000B751B0F0E1F0660F771F881F991F1AF04B
:1028A000BA95C9F714C0B13091F00E945A15B1E041
:1028B00008950C945A15672F782F8827B85F39F040
:1028C000B93FCCF3869577956795B395D9F73EF4E4
:1028D00090958095709561957F4F8F4F9F4F08958C
:1028E000E89409C097FB3EF49095809570956195AA
:1028F0007F4F8F4F9F4F9923A9F0F92F96E9BB2760
:102900009395F695879577956795B795F111F8CFDB
:10291000FAF4BB0F11F460FF1BC06F5F7F4F8F4F46
:102920009F4F16C0882311F096E911C0772321F03C
:102930009EE8872F762F05C0662371F096E8862FD4
:1029400070E060E02AF09A95660F771F881FDAF72B
:10295000880F9695879597F90895990F0008550F58
:10296000AA0BE0E8FEEF16161706E807F907C0F015
:1029700012161306E407F50798F0621B730B840B1D
:10298000950B39F40A2661F0232B242B252B21F4F7
:1029900008950A2609F4A140A6958FEF811D811D97
:1029A000089597F99F6780E870E060E008959FEFD1
:1029B00080EC089500240A941616170618060906D6
:1029C000089500240A9412161306140605060895A5
:1029D0000C94D7140E944015D8F3E894E0E0BB278C
:1029E0009F57F0F02AED3FE049EC06C0EE0FBB0F19
:1029F000661F771F881F28F0B23A620773078407A3
:102A000028F0B25A620B730B840BE3959A9572F718
:102A1000803830F49A95BB0F661F771F881FD2F756
:102A200090480C944816092E0394000C11F4882346
:102A300052F0BB0F40F4BF2B11F460FF04C06F5F76
:102A40007F4F8F4F9F4F0895EF93E0FF07C0A2EA9B
:102A50002AED3FE049EC5FEB0E9469130E941315D9
:102A60000F90039401FC9058E8E6F0E00C945B169C
:102A700057FD9058440F551F59F05F3F71F047952F
:102A8000880F97FB991F61F09F3F79F08795089514
:102A9000121613061406551FF2CF4695F1DF08C033
:102AA000161617061806991FF1CF86957105610550
:102AB00008940895E894BB2766277727CB0197F9F8
:102AC00008950E94AD1408F48FEF08950E947915BF
:102AD0000C9413150E94DA1438F00E94E11420F0CF
:102AE000952311F00C94D1140C94D71411240C9448
:102AF0005B150E94381570F3959FC1F3950F50E058
:102B0000551F629FF001729FBB27F00DB11D639F9F
:102B1000AA27F00DB11DAA1F649F6627B00DA11D45
:102B2000661F829F2227B00DA11D621F739FB00DEB
:102B3000A11D621F839FA00D611D221F749F33275B
:102B4000A00D611D231F849F600D211D822F762FF4
:102B50006A2F11249F5750409AF0F1F088234AF0D1
:102B6000EE0FFF1FBB1F661F771F881F915050403D
:102B7000A9F79E3F510580F00C94D1140C945B157D
:102B80005F3FE4F3983ED4F3869577956795B795C4
:102B9000F795E7959F5FC1F7FE2B880F911D9695DE
:102BA000879597F908959F930E94EA140F9007FC68
:102BB000EE5F0C94241519F416F40C94D7140C94AD
:102BC00046160E944015B8F39923C9F3B6F39F57F0
:102BD000550B87FF0E9454160024A0E640EA90019E
:102BE00080585695979528F4805C660F771F881F4C
:102BF00020F026173707480730F4621B730B840B4D
:102C0000202931294A2BA695179407942025312590
:102C10004A2758F7660F771F881F20F026173707B7
:102C2000480730F4620B730B840B200D311D411DDE
:102C3000A09581F7B901842F9158880F96958795B3
:102C40000895DF93D92F0E94EA14E695D7952AEDCF
:102C50003FE049E45FE3B33A6207730784079507EF
:102C6000D7953AF0A2EA49EC90680E9469130E9455
:102C70001315E6E8F0E00E945B16DD0F13F00E94EA
:102C80006F16DD0F0BF49058DF9108959F3F31F0E0
:102C9000915020F4879577956795B795880F911D8A
:102CA0009695879597F9089591505040660F771F34
:102CB000881FD2F708959F938F937F936F93FF930D
:102CC000EF939B01AC010E946615EF91FF910E946A
:102CD00077162F913F914F915F910C9466159B0150
:102CE000AC0160E070E080E89FE30C94C813DF93D0
:102CF000CF931F930F93FF92EF92DF927B018C0192
:102D0000689406C0DA2EEF010E947915FE01E8945E
:102D1000A5912591359145915591A6F3EF010E941A
:102D20006913FE019701A801DA9469F7DF90EF902B
:102D3000FF900F911F91CF91DF910895DC0101C0A9
:0E2D40006D9341505040E0F70895F894FFCF96
:102D4E000C0808010101010101010101010101014C
:102D5E000000000001000000000101010000000061
:102D6E00000000000101010100000001000001004F
:102D7E00000101010000000000000000010101013E
:102D8E00010101010101010101010100000000002A
:102D9E000000000000000000000000000000000025
:102DAE00000000DD110211011047110610DC10B4F5
:062DBE0010E30FB5100048
:00000001FF
