:020000041000EA
:1000000000B5324B212058609868022188439860DF
:10001000D860186158612E4B002199600221596106
:100020000121F02299502B49196001219960352056
:1000300000F044F80222904214D00621196600F024
:1000400034F8196E01211966002018661A6600F04E
:100050002CF8196E196E196E052000F02FF8012189
:100060000842F9D1002199601B49196000215960AB
:100070001A491B48016001219960EB211966A021F2
:10008000196600F012F800219960164914480160C1
:100090000121996001BC002800D000471248134993
:1000A000086003C880F30888084703B5996A0420EC
:1000B0000142FBD001200142F8D103BD02B5186610
:1000C0001866FFF7F2FF186E186E02BD00000240BE
:1000D000000000180000070000035F00212200005C
:1000E000F4000018222000A00001001008ED00E03C
:1000F00000000000000000000000000074B24E7A12
:1001000000200420F7010010C3010010C5010010F9
:10011000C1010010C1010010C1010010C101001097
:10012000C1010010C1010010C1010010C701001081
:10013000C1010010C1010010C9010010CB01001065
:10014000CD010010CD010010CD010010CD01001037
:10015000CD010010CD010010CD010010CD01001027
:10016000CD010010CD010010CD010010CD01001017
:10017000CD010010CD010010CD010010CD01001007
:10018000CD010010CD010010CD010010CD010010F7
:10019000CD010010CD010010CD010010CD010010E7
:1001A000CD010010CD010010CD010010CD010010D7
:1001B000CD010010CD010010CD010010CD010010C7
:1001C00000BE00BE00BE00BE00BE00BEEFF3058054
:1001D000103800BEF2EB887138BA00105CBA00101B
:1001E0003402001090A31AE700201F49086006C8D7
:1001F00081F3088810471D48006800282FD10DA4FE
:100200000ECC002902D000F012F8F9E71849194A7B
:10021000002000E001C19142FCD1174988471749ED
:1002200088471749884700BEFDE701C901C29A42C5
:10023000FBD370475CBA0010C0000020B80E00204D
:1002400054C80010000004200000042054C800100E
:10025000001004200010042000000000704709482E
:1002600004F054FD0047000008ED00E0000000D05D
:10027000B80E00200C3E0020293A00102D1200106C
:10028000E93900105756000006005250ABB36053D6
:10029000C8B2001006005250861C0302D0B20010F3
:1002A000060052505422A29DDCB2001005005250AC
:1002B000DE65F46854C80010F8B5C046044B10B5AC
:1002C000002B03D00349044800E000BF10BDC04626
:1002D00000000000703B0020F0A10010012202216C
:1002E000D0B5184B184C2360184B22616360A36093
:1002F000E069E16006F09CFE06000F0005F0C0F822
:100300000022134B04F0CDFF05F098F83900031CD0
:100310003000636105F0CAF800220D4B04F0C1FF04
:1003200005F08CF80F220B490A261427E1610821F9
:10033000094BA0611A61094A1E605F60DA6099602A
:10034000D0BDC0460000F041903B0020000070414D
:10035000000014400000B442C00F0020200B002019
:10036000F0B5DE464E4645465746E0B591B006F03C
:1003700025FEDB4BDB4C9A680C9393461A685E684B
:100380000B92DA6803009C460F9262680A90C00FD5
:1003900060449146A2684010039206F0EDFD011CF6
:1003A000E06906F07CFD0021804606F0D1FD0028C2
:1003B00009D0404606F03CFECB4ACC4B04F04AFF45
:1003C00005F03CF88046404606F032FEC64AC74B70
:1003D00004000D0004F0C6FF002808D0C24AC34B39
:1003E0002000290004F02DFF05F028F880460A9B24
:1003F000002B00DC4BE30B9B58467343099300230F
:10040000079306F0B9FDFC21002489050D900594A1
:1004100006F065FD5F46A2464646CB46B44B0E90BD
:10042000089304940694301C06F002FE009001919B
:1004300005F052F804000D0022002B000020AD4909
:1004400004F011FF04F0FAFFA74A804600980199D2
:10045000A94B04F087FF00282AD0039B181C99465B
:1004600006F0ACFD390004F07DFC784304F092FF07
:10047000A24AA34B04F0E5FE04F0E0FF011C069045
:10048000484606F00CFD414606F029FD594606F0A7
:100490000BFD8246784206F06FFD011C0590404638
:1004A00006F01DFD80221206030094466344049367
:1004B0002900200004F0C2FF8B4A81460098019970
:1004C0008D4B04F039FF0021002800D121E3301CBE
:1004D00006F036FD002800D053E30D9B4046191C62
:1004E0009A4606F0FCFC8022120694460300039C08
:1004F0006344201C049306F061FD390004F032FCD3
:100500007843C01906F038FD011C051C201C06F0BC
:10051000C6FC414606F0E3FC594606F0C5FC5346CE
:10052000041C05930B9B012B01D000F0B5FC201C93
:1005300006F044FD390004F015FC8046281C06F046
:100540003DFD390004F00EFC4044002803DD099B0A
:10055000834200DD1CE30499201C06F0A5FC0599EC
:10056000041C281C06F0A0FC051C201C06F026FD1F
:10057000390004F0F7FB8046281C06F01FFD390007
:1005800004F0F0FB4044002803DD099B834200DDBA
:1005900056E30499201C06F087FC0599041C281CCE
:1005A00006F082FC051C201C06F008FD390004F052
:1005B000D9FB8046281C06F001FD390004F0D2FB6F
:1005C0004044002803DD099B834200DD4DE304998C
:1005D000201C06F069FC0599041C281C06F064FC2C
:1005E000051C201C06F0EAFC390004F0BBFB804629
:1005F000281C06F0E3FC390004F0B4FB404400285A
:1006000003DD099B834200DD36E30499201C06F0DC
:100610004BFC0599041C281C06F046FC051C201CFC
:1006200006F0CCFC390004F09DFB8046281C06F047
:10063000C5FC390004F096FB4044002808DD099B06
:10064000834205DD0F9B8000C358002B00DDA5E22F
:100650000499201C06F028FC0599041C281C06F0AF
:1006600023FC051C201C06F0A9FC390004F07AFBD1
:100670008046281C06F0A2FC390004F073FB4044BD
:10068000002808DD099B834205DD0F9B8000C358CD
:10069000002B00DD82E20499201C06F005FC059980
:1006A000041C281C06F000FC051C201C06F086FC1F
:1006B000390004F057FB8046281C06F07FFC390007
:1006C00004F050FB404400281CDD099B834219DDE7
:1006D0000F9B8000C358002B00DD5FE212E0C04694
:1006E000C00F0020903B0020182D4454FB211940DE
:1006F000C03B00200000F0BFFB2109402D431CEB54
:10070000E2361A3F0499201C06F0CEFB0599041C22
:10071000281C06F0C9FB051C06F050FC390004F04B
:1007200021FB8046201C06F049FC390004F01AFB2E
:100730004044002808DD099B834205DD0F9B8000B3
:10074000C358002B00DD29E20499201C06F0ACFB05
:100750000599041C281C06F0A7FBFF23DA46DB05DD
:100760009846039B051C0693D74AD84B00980199DD
:1007700004F0F8FD002808D000980199D44AD54B20
:1007800004F0DAFD002800D0D7E100980199CE4AA4
:10079000CE4B04F0D1FD002807D100980199CC4A36
:1007A000CC4B04F0DFFD00281BD0584606F006FCB9
:1007B000390004F0D7FA7843C01906F0DDFB59463A
:1007C000041C06F06CFB494606F089FB039906F011
:1007D0006BFB4946051C0E9806F081FB0D9B0590AE
:1007E00004930021301C06F0ABFB002800D055E13B
:1007F00000980199B44AB84B04F096FD002800D047
:100800004CE10B9B012B00D044E2281C06F0D6FBE8
:10081000390004F0A7FA0600201C06F0CFFB3900CF
:1008200004F0A0FA3618002E03DD099BB34200DD68
:10083000D5E10499201C06F037FB0599041C281CFF
:1008400006F032FB051C06F0B9FB390004F08AFA09
:100850000600201C06F0B2FB390004F083FA3618BB
:10086000002E03DD099BB34200DDF0E10499201C5A
:1008700006F01AFB0599041C281C06F015FB051C44
:1008800006F09CFB390004F06DFA0600201C06F00F
:1008900095FB390004F066FA3618002E03DD099B3B
:1008A000B34200DDDAE10499201C06F0FDFA059957
:1008B000041C281C06F0F8FA051C06F07FFB390022
:1008C00004F050FA0600201C06F078FB390004F012
:1008D00049FA3618002E03DD099BB34200DDD2E150
:1008E0000499201C06F0E0FA0599041C281C06F067
:1008F000DBFA051C06F062FB390004F033FA06004F
:10090000201C06F05BFB390004F02CFA3618002E90
:1009100008DD099BB34205DD0F9BB600F358002BA1
:1009200000DD62E10499201C06F0BEFA0599041C62
:10093000281C06F0B9FA051C06F040FB390004F04B
:1009400011FA0600201C06F039FB390004F00AFAFF
:100950003618002E08DD099BB34205DD0F9BB6005B
:10096000F358002B00DD40E10499201C06F09CFAAE
:100970000599041C281C06F097FA051C06F01EFBBE
:10098000390004F0EFF90600201C06F017FB3900CF
:1009900004F0E8F93618002E08DD099BB34205DDA6
:1009A0000F9BB600F358002B00DD1EE10499201CBC
:1009B00006F07AFA0599041C281C06F075FA051C45
:1009C00006F0FCFA390004F0CDF90600201C06F010
:1009D000F5FA390004F0C6F93618002E08DD099B37
:1009E000B34205DD0F9BB600F358002B00DDFCE0A1
:1009F0000499201C06F058FA0599041C281C06F0DE
:100A000053FA0023FF269946051CF6054146301C83
:100A100006F0ACFA002800D075E0A24606952F4AF1
:100A20002F4B0098019904F015FC04F007FD0021FC
:100A3000061C06F08DFA002809D0301C06F0F8FAE2
:100A4000214A284B04F006FC04F0F8FC061C301C7C
:100A500006F0EEFA1C4A234B04000D0004F082FC61
:100A6000002843D02000079C174A1E4B2900013460
:100A7000079404F0E6FB04F0E1FC4A460C9B061CDC
:100A80001A61089B18600A9B9C4200D0CBE411B00D
:100A9000F0BCBB46B246A946A046F0BD404612494E
:100AA00006F05CFA00282ED100980199002399469F
:100AB000039B0A4A06930A4B04F0CCFB04F0BEFCED
:100AC000DA46061CC3E7C046182D4454FB21F93F03
:100AD000D221337F7CD91240FB2109405F40D422D0
:100AE00047DF913FFB211940FFFF7F7F4A460C9B68
:100AF0001A61089A079B16600A9A013307939A4273
:100B000000D090E4C3E74246089B5A601023994600
:100B100085E7301C06F014FA002832D100980199BC
:100B2000D94ADA4B04F000FC002800D1C4E2FF23CC
:100B3000DA46DB059846039B0693584606F03EFAD4
:100B4000390004F00FF94300181804F023FCD04AD0
:100B5000D04B04F076FB04F071FC5946041C06F0FF
:100B60009EF9494606F0BBF9039906F09DF9051C6C
:100B7000784206F001FA4946049006F0B0F9059073
:100B800003E6FF23DB059846039BDA4606930CE653
:100B90000F9B8000C358002B00DCDCE45946201C6E
:100BA00006F07DF903998246281C06F078F9514633
:100BB0008046504606F093F941468246404606F08C
:100BC0008EF9011C504606F06FF906F031FA04F078
:100BD00041FC04F033FCA24680460695C4E50F9B19
:100BE000B600F358002B00DC23E65946201C06F023
:100BF00056F903998146281C06F051F94946061C0E
:100C0000484606F06CF9311C8146301C06F067F945
:100C1000011C484606F048F906F00AFA04F01AFCEE
:100C200004F00CFC4146061C06F092F9002399469C
:100C3000002800D1EAE6089B5E600F239946E5E6AE
:100C40000F9B8000C358002B00DCA2E4A6E70F9B9B
:100C5000B600F358002B00DC08E6C6E70F9BB60091
:100C6000F358002B00DC1EE6BFE70F9B8000C35843
:100C7000002B00DCABE491E70F9B8000C358002BF6
:100C800000DCC2E48AE70F9BB600F358002B00DCBF
:100C900026E6AAE7281C1E0006F090F9390004F0A9
:100CA00061F84643201C06F089F9390004F05AF82F
:100CB0003618002E03DD099BB34200DDF5E10499EF
:100CC000201C06F0F1F80599041C281C06F0ECF82D
:100CD000051C06F073F9390004F044F80B9E4643F6
:100CE000201C06F06BF9390004F03CF83618002E91
:100CF00008DD099BB34205DD0F9BB600F358002BBE
:100D000000DD72E70499201C06F0CEF80599041C5A
:100D1000281C06F0C9F8051C06F050F9390004F04B
:100D200021F80B9E4643201C06F048F9390004F0D8
:100D300019F83618002E08DD099BB34205DD0F9B1C
:100D4000B600F358002B00DD4FE70499201C06F095
:100D5000ABF80599041C281C06F0A6F8051C06F043
:100D60002DF9390003F0FEFF0B9E4643201C06F0D0
:100D700025F9390003F0F6FF3618002E08DD099B2F
:100D8000B34205DD0F9BB600F358002B00DD2CE7C6
:100D90000499201C06F088F80599041C281C06F00C
:100DA00083F8051C06F00AF9390003F0DBFF0B9EFF
:100DB0004643201C06F002F9390003F0D3FF361831
:100DC000002E08DD099BB34205DD0F9BB600F358EA
:100DD000002B00DD09E70499201C06F065F8059951
:100DE000041C281C06F060F8051C06F0E7F8390022
:100DF00003F0B8FF0B9E4643201C06F0DFF83900D5
:100E000003F0B0FF3618002E08DD099BB34205DD64
:100E10000F9BB600F358002B00DDE6E60499201C7A
:100E200006F042F80599041C281C06F03DF8051C44
:100E300006F0C4F8390003F095FF0B9E4643201CD2
:100E400006F0BCF8390003F08DFF3618002E08DDDF
:100E5000099BB34205DD0F9BB600F358002B00DD64
:100E6000C3E60499201C06F01FF80599041C281CF1
:100E700006F01AF8051C06F0A1F8390003F072FF1D
:100E80000B9E4643A2E5C046182D4454FB21094061
:100E90002D431CEBE2361A3F281C06F08FF8390070
:100EA00003F060FF0B9B4343201C984606F086F836
:100EB000390003F057FF4044002803DD099B8342BB
:100EC00000DDEBE00499201C05F0EEFF0599041C01
:100ED000281C05F0E9FF051C06F070F8390003F046
:100EE00041FF0B9B4343201C984606F067F83900EE
:100EF00003F038FF4044002808DD099B834205DDEC
:100F00000F9B8000C358002B00DD47E60499201C8E
:100F100005F0CAFF0599041C281C05F0C5FF051C37
:100F200006F04CF8390003F01DFF0B9B4343201CD7
:100F3000984606F043F8390003F014FF40440028B7
:100F400008DD099B834205DD0F9B8000C358002B01
:100F500000DD23E60499201C05F0A6FF0599041C7A
:100F6000281C05F0A1FF051C06F028F8390003F045
:100F7000F9FE0B9B4343201C984606F01FF83900EE
:100F800003F0F0FE4044002808DD099B834205DDA4
:100F90000F9B8000C358002B00DDFFE50499201C47
:100FA00005F082FF0599041C281C05F07DFF051C37
:100FB00006F004F8390003F0D5FE0B9B4343201CD8
:100FC000984605F0FBFF390003F0CCFE40440028B2
:100FD00008DD099B834205DD0F9B8000C358002B71
:100FE00000DDDBE50499201C05F05EFF0599041C7B
:100FF000281C05F059FF051C05F0E0FF390003F03F
:10100000B1FE0B9B4343201C984605F0D7FF3900E7
:1010100003F0A8FE4044002808DD099B834205DD5B
:101020000F9B8000C358002B00DDB7E50499201CFE
:1010300005F03AFF0599041C281C05F035FF051C36
:1010400005F0BCFF390003F08DFE0B9B4343201CD1
:10105000984605F0B3FF390003F084FE40440028B1
:1010600008DD099B834205DD0F9B8000C358002BE0
:1010700000DD93E50499201C05F016FF0599041C7A
:10108000281C05F011FF051C05F098FF390003F03E
:1010900069FE0B9B43439846FFF744FB0F9B800080
:1010A000C358002B00DC0DE778E50F9BB600F35822
:1010B000002B00DC03E698E55446069DFFF732FA64
:1010C000F0B557464E464546DE46484B484A1B6BF0
:1010D000E0B59A46474B002691469846464F83B066
:1010E0004B463968D86905F0DAFE0021041C05F08A
:1010F0002FFF002809D0201C05F09AFF3F4A404BE3
:1011000004F0A8F804F09AF9041C201C05F090FFE4
:101110003A4A3B4B04000D0004F024F900280BD0A0
:10112000364A374B2000290004F08BF804F086F98A
:1011300005F07EFF04000D002000290004F0A0F956
:1011400004000D00786805F073FF22002B0004F006
:10115000A8F804F073F943469D68041C2801401B5D
:101160007C60800005F008FF211C05F0A2FEFC2138
:101170008905041C05F0B3FE011C224805F08FFE12
:101180002900031C78201D1C03F0ECFD05F0F4FE83
:10119000031C30009B4605F0EFFE011C584605F08D
:1011A0009EFE05F03DFF0300291C201CDCB205F06B
:1011B0007BFE05F035FF0300281CDDB205F030FF93
:1011C00043461B7C01009C462000230064460136F8
:1011D0002A000094C9B2D047032E81D103B0F0BCDD
:1011E000BB46B246A946A046F0BDC04638A2001094
:1011F000903B0020C00F0020C03B0020182D44541D
:10120000FB21194000007042054B70B5054E5D6929
:10121000054C20683169FFF753FFA847F9E7C0463E
:1012200038A20010C00F0020903B0020F8B506F057
:101230006FF9152000F0A4FD162000F0A1FDD023C9
:10124000802080211B068003C903986200229962D6
:101250001520012100F07AFD00220121162000F066
:1012600075FDFFF73BF8304C23699847A4690020CF
:10127000A047FF20A0470020A0472C4808F0D8FC3A
:101280002B4ED0231B065B689B020AD471697068E1
:1012900005F00AFE031CB169B068736005F004FE36
:1012A000B060D0231B065B68F0695B0237D405F0A1
:1012B000BFFE204A204B03F0CDFF04F0BFF8071C0F
:1012C00005F0B6FE1D4A1E4B04000D0004F04AF85E
:1012D0001A4A1B4B00280AD02000290003F0B1FF56
:1012E00004F0ACF8071C05F0A3FE04000D0020007C
:1012F0002900F76104F0C4F80022124B03F0D1FF7B
:1013000004F09CF82900031C2000736104F0CEF85F
:1013100000220C4B03F0C5FF04F090F8B061306878
:10132000FFF71EF8ADE7C04638A200100912001002
:10133000903B00209A9999999999A93F182D445466
:10134000FB2119400000144010B504000C437F2C11
:1013500013D85418002C10D0802C0FDD80224008A8
:10136000521AC9010918094892B20918002001301F
:1013700080B20B7040319042F9D110BD4008C901D4
:10138000091802480918002AF0D1F6E7C016002013
:10139000014B18727047C046A00D0020014B5872D7
:1013A0007047C046A00D002070B50D000C0005432D
:1013B0007F2D10D8111800290DD07F2902DD802241
:1013C000121A92B264080449E40120184018520825
:1013D000190005F0FBFE70BDC016002003000B4392
:1013E0005BB210B5002B0CDB7F23591AC9B21B1A54
:1013F000DBB2C901C9180139CB0F024C5B185B1075
:10140000E25410BDC0160020F0B5454657464E4682
:10141000DE46E0B509AC2478171AA0465C1AE51739
:1014200064196C40BC462600BC4209DD91460500AB
:101430001A00FB17FE1808005E4029004B46171AD9
:101440009942AD413BB29946BBB29B46324B1D40DF
:10145000324B9A464B46DB0F4B4455445B1090424F
:101460002AD8B6B264452DDC7F24A1462C4CA24676
:10147000441CA4469C1B0B0003431B060ED44B4686
:101480005B1ADBB2DF014B46181AC0B23B18013BB6
:10149000D80FC318474650465B10C754634698B2EE
:1014A000A3B29C4623B2240404D5634649195B4485
:1014B00089B21BB29042DBD9F0BCBB46B246A9460A
:1014C000A046F0BD7F24A146154CA246441CA4466C
:1014D0009C1B0B0003431B060ED44B461B1A4846AD
:1014E000DBB2401AC0B2DB011B18013BD80FC31896
:1014F000474650465B10C754634698B2A3B29C4619
:1015000023B2240404D5634649195B4489B21BB253
:101510008242DBD2D0E7C0460200FFFFFFFF00009F
:10152000C016002000B583B000930B00FFF76CFFDE
:1015300003B000BD00B583B0009313000200FFF7B5
:1015400063FF03B000BDC046F0B54746CE469146A6
:1015500080B583B05E180AAB1B78070098468144BB
:101560004C1CB1420CDA4546611E89B20B004A465A
:1015700038000095FFF748FF21000134B142F2DB4B
:1015800003B0C0BCB946B046F0BDC04630B585B06A
:1015900000256A460B4C0C4B3D219381200003AA89
:1015A0000223009508F09EFCC0236A465B0000956C
:1015B0003D2193812000022303AA08F093FC05B08B
:1015C00030BDC046800E002080ABFFFF134BF0B54E
:1015D00057469A4680234E46994600234546DE46A6
:1015E0000F4C9846E31C9B46E0B585B003AD4746DB
:1015F000267800974F46013402232A003D215046A9
:101600002F706E7008F06EFC5C45F0D105B0F0BC38
:10161000BB46B246A946A046F0BDC046800E00209B
:1016200034A20010002300B5054985B003AA11803B
:10163000044800933D21023308F054FC05B000BD7E
:1016400080AFFFFF800E0020002300B5054985B064
:1016500003AA1180044800933D21023308F042FCA4
:1016600005B000BD80AEFFFF800E0020F0B5002762
:1016700085B00C4D0C4B03AC0600220000973D21B9
:1016800023802800022308F02DFC802300972200ED
:1016900023803D21280066707E3B08F023FC05B0C6
:1016A000F0BDC046800E00208081FFFFF0B500270E
:1016B00085B00C4D0C4B03AC0600220000973D2179
:1016C00023802800022308F00DFC802300972200CD
:1016D00023803D21280066707E3B08F003FC05B0A6
:1016E000F0BDC046800E002080B1FFFF002110B584
:1016F0004D2384B0009180226946064C5B4203432F
:101700000A734B73200002233D2103AA08F0EAFB71
:1017100004B010BD800E0020012202215C2330B5F0
:101720000240400001405B4285B00B436D461343CD
:10173000802400226B732C73022300923D2103AAA4
:10174000024808F0CFFB05B030BDC046800E002037
:10175000244BF0B545469846802357469A460023C9
:10176000DE464E46204C9946A31D9B46E0B587B009
:1017700005AD4F46267800975746013402232A00CC
:101780003D2140462F706E7008F0ACFB5C45F0D1F7
:10179000812292019346154B1F009B4440239A4699
:1017A0000023994640370397039C403C4F462678D8
:1017B0000097574602232A003D2140462F706E7045
:1017C00008F090FB039B0134A342EFD14033039315
:1017D0005B45E9D107B0F0BCBB46B246A946A0467E
:1017E000F0BDC046800E002004A20010C0160020EC
:1017F000F0B5DE46454657464E468022E0B5154CCC
:10180000010085B02000920105F0E0FC124B03AD11
:101810009A46402399460023984680239B019B4685
:10182000A3444746267800974F46013402232A00F6
:101830003D2150462F706E7008F054FB5C45F0D18E
:10184000FFF786FF05B0F0BCBB46B246A946A046EE
:10185000F0BDC046C0160020800E0020F0B5DE4668
:10186000454657464E464C4BE0B59B46002585B055
:1018700018004A4908F00AFB0321042000F04EFA40
:101880000321052000F04AFA00220121042000F083
:101890005DFA00220121052000F058FA404805F0C9
:1018A000FBFD322001F089FB3E4B03AC238022007C
:1018B00002233D210095584608F014FBC022520037
:1018C0000095228080229246002202233D219046EC
:1018D0005846220008F006FB322001F06EFB1F2361
:1018E0009946314DA94446462F7800965646013513
:1018F000022322003D2158462670677008F0F2FA54
:101900004D45F0D1642001F058FB4246274B009230
:101910003D21220023805846022308F0E3FA424684
:10192000234B00923D21220023805846022308F0D9
:10193000D9FABE224346920100933D210223228020
:101940005846220008F0CEFA80221A4D00212800C5
:10195000920105F03BFC80239B019A464023994667
:1019600000239846AA4446462F7800964E460135F5
:10197000022322003D2158462670677008F0B2FA13
:10198000AA45F0D1FFF7E4FE05B0F0BCBB46B24675
:10199000A946A046F0BDC046800E0020C0C62D005E
:1019A000F0A1001080ABFFFF0CA2001080AFFFFF82
:1019B0008081FFFFC0160020F0B55746DE464E4638
:1019C0004546E0B589B013AC2478A24604000C4328
:1019D00064B2002C76DB544664005444640024183E
:1019E000002C6FD05446E4006518002D6AD055468F
:1019F000AD00554405955546002D63D0641B0194F8
:101A00007F24201AC0B280467F200025D346411A89
:101A1000203AC9B2079190002E4982188A1806927E
:101A20002D4A039302925946280003F0C3F9069BFE
:101A3000C0B21B5C42469A467F239B1ADBB2994692
:101A400000240127079E049511E0F3014344013B64
:101A5000002D05DBDA0FD3180399029A5B10D154DD
:101A60000134019B013EE4B2F6B29C4220D07F23B8
:101A70009D1B4B46594620001D4303F09BF95346DE
:101A8000C0B203413A006DB21A401F42DDD1002DB1
:101A9000E6DBF3014344013BD90FCB1802995B10FD
:101AA000CA540134019B013EE4B2F6B29C42DED13D
:101AB0004346049D013BDBB298466A1C059BD5B2A8
:101AC0009D42B0D109B0F0BCBB46B246A946A04683
:101AD000F0BDC0469CA20010C016002010B5002426
:101AE00082B0044B00941C7A01945B7AFFF764FF88
:101AF00002B010BDA00D0020F0B5154D16002860F5
:101B00006960127883B0002A1ED000272C7A6B7A85
:101B1000C0B20194C9B20097FFF74EFF2C7A286833
:101B2000E3000136012C11D01B1BE200C018121B70
:101B300028607E2805DD6A603278002A04D0696852
:101B4000E5E73278002AFAD103B0F0BD0823ECE7CC
:101B5000A00D0020F0B505008BB002AE0C00101CEB
:101B600031001A0000F0A0F828003278144D21004E
:101B700028606C60002A1ED000272C7A6B7AC0B2D5
:101B80000194C9B20097FFF717FF2C7A2868E2008A
:101B90000136012C11D0121BE30080181B1B28609A
:101BA0007E2805DD32786B60002A04D06968E5E79D
:101BB0003278002AFAD10BB0F0BD0822ECE7C0461B
:101BC000A00D0020F0B5C64600B586B00D0004009B
:101BD00002A910000A2208F099F9174E2900346072
:101BE000756002780700002A20D000239846357AD5
:101BF000E0B24446737AC9B201950094FFF7DCFE67
:101C0000357A3468EB000137012D13D05B1BEA00F5
:101C1000E418521B34607E2C05DD72603A78002A8D
:101C200004D07168E4E73A78002AFAD106B080BCA3
:101C3000B846F0BD0823EAE7A00D002010B5013931
:101C4000002305E0C25C445CC454425401330139B2
:101C50008B42F7DB10BDF0B5C64600B505000E009F
:101C6000904600240CE00A21280003F07BF8671C52
:101C7000303131550A21280003F074F805003C008A
:101C8000002DF0D102E03023335501344445FADB16
:101C900021003000FFF7D2FF3619002333702000F7
:101CA00080BCB846F0BD0000F0B583B0051C0F0045
:101CB000160005F083F9040005F05EF9011C281CEC
:101CC00005F0EDF8051C002239002000FFF7C3FFE6
:101CD0000400002E01D103B0F0BD2E233B54300090
:101CE00003F058FB02000B0000200B4903F0F2FF49
:101CF00000900191281C05F09BF9009A019B03F0CC
:101D0000D0FA03F09BFB01343C1905F057F932007F
:101D10002100FFF7A0FFDEE70000244010B583009C
:101D2000084A944663441A68402462408034144050
:101D30008022520113431C60C000034B9C46604448
:101D4000416010BD04C001400040014080000B4BC9
:101D50009C46604400290DD00823002A0CD00422A0
:101D60001343026853400C221A4080235B01034353
:101D70001A6070470023F0E70022F1E704C0014039
:101D800010B501238340D02212069362936105218E
:101D9000FFF7C4FF10BD0000034B1B680220184072
:101DA000431E9841C0B2704700C00640EFF3108058
:101DB00072B6034B1B68002BFBD0BFF35F8F7047DD
:101DC0002C0100D0BFF35F8F024B00221A6080F31A
:101DD000108870472C0100D0F8B506000C001500E3
:101DE000FFF7E4FFE308F718F15C07222240012324
:101DF00093400B4205D1DBB20B433B70FFF7E2FF90
:101E0000F8BD2100280001F08BFEF0B583B006007C
:101E1000019114001F00FFF7C9FF00E00134BC422C
:101E20000CD8E308F518F35C0721214001228A4011
:101E30001A42F3D1D2B21A432A7001E0012464425B
:101E4000FFF7C0FF002C02DB200003B0F0BD019BB8
:101E5000002BF9D0089801F063FE0000002307E092
:101E6000054A9A189200BFF35F8F00211160013379
:101E70001F2BF5D97047C04640000034054A107842
:101E8000431CDBB21370172B02D9130010221A70F7
:101E90007047C046AC0D002010B582B00100054C63
:101EA000054B00931F2318222000FFF7AEFF02B05E
:101EB00010BDC046C83600207CA40010074B9B68AC
:101EC000103080001950BFF35F8FBFF35F8F044B5A
:101ED0000021196082F310887047C04600ED00E0D1
:101EE000240100D010B50388DA0A1C2A05D15B054D
:101EF0005B1502335B00C01810BD034B034A044856
:101F0000B12101F075FDC04698A400100CA7001087
:101F1000B0A4001010B5091A0B1F0A4A88180A4A03
:101F2000904208D8C90706D45B105B055B0D0748D3
:101F3000184380B210BD064B064A0748A32101F0A2
:101F400057FDC046FC070000FE0F000000E0FFFF49
:101F5000E8A4001000A70010B0A4001010B5091AE2
:101F600004394A08090B08D14905490D064B0B43B2
:101F70000380064B1343438010BD054B054A0648BA
:101F8000AB2101F035FDC04600F0FFFF00F8FFFF78
:101F900018A50010D4A60010B0A40010012383409F
:101FA000034A10681840431E9841C0B27047C046AB
:101FB00000E100E0002904D0034B1860034B1860D7
:101FC0007047034B1860FBE780E200E000E100E0AF
:101FD00080E100E010B5012383401800FFF7EAFF1D
:101FE00010BD000001238340014A13607047C046C2
:101FF00000E200E0024B9B6810308000C058704740
:1020000000ED00E010B5FFF7F5FF002805D0054B07
:10201000C01A2F2803D8012010BD0020FCE70020A3
:10202000FAE7C046B00D002070B504000D00EFF3D4
:10203000108672B60C4B1B68002BFBD0BFF35F8F72
:102040002000FFF7D7FF094B984201D0A84205D1E5
:10205000320029002000FFF731FF70BD044B054A14
:102060000548862101F0C4FC240100D0CD010010F8
:1020700028A5001034A70010B0A40010F0B5DE466B
:1020800057464E464546E0B589B081460191150058
:10209000EFF3108A72B66D4B1B68002BFBD0BFF3B9
:1020A0005F8F6B4B00269E57002E41DB7400A419F6
:1020B000A400684824180622A256654B1A70664B85
:1020C0009A684B4610339B00D35898461F00181A45
:1020D0002F2839D9614B984530D105AF604B3B80F3
:1020E000604973009B46981980005A4B98464044BB
:1020F0000230FFF70FFF78805B4BBB80FF23BB7183
:10210000FD71019B079333005B449B00434407CF61
:1021100007C301231C43A046524641464846FFF7E9
:10212000CDFE09B0F0BCBB46B246A946A046F0BD04
:102130004E4B4F4A4F48D72101F05AFC4E4B4C4A68
:102140004C48DE2101F054FC01380C2102F032FE33
:10215000002912D101239F43BB463B000027DA79B7
:10216000AA4211D90621595600290CDB4A005218FF
:10217000920038491F008B18F1E7404B3C4A3D481C
:10218000EA2101F035FC1F00002F2ED005AB3C4AA0
:102190001A80813A5A800623FB560293002B17DAE5
:1021A000384805AB9B469880029A9A71DD71019A76
:1021B0000792381D2100FFF7ADFEB880BE71254B98
:1021C0007200921992009B185A4613CA13C3A3E7D0
:1021D000381DFFF787FE01007000801980001D4B3D
:1021E000C0180430FFF796FEDBE705AF1C4B3B80C1
:1021F0001C49730002939B199B00164A90461A00D3
:1022000042440392901CFFF785FE7880039A101DCC
:102210005946FFF77FFEB8801B4B5A464146521A7B
:10222000524153431B0DBB71FD71019A0792029BF2
:102230009B199B00434407CF07C3114B5A46138099
:10224000813B538001231C43A04665E7240100D055
:10225000053E0020B00D002000ED00E0CD01001093
:1022600000A1FFFFE00D002001BDFFFF60A50010F1
:102270001CA70010B0A4001088A50010B0A5001085
:102280000148000001BD0000AAAA0000F0B5CE463A
:10229000474680B583B006000D00EFF3108872B694
:1022A0004F4B1B68002BFBD0BFF35F8F4D4B9A68E1
:1022B00034001034A300D7584B4B9F4207D0AF4295
:1022C00000D18BE00197494BFB1A2F2B09D94246CD
:1022D00039003000FFF7F2FD03B0C0BCB946B0468C
:1022E000F0BD3000FFF75AFE814600213000FFF7B5
:1022F00071FEBFF35F8FEFF30581002901D08C429F
:1023000011D10123019C9C430020A368AB4212D051
:102310000622A256002A0DDB53009B189B00334A6D
:102320002000D418F1E7324B324A36213248FF31CF
:1023300001F05EFB2000AB4249D106256557002D18
:102340002BDB2A4B6A00521992009B189A68A260F4
:10235000DA79E2719B795BB2A371002B0FDA27481F
:10236000A080224B6A00521992009B18244A1178CF
:102370009971157049463000FFF72CFEA7E76800F9
:1023800040198000194BC0180430FFF7ABFD010065
:10239000231D1800FFF7BEFDE2E7002912D1002837
:1023A0000ED0FF238371174B838015490B78A371DF
:1023B0000E4A154BA41A644163431B0D0B70D9E7F9
:1023C000094FF2E71149201DFFF7C8FDD2E7104B76
:1023D000084A6A210848FF3101F00AFB024F76E7FC
:1023E000240100D000ED00E0CD010010B00D002070
:1023F00024A60010ECA60010B0A4001001BD00003F
:10240000053E002001BDFFFFAAAA0000EA0D002042
:1024100058A6001070B5012202432E4BD31A2F2B61
:1024200028D8EFF30583002B2BD0EFF3108C72B676
:10243000294909680029FBD0BFF35F8F254C274944
:1024400005002D1B6D416943090D4CB22449896873
:102450009B00C95891421BD00021032932D81D4B43
:102460004A00521892009B189B795BB2A3421FD07E
:102470000131F2E71B4B1C4AC7211C48490001F0FF
:10248000B7FA1B4B184A92211848FF3101F0B0FAF5
:10249000134A92681749D150174B1A7882711C70F1
:1024A000BFF35F8F0C4B00221A608CF3108870BD55
:1024B000084B4A005518AD005D19FF26AE710F4A52
:1024C000AA80E9E70E4B084AD1210848490001F0EB
:1024D0008FFAC046B00D0020240100D0AAAA000047
:1024E00000ED00E060A60010B8A60010B0A4001037
:1024F00088A60010CD010010053E002001BDFFFFA1
:1025000094A600100022044B02E0044902C30132E9
:10251000072AFAD97047C04600E400E08080808036
:1025200010B582B00100074C074B00930523002231
:102530002000FFF76AFC002801DB1F23181A02B0F5
:1025400010BDC0460B3E00209CA60010024B9C46CE
:1025500061448900016070474000003410B5002BD1
:1025600002DB0260436010BD024B034A03483F2177
:1025700001F03EFA50A7001058A800106CA70010F8
:1025800070B582B0060014001D00FA2292000023EC
:102590000698002104F066FC02000B0012196B4142
:1025A000002B09DB6846FFF7D9FF009A019B3260D8
:1025B0007360300002B070BD01225242004BF1E75F
:1025C000FFFFFF7F10B582B0040000F075FD020030
:1025D0000B006846FFF7C2FF009A019B2260636010
:1025E000200002B010BD30B585B004000D0002A877
:1025F000FFF7E8FF029A039B00952000FFF7C0FF5A
:10260000200005B030BD10B50400FFF737FC010015
:102610002000FFF79BFFFF232371BFF35F8F10BDE7
:1026200010B50400FFF72AFC01002000FFF78EFF21
:10263000FF23237100236371BFF35F8F10BD000080
:10264000034B9C46614489000160BFF35F8F704774
:102650004000003410B504000120FFF71DFC01000C
:102660002000FFF7EDFF10BD084B5B6A994209D8C7
:10267000064A926A824207D2994201D0012002E0C2
:10268000002000E0002070470120FCE700400540EA
:1026900010B500290AD003681B7B8B4206D38068E3
:1026A000054B9C4661440901401810BD034B044A88
:1026B00004483C2101F09CF9FFFFFF0F70A80010B7
:1026C00084AB001094A80010F8B504001700FFF7C1
:1026D000DFFF0668456839002000FFF7D9FF026870
:1026E00043680120AB4201D802D00020C0B2F8BD3F
:1026F000B242FBD8F9E7000010B5002B02DB026004
:10270000436010BD024B034A03483F2101F070F9BA
:1027100050A7001050AB00106CA7001010B582B08D
:1027200004000498059912184B41002B09DB6846F8
:10273000FFF7E2FF009A019B22606360200002B075
:1027400010BD01225242014BF1E7C046FFFFFF7F5F
:1027500010B5002908D0037B8B4205D300684B00DD
:102760005B18033BC01810BD024B034A03486821A5
:1027700001F03EF9C4A800102CAB0010E0A8001036
:1027800010B5437B8B4201D1012010BDFFF7E0FF64
:102790008378002B01D10020F7E70120F5E770B521
:1027A0000400857B002D01D1280070BD2900FFF7B2
:1027B000CFFF4378A373002B00D1E3730023837012
:1027C00043700370F0E70000F8B506000C00150038
:1027D000FFF7BEFF0700002C0DD0002D11D0AC423A
:1027E00015D029003000FFF7B3FF84703B78002B31
:1027F00013D13D70F8BD0A4B0A4A0B486F2101F016
:10280000F7F80A4B074A0848702101F0F1F8084B25
:10281000044A0548712101F0EBF843703D70E9E787
:1028200024A9001008AB0010E0A8001030A9001087
:102830003CA9001070B506000D001400002914D04A
:10284000002A14D0436880689847002806D02200E8
:1028500029003000FFF7B8FF280007E02A00210018
:102860003000FFF7B1FF200000E0100070BD08004D
:10287000FCE7000070B504000D1E0CD0FFF768FFE8
:102880000023837043700370617B2A002000FFF7F0
:10289000D1FF607370BD034B034A0448A52101F0CA
:1028A000A7F8C04654A900101CAB0010E0A8001007
:1028B00070B504000D1E0FD0FFF762FF00280BD18A
:1028C000E17B00290ED1A37B002B03D1E37B002BFE
:1028D0000DD1A573E57370BD084B094A0948F6216F
:1028E00001F086F82000FFF733FF4570EBE7064B59
:1028F000034A0448FB2101F07BF8C04658A90010A8
:10290000F8AA0010E0A800107CA9001010B500295A
:1029100007D003681B7B8B4203D3C0680139401882
:1029200010BD034B034A0448412101F061F8C04641
:1029300070A80010E4AA001094A8001070B505005B
:102940000C00080000F094FC0949200000F0D4FBC2
:10295000FFF794FA074B9C466044800068602C7532
:10296000D0231B061B786B75034BA400E55070BD8C
:10297000892A001040000034B03B00200A4B1A683E
:10298000EFF3108172B61368002BFCD0BFF35F8F9A
:10299000054B1B68BFF35F8F00221A6081F310881C
:1029A00040BF002000217047D43D002010B582B008
:1029B000040000F081FB02000B006846FFF79CFE5C
:1029C000009A019B22606360200002B010BD70B5C8
:1029D00084B0040016001D0002A8FFF7E7FF029A6A
:1029E000039B009601952000FFF798FE200004B09D
:1029F00070BD0000F0B583B0070001921D000AAB66
:102A00001C780BAB1E78002C0BD000682100FFF760
:102A1000B7FE002809D0194B194A1A48672100F05F
:102A2000E7FF0068FFF7BBFE0400002C02D1200086
:102A300003B0F0BD21003800FFF72AFE019B0360C0
:102A40004560089B8360099BC36038682100FFF7DD
:102A500011FFA042EBD1387D019A2B0000F094FBCE
:102A6000051E01D0002E04D00C9B002BDFD01D7062
:102A7000DDE73868210000F041FDF5E790A900107E
:102A800038AB001094A80010F0B5DE4657464E460D
:102A90004546E0B58FB00B900021784B8200D458AA
:102AA000894682E029002000FFF7F2FD8046026897
:102AB0004368921BBB41002B09DD43461A685B68E3
:102AC0000B9800F061FB00239846002689E0002B5C
:102AD00001D1002AF1D10021584600F005FD070080
:102AE000A84215D143461A685B6808920993434689
:102AF0009E68DB689846002E10D029002000FFF762
:102B000005FF037899461B021F432761002068E0F8
:102B10005B4B5C4A5C488E2100F06AFF5B4B594A74
:102B20005948922100F064FF2369002B77D0BB4203
:102B300019D106980799002342428B4100920193D4
:102B4000089A099B0CA8FFF7E9FD0C9A0D9B002140
:102B500004910131039102954146019100962000B4
:102B6000FFF748FF16E04A4B464A4748A12100F0CC
:102B70003FFF069A079B002B01D1002A52D1206803
:102B80002900FFF795FE29002000FFF7BFFE03781C
:102B900001330370002323616268BFF35F8F13600A
:102BA0008AF310880120002861D00CA8FFF7FEFEF0
:102BB0000C9E0D9F00220023089209936268EFF398
:102BC000108A72B61368002BFCD0BFF35F8F2368A6
:102BD0009B465D7B002D00D064E7002398460026CD
:102BE00000206368BFF35F8F00221A608AF31088A9
:102BF000002ED8D04B461F022F4341463800B04725
:102C0000069007916268EFF3108A72B61368002B82
:102C1000FCD0BFF35F8F079B002B00DA84E7079B94
:102C2000002BA6DD2369002BA9D0BB4219D10CA82B
:102C3000FFF7BCFE0C9A0D9B069807990090019136
:102C40000CA8FFF76BFD0C9A0D9B0021049101313C
:102C5000039102954146019100962000FFF7CAFEBC
:102C600098E70B4B074A0848A42100F0C1FE0FB0BB
:102C7000F0BCBB46B246A946A046F0BDB03B002022
:102C8000B8A9001068AB001094A80010D0A90010DB
:102C9000DCA9001010B50C4B5B68002B04D00B486E
:102CA0000A21FFF753FC10BD074C094A2068230096
:102CB000102100F084FB032000F0F2F90321200032
:102CC000FFF73CFEEBE7C046F80D0020D43D0020A6
:102CD000C926001010B5064B5B68002B01D00448D4
:102CE00010BD044B044A05485E2100F081FEC04639
:102CF000F80D002018AA0010CCAA001094A800100B
:102D0000F0B5DE4657464E464546E0B58DB0060066
:102D100090461F00169B9A46179B994618AB1B7846
:102D20000793272302AA9446634400221A7021E0E5
:102D300001003000FFF7EAFD00783CE00698002B28
:102D40005CD0079B002B59D04946D04704000D00AA
:102D500003000B4359D0002940DB08A8FFF726FEEB
:102D6000089A099B0094019508A8FFF7D7FC089BD7
:102D70009846099F7268EFF3108B72B61368594238
:102D80004B41D9B20691002BF8D1BFF35F8F2733A7
:102D900002AA9446634404930023039302934B4690
:102DA00001935346009342463B003000FFF722FE5A
:102DB0000400051EBCD17368BFF35F8F002119604A
:102DC0008BF31088002D17D0272302AA9446634462
:102DD0001B78002BB2D100022043B0E700236242EF
:102DE000AB410092019342463B0008A8FFF796FCD6
:102DF000089B9846099FBDE7012040420DB0F0BCFA
:102E0000BB46B246A946A046F0BD0698F6E7F0B527
:102E1000C64600B584B00500884616001F000AAB00
:102E20001C78FFF757FF0294019700962A0043464B
:102E3000FFF766FF04B080BCB846F0BDF0B5C646EB
:102E400000B504000D004268EFF3108772B61368F6
:102E5000002BFCD0BFF35F8FEEB2236898463100A1
:102E60001800FFF78DFC00282AD02369AB4213D04D
:102E70002D0AEDB231002000FFF748FD0378AB4288
:102E800011D000206368BFF35F8F00221A6087F3C0
:102E9000108880BCB846F0BD0C4B0D4A95210D48FA
:102EA000490000F0A5FD3100404600F027FB002856
:102EB000E8D1094B064A32210648FF3100F098FD5F
:102EC0002369AB42DED100232361DBE73CAA00107B
:102ED000B4AA001094A8001060AA001010B5040055
:102EE000FFF7F8FE2100FFF7A9FF10BD407D7047F6
:102EF00030B587B004000D00EFF30583002B20D11F
:102F000006225242D31712196B418B4202D803D1C9
:102F1000824201D90022002304A8FFF7EDFB02A89A
:102F2000FFF744FD02980399049A059B121A8B41FE
:102F3000002B0BDC08D02000290000F0C9F807B0F6
:102F400030BD144800F0ECFD002AF4D0124A049879
:102F5000059900230093FFF75AFF002813DAEAE7E8
:102F60000E4B1A68EFF3108172B61368002BFCD079
:102F7000BFF35F8F094B1B68BFF35F8F00221A609E
:102F800081F3108820BF04980599FFF76DFB002896
:102F9000E6D0D0E764AA00107D290010D43D0020BF
:102FA00000B583B002000B006846FFF710FD0098E3
:102FB0000199FFF79DFF03B000BD10B5FA22920002
:102FC0000023002103F04EFFFFF7EAFF10BD0000D1
:102FD00030B583B005000C00EFF30583002B0FD153
:102FE0000B4A00230093FFF712FF00280BDD20BFE0
:102FF000FFF774FF28002100FFF736FB03B030BD58
:10300000FFF732FBFAE728002100FFF72DFBF5E779
:103010007D29001070B5EFF305801038EFF3108CA8
:1030200072B6194B1B68002BFBD0BFF35F8F0122D8
:103030001300834015494B6315490B601549097806
:103040000C00C440224213D0104A546A124A850030
:10305000AA58944205D3114AAA580E4C994321709C
:1030600007E00A4A031D9B0099589950002200E08E
:103070000022BFF35F8F044B002119608CF310888E
:10308000002A00D0904770BD280100D000400540C4
:103090003C7005400A3E0020E03D0020B0150020B5
:1030A00010B50100024A034B1800FEF795FE10BD53
:1030B00090AB0010043E0020044B5B6A034A906A08
:1030C0001900536A9942F9D17047C0460040054043
:1030D000084B5B6A01E0074B5B6A8B42FBD301E064
:1030E000044B5B6A8B4203D1024B9B6A8342F7D34A
:1030F0007047C0460040054070B504000E00EFF375
:10310000108572B61B4B1B68002BFBD0BFF35F8F83
:10311000002E1CD02000FEF76DFF174B83420BD012
:1031200019002000FEF780FF01212000FEF752FF6A
:103130000123A340114A1360114BA400E650BFF3D2
:103140005F8F0C4B00221A6085F3108870BD0C4B0A
:10315000A2000021D1500122A2400A490B789343DA
:103160000B7005492000FFF791F800212000FEF7C1
:1031700031FFE4E7280100D0153000103860054029
:10318000B01500200A3E0020F0B5DE4600B584B040
:103190000400150001921E000293FFF78DFF0395B6
:1031A0008E4202D84ED185424CD9EFF3108B72B6C5
:1031B000274B1B68002BFBD0BFF35F8F254A177886
:1031C0000125A540EBB23B431370234B5D63221DE9
:1031D00092000199D150214AA100029888501B6A9F
:1031E0002B4212D11C4B1B6C2B4208D00020BFF38A
:1031F0005F8F174B00221A608BF3108823E0184B67
:10320000184A1948C52100F0F3FBFFF755FF8E421D
:1032100014D802D1039B834210D80E4B1B78BB42BB
:103220000ED00D4B1D625D631F222240012393408F
:103230000E4A1360074B1F700120D8E70020D6E725
:103240000120D4E7012004B080BCBB46F0BDC046DD
:10325000280100D00A3E002000400540E03D00204B
:10326000B4AB001014AC0010D8AB001080E200E04A
:10327000EFF3108C72B60B4B1B68002BFBD0BFF327
:103280005F8F01238340084A136208490A789A43F2
:103290000A70BFF35F8F034B00221A608CF3108813
:1032A0007047C046280100D0004005400A3E00207B
:1032B00010B5002908D0037B8B4205D300684B0072
:1032C0005B18033BC01810BD024B034A034868213A
:1032D00000F08EFBC4A8001018AD0010E0A800108C
:1032E000F8B506000C001500FFF7E2FF0700002C00
:1032F0000DD0002D11D0AC4215D029003000FFF7C1
:10330000D7FF84703B78002B13D13D70F8BD0A4B7A
:103310000A4A0B486F2100F06BFB0A4B074A08482A
:10332000702100F065FB084B044A0548712100F04C
:103330005FFB43703D70E9E724A9001004AD001065
:10334000E0A8001030A900103CA9001070B50600DC
:103350000D001400002914D0002A14D0436880689E
:103360009847002806D0220029003000FFF7B8FF58
:10337000280007E02A0021003000FFF7B1FF2000FD
:1033800000E0100070BD0800FCE770B505000023E8
:10339000437301338373037BC373012406E021006D
:1033A0002800FFF785FF0134E4B24470297BA14275
:1033B000F5D82800FFF77CFF0023437070BD10B5DF
:1033C000017342608360FFF7E0FF10BDF0B5C646B1
:1033D00000B505000C1E03D1200080BCB846F0BD2E
:1033E000FFF766FF4678002EF6D031002800FFF781
:1033F0005FFF477800239846437021002800FFF7BD
:1034000057FF43464370320021002800FFF79EFF1C
:10341000040039002800FFF7D9FF0200210028002E
:10342000FFF794FF0400D7E7F0B5C64600B50400E7
:103430000D001700002927D0FFF73AFF4378002B33
:1034400028D18378002B2BD101782000FFF7BEFF15
:1034500006008046002F0AD0E17B002926D1A37BFD
:10346000002B03D1E37B002B25D1A573E5734346E5
:10347000002B26D129002000FFF71AFF00234370FC
:10348000300080BCB846F0BD114B124A12483821BA
:1034900000F0AEFA114B0F4A0F483A2100F0A8FA9B
:1034A0000F4B0C4A0C483B2100F0A2FA2000FFF71A
:1034B000FFFE4570D3E70B4B064A0748422100F058
:1034C00097FA31002000FFF7F3FE00238370D1E765
:1034D00030AC0010F0AC001038AC00106CAC001038
:1034E00094AC00107CA9001070B504000A00457B64
:1034F0002900FFF799FF6073280070BD70B50600C2
:103500000C1E40D0437B8B4207D0FFF7D1FE050055
:103510008178002906D1002036E00121FFF7E4FF81
:10352000012031E03000FFF7C3FE0178A1420DD049
:103530003000FFF7BDFE4178A1420AD00029F7D143
:10354000124B134A13486B3100F052FA6B78037038
:1035500001E06B7843700023AB706B700122210097
:103560003000FFF761FF0200717B814205D030001F
:10357000FFF7ECFE7073012006E0074B044A054894
:10358000712100F035FA002070BDC04694A60010ED
:10359000D8AC001038AC0010B8AC0010F8B5DE465E
:1035A00057464E464546E0B506000F0015000A9AFC
:1035B00093424ED31A0E92461B0298460A9A002353
:1035C0004046514601F034FC81467400A419A40021
:1035D0002E4B9C4664446368834200D26060331F74
:1035E000DBB29B46012B3AD9C0239B0123438022A7
:1035F00012011A60264BB200D158002905D0586933
:1036000001F0D8FB01300138FDD16D0123685D4028
:10361000E0222A4080235B0123431A605A46012A94
:1036200028D980239B012343802212011A604B4634
:1036300063604A4600234046514601F0F9FB144BB3
:10364000B60098510120F0BCBB46B246A946A04640
:10365000F8BD104B104A11482D2100F0C9F9012F77
:10366000C2D1C0239B01234303221A60A368DB0756
:10367000FCD5CAE72168794003220A401A60A36892
:103680000125BD401D42FAD0CBE7C0460080004076
:10369000CC36002024AD001074AD001038AD001001
:1036A00030B583B00C2000F017F9FEF775FB002849
:1036B0000DD0002304E02E4A99002E488850013393
:1036C000092BF8D92A4B2C4A5A6203B030BD2B4B38
:1036D00000229A6700F072F9294B01221A60274BE9
:1036E0005B6C012BFBD1274B03221A60234B9B6B96
:1036F000012BFBD1013300930433234A01212348DA
:1037000000F054F805230093214A0121214800F0DC
:103710004DF8214B0093002202210420FFF73EFFC9
:103720001E4D00952B00002201210520FFF736FFDA
:10373000104C00942300002200210720FFF72EFFE9
:1037400000942300002200210820FFF727FF0A4BE6
:1037500000932300002200210920FFF71FFF00959E
:103760002B00002200210620FFF718FFADE7C0461E
:10377000CC360020006CDC021BB70000008000404B
:103780003CB0004030B00040002F6859008002403B
:10379000008C864700C00240001BB70040597307E9
:1037A000014B8000C0587047CC360020F0B5C646AB
:1037B00000B504000D00170098460C2001F0FAFA3D
:1037C0000600394BFA18394B9A4241D843011B1A6B
:1037D0009901C91AC90009188901380001F0EAFAEB
:1037E0000200103A98235B009A4237D84346013BC7
:1037F000062B39D8069B013B062B35D83F09B7422B
:1038000038D343461E04069B1B031E432368002B2C
:1038100036DB274B9C4244D080235B01254A136052
:10382000254A1360254A926819009143FAD1256010
:10383000A060221DC0239B01134321221A6022682D
:10384000002AFCDAE66008221A6080BCB846F0BDA7
:103850001B4B1C4A1C48112100F0CAF81B4B194A8B
:103860001948192100F0C4F8194B164A16481C21B2
:1038700000F0BEF8174B134A1348232100F0B8F8A4
:1038800022683F231340AB42C3D1A3681B051B0D25
:103890008342BED1E368EE22D2021340B342B8D1D4
:1038A000D3E780239B01B9E780E84BD380F8A932A6
:1038B00000C0024000E0004000F0004000C00040B6
:1038C00084AD0010A0AE0010E4AD00101CAE0010DE
:1038D00038AE001084AE001080239B000343014AE1
:1038E000D362704700800540024B1A68024B5A6051
:1038F0007047C046683B00200080054010B5174B5C
:103900008022D2051A60164B164A1A6000290AD086
:10391000154BE022D2041A60002809D1124B8022F4
:1039200012061A6010BD0D4BE022D2041A60F3E7B4
:1039300043011B1A9B00181800010C4B18608023D0
:103940005B04984202D3094B094A1A60FFF7CCFF87
:10395000054B8022D2051A60E4E7C04600B005405E
:1039600008200140FCFF010000A00540683B00204A
:10397000FFFFFF0010B5030010000C4A8024E4058F
:103980001460002B0DD001221343094A094CD46165
:10399000094C5C401462516293620021FFF7AEFF54
:1039A00010BD034B0022DA61F7E7C04600B00540C6
:1039B00000800540D3C007B02D3FF84F064BAA2228
:1039C00012011A602F22DA60044B054A1A60024B7A
:1039D0005B68002BFBDA7047004002400060024049
:1039E00000B0FA0000BEFDE710B5FFF7FBFF0000D6
:1039F00030B583B00D001900002A0BD0074B084CDE
:103A0000019200932B000200200003F075FD0120BD
:103A1000FFF7E8FF034B1A00F1E7C046ACAE001019
:103A2000BCAE0010B8AE001070B52B4B2B4A1A601C
:103A30002B4B2C4A1A602C4B9A682A4B9343FAD191
:103A40002A4C01E008CC9847294B9C42FAD3FFF757
:103A500027FE234B274A1A60234B9B68DB43DB017D
:103A6000FAD1254B40229A675A671A67DA66234CC7
:103A700009E0234B234A24488621FFF7B9FF2000A1
:103A8000FEF7C1FD0834214B9C4209D22368002B6C
:103A9000F5D0012BEDD12000FEF7C2FD0834F2E78E
:103AA0001B4DA9681B4CC022200003F095FBAC60A5
:103AB000EFF30583002B00D000BEFEF7CFF9FEF731
:103AC00021FDFFF7E7F8144C01E008CC9847134BB1
:103AD0009C42FAD370BDC04600E00040BFCDFBFE63
:103AE00000F00040FE7F3C0000C000409C0E002023
:103AF000AC0E0020FFFFFF0100F001408C0E002003
:103B0000ECAE00105CAF00100CAF00109C0E00205B
:103B100000ED00E000000020AC0E0020B80E0020F8
:103B20000FB400B583B0084803F0B6FC049B002B2B
:103B300007D005A90191180003F0BEFC034803F06B
:103B4000ABFC0120FFF74EFF48AF001058AF00104C
:103B5000704710B5002802D00B684968984710BD1F
:103B60000100002007E083001B185B00501C086068
:103B70001078C01830380A681378303BDBB2092B54
:103B8000F1D97047F0B5DE4657464E464546E0B59A
:103B900083B093461F000C9B9A460D9C0E9B994642
:103BA0000F9B9B0703D0B8460F00060022E001924E
:103BB000A34688464E46B9460700B44207D2551C74
:103BC0004B4641462020B84701342A00F5E73D0026
:103BD0004F465C46019B9B46B1464646B846370079
:103BE0002E0007E0013C551C5346185D4346390042
:103BF000B0472A00002CF5D135003E0047460F9B08
:103C00009B0707D4100003B0F0BCBB46B246A946E0
:103C1000A046F0BDB0464E46B9462F005D46531B48
:103C2000B342EFD2541C4B4641462020B8472200F5
:103C3000F5E7F0B5CE46474680B585B09446984640
:103C40000C9D0D9C0EAB1B789946109A119B129EF1
:103C5000B7071CD4002B0CD0F7070AD54F46002F0E
:103C600002D10C37374204D0013B02E030272F55F8
:103C70000134944201D21F2CF8D9F70707D59C4292
:103C800005D21F2C03D830272F550134F5E7F7064E
:103C900012D5770505D4002C03D0944221D09C4244
:103CA0001FD00F9A102A32D00F9A022A37D01F2C19
:103CB0000AD830222A5501341F2C05D84A46002A3A
:103CC00033D02D222A550134039602930194009596
:103CD00043466246FFF756FF05B0C0BCB946B04642
:103CE000F0BD621E012C10D00F9F102F0BD01400BE
:103CF0000F9A102AD8D1B206D6D51F2CD4D8582264
:103D00002A550134D3E7023CCBE71400C9E7B206D9
:103D1000EED41F2CECD878222A550134C7E71F2C8B
:103D2000D2D860322A550134C1E7720703D52B225D
:103D30002A550134C8E73207C6D520222A55013456
:103D4000C2E7F0B5DE4657464E464546E0B593B06D
:103D500081468A46089209931CAB10CB1B789B4680
:103D60001E9D219B9846002C03D1102342469A4366
:103D700090468023DB0046461E4042461A4212D03F
:103D8000002C22D000260EE03033D9B2771C0AABCB
:103D900099552900200001F00DF8AC4216D31F2FD1
:103DA00014D83E0004002900200001F003F8CBB233
:103DB000092BE9D94246920605D54121C918C9B255
:103DC0000A39C9B2E2E76121F8E7270043460693C2
:103DD000209B05931F9B049303955B4602930197D9
:103DE0000AAB0093099B089A51464846FFF721FF0A
:103DF00013B0F0BCBB46B246A946A046F0BDF0B534
:103E0000DE4657464E464546E0B597B00A900B91C0
:103E10000C929A46209B9946219F22AA13789B4692
:103E2000249B0993259C289B98464A463A4302D1F5
:103E30001032934398468022D200454615404346AF
:103E400013420AD04A463A4341D000252E00534639
:103E50000D934D46099B9A461BE02E0053460D9349
:103E60004D46099B9A4614E03033DAB2731C9946EA
:103E70000EAB9A55524623002800390000F0D8FFB7
:103E8000BC4226D819D04B461F2B1CD84E460500E5
:103E90000F00524623002800390000F0C9FFD3B2BA
:103EA000092BE1D94246920605D54122D218D2B259
:103EB0000A3AD2B2DAE76122F8E7AA45E3D94E46D8
:103EC0000D9B9A4608E04E460D9B9A4604E000265C
:103ED00002E04E460D9B9A4643460693279B059368
:103EE000269B0493099B03935B46029301960EABBA
:103EF000009353460C9A0B990A98FFF79AFE17B055
:103F0000F0BCBB46B246A946A046F0BDF0B5DE46C1
:103F100057464E464546E0B591B0804689460C92DC
:103F20009A461A9C1B9D22002B002000290001F0BC
:103F30001EFA002800D0ECE001225242D44B2000AF
:103F4000290001F00FFA002800D0E2E001225242DD
:103F5000D04B2000290001F0EFF9002800D0D8E074
:103F6000002200232000290001F0E6F9002800D0FB
:103F7000E4E0069407958023DB001E9A1A400D9218
:103F80001E9A1A4201D106231C9306980799020033
:103F90000B000892099303000A00024300D1D9E004
:103FA000080D4005400DBC4EB44660440A03120B98
:103FB0001E00BA4B13431F0001F0ECF9B84AB94B8D
:103FC00001F06FF9B84AB94B01F044F90890099132
:103FD0000022B74B3000390001F033F9B54AB64B37
:103FE00001F05FF902000B000898099901F032F91D
:103FF00001F0E8F9834601F0CDF906000F00AF4A61
:10400000AF4B01F04EF90022AE4B01F023F901F065
:10401000D9F90890AC4AAD4B3000390001F041F9B4
:1040200006000F00089801F0B5F9A94AA94B01F064
:1040300038F902000B003000390001F002F90600E7
:104040000F0002000B0001F02CF90A900B91089B65
:10405000A14A9446634400210022089109921B055D
:1040600009930023089332003B003000390001F02F
:10407000F1F80E900F9132003B0000208021C9051D
:1040800001F0DFF806000F000022944B0A980B990C
:1040900001F0E9F80022924B01F0DCF802000B007D
:1040A0000A980B9901F0DFF800228E4B01F0D2F84C
:1040B00002000B000A980B9901F0D5F802000B00E2
:1040C0003000390001F0C6F802000B000E980F997D
:1040D00001F0C9F80022714B01F0BCF8089A099B65
:1040E00001F0DFF806000F0008960997069A079B73
:1040F00001F038F900282FD001235B429C46E344AD
:104100000022774B3000390001F0ADF8089009919A
:1041100022E01E9B04931D9B03931C9B029300941F
:10412000019553460C9A4946404600F0FFF811B0FD
:10413000F0BCBB46B246A946A046F0BD0021002215
:1041400006910792069480231B069C46AC44634666
:10415000079310E700239B465B466333C62B20D8AA
:1041600004261E9B1B0528D5089A099B190011439C
:104170000FD05D4A5D4B0698079901F0EBF80028D7
:104180007AD000225A4B0698079901F0D5F80028FA
:1041900072D01C9B5B4506DD5A469B1A013B1C9363
:1041A00003E00526DDE700231C938023DB001E9A35
:1041B0001A431E92002600239B461D9B9E4265D2F9
:1041C0009F1B02231E9A1A400A921E9A134202D083
:1041D000002E00D000275B46002B07D0089A099BD1
:1041E0000698079901F03FF80690079100220023F6
:1041F0002000290001F0A0F8002800D07CE03D4B11
:104200001E9A1340049303971C9B0293069B079CE2
:104210000093019453460C9A4946404600F086F8B4
:10422000002E00D183E71E9B9B0671D54525441CBB
:104230005346020049462800C0475A46D317D218B1
:104240005A4005230593013E0496002303930A3345
:1042500002935B46DB0F01930092534622004946CE
:104260004046FFF76EFD0A9B002B00D15FE702007E
:1042700047460C9E1D9D53E01C9B002B9DD00D9B23
:10428000002B9AD01C9B013B1C9396E7002798E7D4
:10429000FFFFEF7FFFFFEFFF01FCFFFF0000F03F9C
:1042A000FB799F501344D33FB3C8608B288AC63F25
:1042B0000000F83F61436F63A787D23F71A379097C
:1042C0004F930A400000E03F1655B5BBB16B02406A
:1042D000EF39FAFE422EE63FFF03000000002C40BB
:1042E00000002440000018402D431CEBE2361A3F2A
:1042F00080842E41FFF7FFFF069C079D22002900C6
:1043000080200006844661440B000692079376E7FE
:1043100065258CE7541C534649462020B8472200A7
:10432000931BAB42F6D3100001E7C046F0B5DE4662
:1043300057464E464546E0B595B0069007919346E0
:104340009946209F1E9A1F9B1000190001F00FF83C
:10435000002831D101225242BF4B1E981F9900F014
:10436000EBFF002837D101225242BC4B1E981F9907
:1043700000F0F8FF00283DD10022B94B1E981F998C
:1043800000F0F0FF002850D10022B64B1E981F9974
:1043900000F0D2FF002848D1002200231E981F9968
:1043A00000F0CAFF002850D100239846229B5B05ED
:1043B00000D4B6E0002458E0229B0393219B029393
:1043C00003230193A84B00934B465A46079906983E
:1043D000FFF7D8FB0EE1229B0393219B029304235A
:1043E0000193A24B00934B465A4607990698FFF754
:1043F000C9FBFFE00423229A1A4022990B4210D0F5
:104400009B4B002A0FD004222299039121990291FB
:10441000019200934B465A4607990698FFF7B2FB64
:10442000E8E0944BEDE70322EEE7229B0493219B07
:10443000039302971E9B1F9C009301944B465A4680
:1044400007990698FFF762FDD4E01E9A1F9B002093
:10445000002100F0F6FE1E901F9101239846A5E76B
:104460000CAB30221A55013F01341F2C01D8092F03
:10447000F6D81E981F9900F0A5FF050000F08AFFEE
:1044800002000B001E981F9900F0DBFE7A4BFA0029
:104490009B181A685B680A920B9300F002FF089061
:1044A000099100F0B3FF060000F070FF02000B005E
:1044B0000898099900F0C5FE0890099100226F4BF9
:1044C00000F050FF00282ED00136300000F05EFFD3
:1044D00002000B000A980B9900F034FF002801D06D
:1044E00001350026002F2CD1280000F053FF0200D8
:1044F0000B001E981F9900F0A4FE06000F0000227A
:104500005E4B00F019FF002846D100225B4B3000C3
:10451000390000F027FF00283ED1EB073CD50135DC
:104520003AE0062746E70022544B0898099900F024
:1045300003FF0028D6D1002E01D0F307D2D50136D3
:10454000D0E7AA461F2C11D8013F0A21300000F005
:1045500031FC651C30310CAB19550A21300000F0DC
:1045600029FC092E0ED906002C00EBE755461F2C1E
:104570000CD87B1E002F09D00CAA302111551F002A
:104580000134F4E72B0055461C00F0E71F2C03D83C
:104590000CAB2E221A5501341F2C10D80A212800EA
:1045A00000F0E0FB661C30310CAB19550A212800E5
:1045B00000F0D8FB051E01D03400EDE734000323E2
:1045C000229A1340012B1CD01F2C06D84346002BE7
:1045D00032D00CAB2D221A550134229B0393219B20
:1045E000029301940CAB00934B465A4607990698E8
:1045F000FFF7C8FA15B0F0BCBB46B246A946A046C4
:10460000F0BD219B002B13D04346002B02D10C336D
:1046100013420FD0219B013B2193190003E00CAB07
:1046200030221A5501348C42CED21F2CF7D9CBE759
:104630002199F8E72199F6E7229B5B0704D50CAB9B
:104640002B221A550134C8E7229B1B07C5D50CAB9A
:1046500020221A550134C0E7FFFFEFFFFFFFEF7F75
:1046600065CDCD4165CDCDC178AF00107CAF0010D8
:104670006CAF001074AF001020B100100000E03FDC
:10468000F0B5DE4657464E464546E0B593B0824605
:10469000884693461193002900D106E3002556462B
:1046A000119B1878002800D102E3252809D06C1C42
:1046B0005B462A004146B047119B01331193250008
:1046C000EEE701331193002720E001231F4301325D
:1046D0001192012418E002231F4301321192012498
:1046E00012E004231F430132119201240CE008233D
:1046F0001F4301321192012406E010231F430132AF
:104700001192012400E00024002C09D0119A1378A2
:10471000203BD9B21029F6D88B00C449CB589F460C
:10472000119B1A781300303BDBB2092B10D92A2ACF
:1047300013D00B94119B1A782E2A1ED0119A13783D
:10474000683BD9B2122959D88B00B949CB589F463A
:1047500011A8FFF705FA0B90ECE71C9B1A1D1C92A1
:104760001B68002B04DB0B93119B01331193E1E7D2
:10477000022217435B420B93F6E78022D2001743D5
:104780005A1C11925A781300303BDBB2092B0BD91B
:104790002A2AD3D11C9B1A1D1C921C68002C08DBF2
:1047A000119B01331193C9E711A8FFF7D9F9040050
:1047B000C4E70024F4E780235B003B43511C1191C4
:1047C00051786C2901D01F0018E0C0239B001F43C3
:1047D0000232119212E080233B43511C1191517817
:1047E000682901D01F0009E0C0231F430232119243
:1047F00004E080235B001F4301321192119B187863
:10480000672816D8252826D30300253BDAB2422A8A
:1048100021D89300874AD3589F4680239B001F438B
:1048200001321192EAE780235B001F4301321192AB
:10483000E4E778280FD869280DD30200693AD2B28C
:10484000012393407C4A13420FD11A0600D507E298
:104850005B0500D594E16C1C5B462A004146B047DD
:10486000119B0133119325001AE778280AD062289A
:104870003AD06F283BD058283CD010239F43063BAA
:104880009C4601E010239C46582836D0692803D066
:10489000642801D00C2297437A0501D50122974361
:1048A00069282DD064282BD0BA0500D5A2E0FA05DE
:1048B00000D5C3E07A0600D4D5E01C9A111D1C91E6
:1048C0001168FF220A4005970B9B049303946346EB
:1048D00002930023019300925B462A004146300078
:1048E000FFF72FFA05002AE002239C46CCE70823B5
:1048F0009C46C9E710239C46C6E720221743C5E71C
:10490000BA0520D4FA0550D47A0666D51C9A111D32
:104910001C911168FF220A40D017111841400597D9
:104920000B9B0493039463460293D20F0192009170
:104930005B462A0041463000FFF703FA0500119B51
:1049400001331193ACE61C9A073207218A43110008
:1049500008311C91116853689946DB170C930D932D
:104960000C9A0D9B100048400E904A4653400F93FE
:104970000E980F990C9A0D9B801A99410E900F91E9
:1049800008970B9B079306946346049300230593B3
:104990004B46DA0F0292009001915B462A00414695
:1049A0003000FFF72CFA0500C9E71C9A111D1C9175
:1049B0001268D0171118414005970B9B049303947C
:1049C00063460293D20F019200915B462A00414652
:1049D0003000FFF7B6F90500B1E73A0605D51C9A95
:1049E000111D1C910023D25E96E71C9A111D1C918B
:1049F000126891E71C9A073207218A431100083197
:104A00001C9108970B9B079306946346049300231D
:104A10000593029353681268009201935B462A0043
:104A200041463000FFF7EBF9050088E784AF00103E
:104A3000C8AF001014B00010419000001C9A111D66
:104A40001C9105970B9B04930394634602930023E8
:104A50000193136800935B462A0041463000FFF73C
:104A600070F905006BE73A0606D51C9A111D1C91DA
:104A700012681204120C26E71C9A111D1C91126870
:104A800021E7462819D01C9B0733072293431A00BD
:104A900008321C9204970B9A039202941A685B687E
:104AA000009201935B462A0041463000FFF73EFC2E
:104AB0000500119B01331193F2E520231F43E2E728
:104AC000672801D0472802D180231B011F434528B6
:104AD00001D0472801D120231F431C9B0733072205
:104AE00093431A0008321C9204970B9A0392029483
:104AF0001A685B68009201935B462A0041463000C9
:104B0000FFF704FA0500119B01331193C8E5022356
:104B10001A003A4091463B421DD001241C9B1A1DAD
:104B20001C926F1C18785B462A004146B0474B46E2
:104B3000002B14D1119B013311933D00B0E5571C9C
:104B40005B4641462020B04723003A005C1C9D4252
:104B5000F5D81500E2E701232A000B9DF6E73A009D
:104B6000B1460B9E06E0571C5B4641462020C847D5
:104B70002C003A00651CA642F5D817004E46D9E72E
:104B80001C9B1A1D1C921B689A46002C25D10122E1
:104B90005242534601E001330A001978002902D03D
:104BA000511E002AF7D152469B1A8022D2003900AA
:104BB00011408946174202D0A34200D923000222A5
:104BC0001100394010913A4209D02A002500574679
:104BD0009A4633004E46994621E02200D9E72A0042
:104BE0004546A04606E0541C5B4629002020B047FD
:104BF0003B0022005F1C0B999942F4D84446A8461A
:104C00003B00250057469A4633004E46994606E03B
:104C10001D000137541C5B464146C84722003878C6
:104C2000002804D0002EF4D06B1E002DF0D115000A
:104C300053464E46109A002A03D1119B013311931B
:104C40002EE50B9F2A0006E0551C5B4641462020BE
:104C5000B04723002A005C1C9F42F5D81500ECE702
:104C600021233B431C9A111D1C91126805930823B4
:104C700004930394083302930023019300925B464C
:104C80002A0041463000FFF75CF80500119B013314
:104C9000119305E56C1C5B462A0041462520B04770
:104CA000119B013311932500FAE40B4B9A46F5E46E
:104CB000B2465D450DD35B465A1E5B464146002019
:104CC000D047280013B0F0BCBB46B246A946A04668
:104CD000F0BD2A00F1E7C046513B001000B585B099
:104CE0000290039101210448009313004A4202A953
:104CF000FFF7C6FC05B000BD533B0010014804217E
:104D0000014B1847200E00202D4D001010B501005A
:104D100018231B8814221088984710BD10B5010075
:104D200018231B8816221088984710BDF0B5C64678
:104D300000B507000E0000250123984600E001356C
:104D4000B5420AD2AC003C192068FFF7DFFF2060B3
:104D50000028F4D100239846F1E7404680BCB846CD
:104D6000F0BD0000124A936F9B0815D29066D16681
:104D7000002905D0FFE7FFE7FFE7516F106F70478D
:104D800004B580210906C2175140002800D0C8434D
:104D900005F0DEF9002104BDF0B5146E556E576FB5
:104DA000166FFFF7E3FF1466556657671667F0BD89
:104DB000000000D0114A936F9B0813D21066516611
:104DC000002905D0FFE7FFE7FFE7516F106F70473D
:104DD00004B5002801D00020C04305F0B9F9002136
:104DE00004BDC046F0B5146E556E576F166FFFF7D1
:104DF000E5FF1466556657671667F0BD000000D0E2
:104E000094464A4A926F9208624601D228E0C04610
:104E1000F0B5464E346E756E776F366F00F020F841
:104E20009446424A14665566576716676246F0BD57
:104E300094463E4A926F9208624601D254E0C046C0
:104E4000F0B53A4E346E756E776F366F00F04CF8F1
:104E50009446364A14665566576716676246F0BD33
:104E6000002B24DB11D000293EDA00B5C9434042B3
:104E700000D1013100F038F8C943404200D101317E
:104E8000DB43524200D1013300BD002AEBD10028A0
:104E900001D1002905D00020C90FC90701D1C043A5
:104EA000410800B505F04CF90022002300BD00B513
:104EB00000290ADBDB43524200D1013300F014F831
:104EC000C943404200D1013100BDC943404200D135
:104ED0000131DB43524200D1013300F005F8DB43DE
:104EE000524200D1013300BD002923D1002B18D13B
:104EF000002A0CD0BC460D4F38667A66002100238C
:104F0000FFE7FFE7FFE77A6F386F674670470028D3
:104F100001D00748010000B505F012F90022002376
:104F200000BD02000B00002000217047000000D0EF
:104F3000FFFFFFFF002B00D0BFE0130C28D1002A99
:104F4000E7D080B4114F39667A66FFE7FFE730B4E7
:104F5000040C7B6F396F1B0423433B667A66FFE7C3
:104F6000FFE7FFE7C04684B27B6F3D6F1B0423431E
:104F70003B667A66FFE7FFE7C04600232C042D0C52
:104F80007A6F386F00196941B0BC7047000000D0DB
:104F9000F0B594460025140E01D112020835140F05
:104FA00001D112010435940F01D192000235D40FC2
:104FB00001D152000135D40B0134254F7C66254CBC
:104FC0003C660E0C93B2FFE7FFE7FFE73C6F6643DA
:104FD000360C7703BE467343DF0B5B04C01AB9413E
:104FE000130C7343DB18C91ACE086643360CB6445B
:104FF00093B273431F0F1B01C01AB941130C7343C3
:105000001F0B1B05C01AB941860D8F023E43664334
:10501000360C092D24DB520A7243801A7703460AA4
:105020006643360C16235B1BDE40DF40BF19644627
:105030006643821B7046043506330100D940A84000
:10504000C01900D30131A24206D20023F0BD0000F6
:10505000000000D0FFFFFFFF121B0130F3D3F1E788
:1050600009277F1BFE406446A2B27243801A00D219
:105070000139220C7243130C1204821A99410B005D
:105080007046043513370100F940A840801900D359
:105090000131002B02D1A2420AD2F0BD013000D36F
:1050A0000131121BFAD2013BF8D1A24200D2F0BD6D
:1050B000013000D30131121BF7E7F0B51C0C00D012
:1050C00080E00CB400251C0A04D11B02160E3343E9
:1050D000120208351C0B04D11B01160F33431201B9
:1050E00004359C0B04D19B00960F3343920002358C
:1050F000DC0B02D192185B4101351C00971864410A
:105100000134464F7C66464C3C660E0CFFE7FFE7D9
:10511000FFE7C0463C6F6643360C7703BE4697B246
:105120007743C01B00D20139C01B00D201399FB2A6
:105130007743C91BC91B170C77437E04FF0B801BE9
:10514000B941CE086643360C0C2D33DBB644120B46
:105150001F053A431B0B97B27743C01B00D201399E
:105160009FB27743C91B170C77433E043F0C801B4B
:10517000B941860D8F023E43664329277F1BFE40BF
:105180000C3D7746AF40BF1930BCA2B2ABB2724300
:105190007343801A9941220C7243130C1204801A33
:1051A000994102000B000137001BA941F9D2781E7A
:1051B0000021F0BD0C277F1BFE4077467F0BAF40E0
:1051C000FF19E0E700245D1C07D0144F7D663966A7
:1051D000FFE7FFE7FFE7FFE73C6F95B29EB265434D
:1051E0006643401BB141150C1E0C654366433604F3
:1051F0002F0C3E432D04401BB141994204D20200C2
:105200000B0020000021F0BD01D19042F7D3801A9D
:10521000994101349942F2D3F6E70000000000D032
:10522000FFFFFFFF44464D4656465F46F0B47047C9
:10523000F0BCA046A946B246BB4670474840414034
:10524000484018B41B4B5B68FC46019308BD04DF63
:10525000EB5F001018B4174B1B68FC46019308BDA8
:1052600000DFF55F00109446134A926F920809D24E
:10527000624618B40F4BDB68FC46019308BD0CDF97
:10528000AD6200100C4AF0B5146E556E576F166F74
:105290006246FFF7EEFF084A1466556657671667C1
:1052A000F0BD18B4034B9B68FC46019308BD08DFB2
:1052B00051610010D03B0020000000D0FFB55040ED
:1052C0004240504059404B40594000E0FFB5154F17
:1052D0004C00640D03D0BC4204D10C0314D8002050
:1052E000090D09055C00640D03D0BC4204D11C0308
:1052F0000AD800221B0D1B0501264B4009D44B4048
:1053000003D58B4200D18242FFBD9942FCD190422D
:10531000FFBD0B43DB1803431343F5D0C9434918C2
:10532000FFBD0000FF07000000B5FFF7CFFF01D071
:10533000002000BD012000BD00B5FFF7C7FF804180
:1053400000BDC04600B5FFF7C1FF01D9002000BD78
:10535000012000BD00B5FFF7B1FF01D9002000BD5D
:10536000012000BD00B5FFF7A9FF804100BD01206D
:1053700040054A00121804D85A00121801D800201B
:10538000704701207047002070470000002100286E
:1053900005D17047C1174840401AFAD0C90713B564
:1053A000064B1B6898470CBC441CA2401005120B0E
:1053B0000349091B09051943114310BDD03C0020C6
:1053C0001F04000010B54C00620D8023D218DB00D2
:1053D000D21A5B057E2A10DD9E3A13DACC17090338
:1053E000490819435242D140640001341532202A41
:1053F00005DAD0400843604310BD002010BD0846C8
:10540000604310BDC80FC018013810BD18B4044B5C
:105410005B6AFC46019308BD24DF8966001000002A
:10542000D03B002018B4044B1B6EFC46019308BD12
:1054300060DF976700100000D03B002018B4044BD9
:10544000DB6FFC46019308BD7CDF21670010000084
:10545000D03B002018B4044B9B69FC46019308BD67
:1054600018DF796400100000D03B0020024A034B93
:1054700000B500F095FD00BD182D4454FB211940E6
:105480008A0002D3920D092A08DA18B4064BDB6BA6
:10549000FC46019308BD3CDFEB68001000B5FFF748
:1054A000E5FF04BC9646F0E7D03B00208A0002D31B
:1054B000920D092A08DA18B4064B1B6CFC460193BE
:1054C00008BD40DFFB68001000B5FFF7CFFF04BC4C
:1054D0009646F0E7D03B00208A0002D3920D092ABD
:1054E0001DDA9446114A926F920809D2624618B4A6
:1054F0000F4B5B6CFC46019308BD44DFCB6800108A
:105500000A4AF0B5146E556E576F166F6246FFF774
:10551000EEFF064A1466556657671667F0BD00B57C
:10552000FFF7A4FF04BC9646DBE70000000000D0B4
:10553000D03B002018B4044BDB6CFC46019308BD43
:105540004CDFFD6B00100000D03B002018B4044B72
:105550001B6DFC46019308BD50DF996C00100000E4
:10556000D03B002070B513231C78012C12D0012CE5
:1055700012DC214B214A93642148FFF7C7FB214BE2
:10558000186070BD1C491D4A9800815001331F2BC3
:10559000F8D9ECE70023FAE71B48FFF7BFFB05004B
:1055A0001A48FFF7BBFB023803789B007F2B09DD0D
:1055B00012488022290001F00FFE022C08D0022C94
:1055C000DADCD6E7124B134A13483221FEF710FA01
:1055D000124B1A88B5231B029A4209D1104B1A8824
:1055E000104B9A4204D1104B1A88104B9A42E6D0C5
:1055F0000020FEF795FAC046B15F0010D03B0020B6
:105600004C330000D03C00205344000053460000BF
:1056100070B1001014B20010D0B100105438000066
:10562000D8380000494600009C3800005946000068
:1056300030B50B0D5B055C0D002B14D00D4B9C425F
:1056400011D01419002C09DD0B4B9C420CDDC90F45
:10565000C907002409480843050002E00024C90FD7
:10566000CD072000290030BD0024150524184D4128
:10567000F7E7C046FF070000FE0700000000F07FCC
:1056800030B50B0D5B055A0D002B1FD0134BD218F4
:105690001ED434239B1A002B1CDD1C00203C0CD490
:1056A00001225242A240012464429C400300A343D1
:1056B00091430B4310D1012009E02024E41A012278
:1056C00052421500E5409A402A43ECE7012030BDE4
:1056D0000020FCE70120FAE70020F8E701FCFFFFCB
:1056E00030B50B0D5B055B0D1B4A9B182CD4342287
:1056F000D31A2BD41C00203C16D4353AA2400124E6
:1057000064429C400500A5432C000D0095432A00EF
:1057100022431DD1342B1DD01A00203A0DD408008D
:10572000D0400123184030BD2024E41A0122524207
:105730001500E5409A402A43E1E72022D21A0C00E6
:105740009440D8402043ECE70020ECE70020EAE753
:105750000020E8E70120E6E701FCFFFF02000B0064
:10576000090D4905480D002907D00549884205D093
:105770001803000B10434342584170470020FCE7D8
:10578000FF07000070B504000D001600012A0ED0BE
:10579000D20F92195210FFF7F5FF02000B00FFF72E
:1057A00080FDF60703D522002B00FFF77AFD70BDC0
:1057B00010B5141E03DB2200FFF7E4FF10BD02004A
:1057C0000B0000200249FFF74EFD6442F3E7C0469C
:1057D0000000F03FF0B5DE4657464E464546E0B580
:1057E00085B004000D00009201930E9B9A46002B99
:1057F00044DD019B191101204042FFF7DBFA0390C1
:1058000000239B4628E00C239946AB11039A53438F
:105810001D224946521A134101335B1098464B46EC
:10582000203B21D422009A40170023004A4693408F
:105830001E004346D917009A019B404601F012FB17
:1058400034003D00241A8D415B464A469340434450
:105850009B4653469B1A9A465346002B11DD5346EE
:105860000C2BD0DCD146D0E720235B1A2200DA4093
:1058700013002A008A4017001F43D6E70023039332
:10588000BEE7009A019BAB4209DC01D1A24206D8D7
:10589000009A019BA41A9D4101239C46E344009A6F
:1058A000019BAB4209DC01D1A24206D8009A019BC0
:1058B000A41A9D4101239C46E344002D0DDB0F9B60
:1058C000002B01D05A461A602000290005B0F0BC18
:1058D000BB46B246A946A046F0BD009A019BA4185B
:1058E0005D41012149428C46E344002DE7DAA418CA
:1058F0005D41E344E3E70000F0B5D6464F46464637
:10590000C0B588B014001D000E0D7605760D674BEE
:10591000F718674A921BFFF78BFEFFF717FE654AE1
:10592000654BFFF7A0FC0022644B00900191FFF74C
:1059300019FD002809D00022614B00980199FFF75A
:1059400080FC009001915F4BF718002F11D00022CE
:105950005D4B20002900FFF7FDFC002815D0002F2B
:1059600010DB0020594908B0E0BCBA46B146A84651
:10597000F0BD22002B0000980199FFF792FC00F087
:1059800065F9F0E700200021EDE70022504B2000F0
:105990002900FFF7D7FC002807D0002F02DB0020EA
:1059A0000021E0E700204949DDE72000290000F060
:1059B00001F90490059102000B0020002900FFF777
:1059C00040FC03000C001A220293039400F0EEF84E
:1059D00000F0F0F81A225242FFF72AFE04000D00F0
:1059E00002000B0002980399FFF72BFC0690079129
:1059F00004980599FFF7E6FC8146010079438A4641
:105A00003800FFF7C7FC22002B0004900591FFF738
:105A100048FC06000F0000F0CDF804000D00FFF771
:105A2000D1FC8046D04422002B0030003900FFF723
:105A300008FC04000D00069A079B04980599FFF7DF
:105A400030FC02000B0020002900FFF703FC04904B
:105A500005914846FFF79EFC009A019BFFF721FC49
:105A600004000D0000F0A6F806000F00FFF7AAFCE6
:105A7000804432003B0020002900FFF7E2FB049A3B
:105A8000059BFFF7E7FB04000D00029A039B0098BB
:105A90000199FFF706FC22002B00FFF7DBFB00F06B
:105AA000D5F84246FFF7C4FD5DE7C04601FCFFFFA5
:105AB000FF030000EF39FAFE422EE63F0000E03F10
:105AC0000000F03F02FCFFFF0000B0400000F07F4C
:105AD0000000B0C0F0B5C64600B582B004000D00AD
